:020000040800F2
:1000000000200020E15C00081132000813320008D3
:1000100000000000000000000000000000000000E0
:100020000000000000000000000000001532000881
:10003000000000000000000017320008193200081C
:10004000315D0008315D0008315D0008315D000858
:10005000315D0008315D0008315D0008315D000848
:1000600000000000315D0008315D00080000000064
:10007000315D000821320008315D000800000000F9
:10008000315D0008315D000800000000315D0008AE
:1000900000000000315D0008315D0008315D00089E
:1000A00000000000315D000800000000315D000824
:1000B000315D0008000000000000000000000000AA
:1000C0000023C25C0133002AFBD1581E7047000098
:1000D00002B4714649084900095C49008E4402BCDB
:1000E0007047C04603B47146490840004900095EA4
:1000F00049008E4403BC7047002243088B4274D3EE
:1001000003098B425FD3030A8B4244D3030B8B4218
:1001100028D3030C8B420DD3FF22090212BA030C21
:100120008B4202D31212090265D0030B8B4219D302
:1001300000E0090AC30B8B4201D3CB03C01A524122
:10014000830B8B4201D38B03C01A5241430B8B426A
:1001500001D34B03C01A5241030B8B4201D30B0353
:10016000C01A5241C30A8B4201D3CB02C01A52417A
:10017000830A8B4201D38B02C01A5241430A8B423D
:1001800001D34B02C01A5241030A8B4201D30B0226
:10019000C01A5241CDD2C3098B4201D3CB01C01A40
:1001A000524183098B4201D38B01C01A524143094A
:1001B0008B4201D34B01C01A524103098B4201D338
:1001C0000B01C01A5241C3088B4201D3CB00C01AA5
:1001D000524183088B4201D38B00C01A524143081D
:1001E0008B4201D34B00C01A5241411A00D2014642
:1001F000524110467047FFE701B5002000F0F0F8CB
:1002000002BDC0460029F7D076E7704703460B438E
:100210007FD4002243088B4274D303098B425FD3FF
:10022000030A8B4244D3030B8B4228D3030C8B422B
:100230000DD3FF22090212BA030C8B4202D3121211
:10024000090265D0030B8B4219D300E0090AC30BE6
:100250008B4201D3CB03C01A5241830B8B4201D393
:100260008B03C01A5241430B8B4201D34B03C01A7C
:100270005241030B8B4201D30B03C01A5241C30AF4
:100280008B4201D3CB02C01A5241830A8B4201D365
:100290008B02C01A5241430A8B4201D34B02C01A4F
:1002A0005241030A8B4201D30B02C01A5241CDD2F4
:1002B000C3098B4201D3CB01C01A524183098B423F
:1002C00001D38B01C01A524143098B4201D34B0128
:1002D000C01A524103098B4201D30B01C01A52418B
:1002E000C3088B4201D3CB00C01A524183088B4212
:1002F00001D38B00C01A524143088B4201D34B00FB
:10030000C01A5241411A00D201465241104670476C
:100310005DE0CA0F00D04942031000D34042534071
:1003200000229C4603098B422DD3030A8B4212D331
:10033000FC22890112BA030A8B420CD38901921163
:100340008B4208D3890192118B4204D389013AD0A0
:10035000921100E08909C3098B4201D3CB01C01A75
:10036000524183098B4201D38B01C01A5241430988
:100370008B4201D34B01C01A524103098B4201D376
:100380000B01C01A5241C3088B4201D3CB00C01AE3
:10039000524183088B4201D38B00C01A5241D9D2FB
:1003A00043088B4201D34B00C01A5241411A00D27C
:1003B0000146634652415B10104601D34042002B78
:1003C00000D54942704763465B1000D3404201B5F7
:1003D000002000F005F802BD0029F8D016E77047AC
:1003E0007047C0468446100062468C46190063463A
:1003F00000E0C0461FB507F0C9FC002801D4002169
:10040000C8421FBD10B507F00BFC4042013010BDC3
:1004100010B507F0BBFC002801DB002010BD012057
:1004200010BDC04610B507F0B1FC002801DD00206A
:1004300010BD012010BDC04610B507F037FC0028E4
:1004400001DC002010BD012010BDC04610B507F032
:100450002DFC002801DA002010BD012010BDC0468F
:10046000844608006146FFE71FB506F00FF8002834
:1004700001D40021C8421FBD10B505F097FF4042CE
:10048000013010BD10B506F001F8002801DB002096
:1004900010BD012010BDC04610B505F0F7FF0028C3
:1004A00001DD002010BD012010BDC04610B505F0D3
:1004B000A5FF002801DC002010BD012010BDC046B2
:1004C00010B505F09BFF002801DA002010BD0120C7
:1004D00010BDC0460100343138C9043B9C461D6044
:1004E000A646010020313CC990469946A246AB463B
:1004F00001000831FCC941680068E54600BDC046FE
:100500007047C0467047C0467047C0467047C046F7
:100510007047C0467047C0467047C0467047C046E7
:100520007047C0467047C04601B401A801B585B008
:10053000FFB408A841464A4653465C4665463EC05D
:1005400001A83EC80F98009000230CB401A908F040
:100550006DFE109B12B0184701B401A801B585B01B
:10056000FFB408A841464A4653465C4665463EC02D
:1005700001A83EC80F98009000230CB401A908F010
:1005800089FE109B12B0184701B401A801B585B0CF
:10059000FFB408A841464A4653465C4665463EC0FD
:1005A00001A83EC80F98009000230CB401A908F0E0
:1005B00095FE109B12B0184701B401A801B585B093
:1005C000FFB408A841464A4653465C4665463EC0CD
:1005D00001A83EC80F98009000230CB401AB08F0AE
:1005E0004FFE109B12B0184701B401A801B585B0A9
:1005F000FFB408A841464A4653465C4665463EC09D
:1006000001A83EC80F98009000230CB401AA08F07E
:10061000CFFE109B12B018471C2101231B049842E7
:1006200001D3000C10391B0A984201D3000A083983
:100630001B09984201D30009043902A2105C40183A
:100640007047C046040302020101010100000000DE
:10065000000000000448054B10B5834203D0044B52
:10066000002B00D0984710BD840300208403002095
:100670000000000006480749091A8B10C90FC91865
:1006800010B5491003D0044B002B00D0984710BD83
:1006900084030020840300200000000010B5074CF4
:1006A0002378002B09D1FFF7D5FF054B002B02D093
:1006B000044800E000BF0123237010BD8803002020
:1006C0000000000088A40008054B10B5002B03D0E3
:1006D0000449054800E000BFFFF7CCFF10BDC0464D
:1006E000000000008C03002088A40008F0B51F0063
:1006F000002316008BB09F4204DA802109067B1884
:100700001F002D23129A149D1370202303229D4352
:10071000462D07D02B00453B59424B411099013AD9
:10072000CB18109309AB049308AB0393139B00926F
:100730000293109B320001933B0000F04BFE04003B
:10074000472D1BD1119BDB0711D5109BC3180793B5
:100750000022002330003900FFF754FE002801D0AA
:10076000079B09933022099B07998B4220D32000D5
:10077000099B159A1B1B13600BB0F0BD109BC3188F
:100780000793462DE4D10378302B0CD100220023AF
:1007900030003900FFF736FE002804D10123109AFB
:1007A0009B1A139A1360139B079A1B68D318CEE702
:1007B000591C09911A70D6E7F0B52B2385B00500B6
:1007C0000C1E027001DA4C4202336B70092C2EDDD4
:1007D00002ABDE1D20000A21FFF7FEFD370030319D
:1007E000013E200031700A210194FFF70FFD019BAB
:1007F0000400632BEEDCBA1E30341470AC1C130002
:10080000210002A8073098420CD802AB0733002021
:10081000934203D3093002ABC018C01B0019401B20
:1008200005B0F0BD1878013308700131E9E73023D5
:10083000E418AB70281DEC70F1E70000F0B597B03C
:100840000C001C9D0A920B93099000F0B9FC036800
:1008500018000F93FFF734FC002307221090149325
:10086000237E0E93236811932B6807339343012251
:10087000C0CB2B607B005B080D930C96A664E764ED
:100880000C980D99A44B524208F0EEF9002831D192
:100890000C980D990122A04B5242FFF7C3FD00288E
:1008A00028D10022002330003900FFF7B1FD0028D5
:1008B00003D023002D2243331A70984B0C930E9BC8
:1008C000472B01D8964B0C9303230025119A2361E3
:1008D00001339A4322600B9B2100009309980A9BE5
:1008E00015AA00F0D9F9013000D099E0012040426A
:1008F00017B0F0BD32003B003000390008F0B4F909
:1009000000280CD0002F03DA23002D2243331A7065
:10091000844B0C930E9B472BD6D8834BD3E72022D6
:100920000E9D636895435A1C44D10733636080234E
:10093000119ADB00134300222360069214AA059249
:100940000E9A0AA9049213AA039223225218029221
:10095000019363683200009309983B00FFF7C6FEDD
:1009600013990C90472D2BD1CB1C02DB63688B4273
:1009700044DA0E9E023EF3B20E9320000E9A013925
:1009800050301391FFF718FF149A050013182361D4
:10099000012A02DC2268D20701D501332361232317
:1009A0000AAA9B181B78002B95D023002D224333D5
:1009B0001A7090E7472DBAD1002BB8D10133B5E7B3
:1009C0000E9B652BD9D90E9B662B19D16368002924
:1009D00009DD2161002B02D12268D2070BD501333A
:1009E0005B18236107E0002B03D10122206810422D
:1009F00000D09A1C22610025A165D0E767230E93E1
:100A0000149B8B4205DC23682161DB07F3D54B1C6B
:100A1000E7E70122002901DC9218521A9B18E0E74F
:100A20002268530508D423690C9A0A9909980B9DEA
:100A3000A847013029D159E70E9B652B00D8D6E095
:100A4000A06CE16C00220023FFF7DCFC002833D00F
:100A50000123364A0A9909980B9DA847013000D115
:100A600044E7149E139BB34202DB2368DB070CD5DB
:100A70000B9D109B0F9A0A990998A84700250130F1
:100A800000D133E7731EAB420ADC23689B0700D515
:100A900000E1159BE068984200DB29E7180027E792
:100AA000220001230A9909980B9F1A32B847013096
:100AB00000D11BE70135E5E7139B002B38DC012350
:100AC0001A4A0A9909980B9DA847013000D10DE7F1
:100AD000149E139B334302D12368DB07D5D50B9DAE
:100AE000109B0F9A0A990998A8470025013000D158
:100AF000FCE6139B5B42AB4201DC330094E722002F
:100B000001230A9909980B9F1A32B847013000D186
:100B1000ECE60135EDE7C046FFFFEF7FB8A4000823
:100B2000B4A40008C0A40008BCA40008C4A4000821
:100B3000149EA76DB74200DD3700002F2FDCFB436A
:100B40000025DB173B400E93A76D0E9BFB1AAB42B3
:100B50002EDC139B9E4237DC2368DB0734D4139DC5
:100B6000F31B751B9D4200DD1D00002D35DCEB43A2
:100B70000027DB171D400C95139B0C9AF31A9B1A48
:100B8000BB4200DC81E7220001230A9909980B9DF2
:100B90001A32A847013000D1A8E60137ECE73B0044
:100BA0000C9A0A9909980B9DA8470130C7D19DE678
:100BB000220001230A9909980B9F1A32B847013085
:100BC00000D193E60135BFE7109B0F9A0A99099867
:100BD0000B9DA8470130C2D188E60C9B0A99DA190F
:100BE00009982B000B9FB8470130C0D17EE6149EB8
:100BF000012E02DC01231A4239D001230C9A0A99F2
:100C000009980B9FB847013000D16FE6109B0F9AEF
:100C10000A9909980B9FB847013000D166E6A06C8D
:100C2000E16C731E0E9300220023FFF7EBFB0028FC
:100C30001BD10C9A0E9B01320A9909980B9EB04762
:100C400001300ED152E6220001230A9909980B9E29
:100C50001A32B047013000D148E601370E9B9F425F
:100C6000F1DB22002B005032DFE60027F6E70C9A7A
:100C7000E2E7220001230A9909980B9E1932B04736
:100C8000013000D132E60135E368159A9B1AAB4278
:100C9000EFDCFEE60025F7E7F7B5160001938A685A
:100CA0000B690C000090934200DA130022003360BD
:100CB00043321278002A01D00133336023689B0647
:100CC00002D53368023333602268062315001D40C5
:100CD0001A4227D0230043331B785A1E93412268BF
:100CE000920630D4220001990098089D4332A8470B
:100CF000013025D00622236800251340042B05D19E
:100D00003368E568ED1AEB43DB171D40A3682269E1
:100D1000934201DD9B1AED180026B54220D1002038
:100D200010E00135E36832689B1AAB42D2DD220045
:100D3000012301990098089F1932B8470130F0D17A
:100D400001204042FEBD3020E118433108702100EF
:100D50005A1C45310978A218433202331170C1E799
:100D60002200012301990098089F1A32B8470130E8
:100D7000E6D00136D1E70000F0B58BB006920A004C
:100D800043320793059003920A7E0C00109B782A49
:100D900009D8622A0BD8002A00D1BAE07A49049116
:100DA000582A00D18EE0250042352A7022E010003A
:100DB00063381528F7D8FFF795F916001F00F6FFDE
:100DC000F6FFF6FFF6FF1F00F6FFF6FFF6FFF6FF51
:100DD0009F0036007E00F6FFF6FFB000F6FF3600FB
:100DE000F6FFF6FF820025001A684235111D1960D2
:100DF00013682B7001239EE018680968021D0D0618
:100E00000BD506681A60002E03DA2D23039A76426A
:100E100013705D4B0A27049318E006681A604906B0
:100E2000F1D536B2EFE70868196840C9050602D463
:100E3000400600D5B6B21960534B0A2704936F2AB7
:100E400000D1023F2300002243331A706368A3607D
:100E5000002B06DB04212268039D8A432260334372
:100E60000CD0039D30003900FFF7CCF9049B013D05
:100E70005B5C2B70330006009F42F3D9082F09D129
:100E80002368DB0706D5626823699A4202DC3023B7
:100E9000013D2B70039B5B1B2361079B210000938B
:100EA0000598069B09AAFFF7F7FE013048D10120FB
:100EB00040420BB0F0BD202209680A43226078222C
:100EC00032490491210045310A701968226840C9ED
:100ED000100602D4500600D5B6B21960D30702D569
:100EE000202313432360002E01D01027AAE72022DD
:100EF000236893432360F8E71A680D68101D496959
:100F0000186013682E0601D5196002E06D06FBD546
:100F100019800023039D2361BFE71A68111D196022
:100F2000156800212800626800F0C3F9002801D08C
:100F3000401B6060636823610023039A1370ACE771
:100F40002A00236906990598079DA8470130AED06D
:100F500023689B0715D4099BE0689842A9DA18001A
:100F6000A7E72200012306990598079E1932B0478A
:100F700001309CD00135E368099A9B1AAB42F0DC42
:100F8000E9E70025F7E7C046C6A40008D7A4000893
:100F9000002310B5040003604360836081814366D1
:100FA000C281036143618361190008225C3000F053
:100FB000FFF80B4B246263620A4BA3620A4BE362A5
:100FC0000A4B23630A4B9C4205D00A4B9C4202D039
:100FD000094B9C4203D12000583000F067F910BD46
:100FE000191100084111000879110008A511000825
:100FF000A40300200C0400207404002010B5034A50
:101000000349044800F06CF810BDC046C000002041
:10101000252A0008D000002041680B4B10B50400C1
:10102000994201D001F0FEFCA168084B994202D020
:10103000200001F0F7FCE168054B994202D0200046
:1010400001F0F0FC10BDC046A40300200C040020F9
:101050007404002010B5094B094A04211A6009489C
:101060000022FFF795FF012209210748FFF790FFB3
:10107000022212210548FFF78BFF10BDDC0400207F
:10108000FD0F0008A40300200C04002074040020BD
:1010900010B5024800F00BF910BDC046E504002071
:1010A00010B5024800F004F910BDC046E504002068
:1010B00010B50400FFF7ECFF236A002B02D0FFF706
:1010C000EFFF10BD044B2362044B1B68002BF6D1CD
:1010D000FFF7C0FFF3E7C04619100008DC0400204A
:1010E000F7B51400002600900191A5686768013FDC
:1010F00004D52468002CF8D13000FEBDAB89012B4B
:1011000008D90E22AB5E013304D029000098019B60
:10111000984706436835EAE770B50C000E25495F2D
:1011200000F078F8002803DB636D1B18636570BD61
:10113000A389024A1340A381F9E7C046FFEFFFFFEE
:10114000F8B51F008B8905000C001600DB0505D5DE
:101150000E23C95E0022022300F048F8A389054A45
:1011600028001340A38132000E23E15E3B0000F013
:1011700065F8F8BDFFEFFFFF70B50C000E25495F65
:1011800000F034F80C22A35E421C03D1044A134041
:10119000A38170BD802252011343A3816065F8E7EB
:1011A000FFEFFFFF10B50E23C95E00F00DF810BD74
:1011B00003008218934200D1704719700133F9E798
:1011C000004870470C020020002370B5064D040053
:1011D00008002B6003F09BF8431C03D12B68002B05
:1011E00000D0236070BDC046E004002070B504004C
:1011F000080011001A000023054D2B6003F092F83F
:10120000431C03D12B68002B00D0236070BDC04667
:10121000E004002070B50400080011001A0000234B
:10122000054D2B6003F05BF8431C03D12B68002BAA
:1012300000D0236070BDC046E004002070B50400FB
:10124000080011001A000023054D2B6003F03AF846
:10125000431C03D12B68002B00D0236070BDC04617
:10126000E004002070B500260C4C0D4D641BA4104A
:10127000A64209D1002609F007F90A4C0A4D641B61
:10128000A410A64205D170BDB300EB5898470136B3
:10129000EEE7B300EB5898470136F2E774AD00086B
:1012A00074AD000878AD000874AD00087047704751
:1012B0007047C9B28218904201D10020704703786C
:1012C0008B42FBD00130F6E7F0B503690C6989B0B9
:1012D000039006910020A34263DB0B00013C143312
:1012E000A50004935B190593039B143301935D19C7
:1012F000059B2F681E68380001363100FEF7FCFEA2
:101300000290B74227D3049B00279C46019E079773
:10131000624608CA30689446029A99B251431B0C3F
:101320005343C9190A0C9B1889B282B2521A079901
:101330001F0C5218000C9BB21114C31A5B1819141D
:1013400092B21B04134308C6059B07916345DFD285
:101350002B68002B2BD00699039801F0B9F90028CF
:101360001EDB0026019D049901C92B6887B29AB241
:10137000D21B9219000C1B0C1B1A10141B181E14E4
:1013800092B21B04134308C5059B8B42ECD2019A11
:10139000A300D3181A68002A14D0029B01330293C9
:1013A000029809B0F0BD2B68002B04D1013C019BD1
:1013B000043DAB42F7D3039B1C61CCE71A68002ABB
:1013C00004D1013C019A043B9A42F7D3039B1C6170
:1013D000E3E70000F0B514001D00C2699DB0109451
:1013E0001195259F0290002A10D1102000F028FEB0
:1013F000029B021ED86104D1EF21C04BC04801F00E
:1014000059FB0023436083600360C36011680029B7
:101410000BD001235268029893404A608B6000F021
:101420000DFF0022029BDB691A602E1E1DDA0123CC
:101430006E00DE403B601196B24BB24A334093429D
:1014400016D1B14B249A3603360B1360264301D1D3
:1014500000F07DFDAD4B269A0593002A02D0AC4BDF
:10146000269A136005981DB0F0BD00233B60E3E7AA
:10147000109A119B0C920D930C980D990022002349
:10148000FEF7C0FF071E0BD00123249A1360269B92
:10149000002B02D09F4B269A13609F4B0593E1E7E8
:1014A0001AAB01931BAB009302980C9A0D9B01F0B1
:1014B000CFF91A9B0490310D059300D17BE00D9B71
:1014C00019971A03954B120B1343954A8E180C98D3
:1014D0000D9919000022934B06F08EFF924A934B10
:1014E00006F0C2FC924A934B05F062FC0400300007
:1014F0000D0007F017FC904A904B06F0B5FC020077
:101500000B002000290005F053FC04000D0007F03B
:10151000CDFB00220390002320002900FEF778FF76
:1015200000280BD0039807F0FDFB2B002200FEF7EC
:1015300069FF43425841039B1B1A039301231393F2
:10154000039B162B10D80C980D99039A7C4BD20054
:101550009B181A685B68FEF75BFF002847D0039B67
:10156000013B039300231393059B9E1B00230693CB
:10157000731E03D50122931B069300230A93039B3A
:10158000002B36DB039A0A9B944663440A9300239C
:1015900012920E93229B0124092B61D8052B02DDA8
:1015A0000024043B2293229B981E032862D8FEF756
:1015B0008FFD53553629059B1B9FDF19614BFA1888
:1015C000202A0FDD40239B1A9E405F4B3000FB1802
:1015D000DC40204307F0D4FB01225C4B7E1ECB187D
:1015E000199276E7202320009B1A9840F2E7139087
:1015F000BAE7069B039A9B1A069353420E93002365
:101600001293C7E70123239A0F939446039B6344E5
:101610000B9301330893002B08DC012306E0012320
:101620000F93239B002B29DD0B930893029A002133
:10163000D0690422150014354E1C9D4223D9416007
:10164000029800F0B9FD059000281FD1B021404B51
:101650002B48059AFF31D2E60023E1E70023D2E7C9
:1016600000230F942293013B00220B930893133322
:101670002392DBE701230F93023BF5E701231A00D6
:101680000B930893F4E731005200D3E7029B059ACD
:10169000DB691A60089B0E2B00D9DEE0002C00D11C
:1016A000DBE0039B002B68DD0F21039A244B0A40EB
:1016B000D2009B181E685F68039B02251C110C9AC0
:1016C0000D9B14921593039BDB050AD5214B0C400F
:1016D0001A6A5B6A0C980D9905F084FF14901591B5
:1016E00001351C4B0993002C36D114981599320002
:1016F0003B0005F077FF06000F005BE0F5A4000853
:101700000CA500080000F07F0F270000F1A40008DE
:10171000F4A40008C5A40008C4A400080000F03F19
:1017200001FCFFFF0000F83F61436F63A787D23FD2
:10173000B3C8608B288AC63FFB799F501344D33FC0
:10174000B0A800083204000012040000000010FEDF
:1017500065A5000888A8000801231C4209D0ED18DF
:10176000099B30001A685B68390006F07DFB0600B3
:101770000F00099B64100833B4E7039B02250C9EFD
:101780000D9F002B16D00F225C422240D24BD2007C
:101790009B1830001A685B68390006F065FBCF4B78
:1017A000060009930F0000232411002C00D098E0BC
:1017B000002BA0D1139B002B00D1A1E00022300010
:1017C0003900C74BFEF724FE002800D198E0089BA3
:1017D000002B00D194E00B9B002B3EDD039B3000DF
:1017E000013B390009930022BE4B06F03DFB060089
:1017F0000F000B9C0135280007F094FA32003B00E3
:1018000006F032FB0022B84B05F0D2FAB74B149029
:101810001591CB181593149A159B16921793002CBB
:1018200072D1002230003900B14B06F0E5FD169A66
:10183000179B06000F00FEF7FFFD002800D0AAE26C
:101840008020000684461599300061440B00149AEC
:101850003900FEF7DDFD002826D11B9B002B00DAA6
:1018600069E1039A0E2A00DD65E19B4BD2009B18CB
:101870005C681B6806930794239B002B00DBE4E065
:10188000089B002B00DDE0E00ED1069807990022AE
:10189000974B06F0E9FA02000B000C980D99FEF741
:1018A000C1FD002800D179E200263700239B059C6A
:1018B000DB430993039700273100029800F0BEFC38
:1018C000039B002B00D1B6E0002F05D09F4203D030
:1018D0003900029800F0B2FC0399029800F0AEFCC7
:1018E000A9E00122144206D0099BAD181A685B6872
:1018F00006F0BAFA0123099A64100832099254E7F3
:10190000039B089C099376E7734B621ED2009B18D9
:1019100018685968059BE31818930F9B002B49D052
:1019200002000B000020734905F05CFE169A179B1D
:1019300006F062FD059B1490159116933900300056
:1019400007F0B4F9050007F0EDF902000B003000D4
:10195000390006F051FD169B30355C1C1D70149A41
:10196000159B06000F00FEF753FD002863D13200DF
:101970003B0000205A4906F03FFD149A159BFEF7E4
:1019800047FD002800D0B9E0189B9C4200D164E7D5
:10199000149815990022534B06F066FA0022149011
:1019A0001591504B3000390006F05EFA169406008F
:1019B0000F00C3E7169A179B06F056FA149015917C
:1019C000059D3900300007F071F9040007F0AAF90D
:1019D0000B0002003900300006F00EFD3034189B79
:1019E0002C70013506000F00AB4227D114981599D1
:1019F00000221C003F4B05F0DBF902000B00300019
:101A00003900FEF719FD002800D077E0149A159BE5
:101A10000020384906F0F0FC02000B0030003900CD
:101A2000FEF7F6FC002800D117E72300013C2278DE
:101A3000302AFAD01C00099B03933DE00022294B79
:101A400006F012FA06000F00BBE7089F059E013F53
:101A5000BF19069A079B0C980D9905F0C3FD07F076
:101A600025F9050007F05EF9069A079B06F0FCF9D8
:101A700002000B000C980D9906F0BEFC2A00330002
:101A80003032013634001A709F4247D102000B00F9
:101A900005F08EF9069A079B06000F00FEF7CCFCB6
:101AA000002829D1069A079B30003900FEF7AAFCCE
:101AB000002801D0ED071FD40499029800F0BEFB66
:101AC00000232370039B249A01331360269B002B71
:101AD00000D1C7E41C60C5E4B0A8000888A80008CD
:101AE0000000F03F0000244000001C400000C0FC4B
:101AF000000014400000E03F039B099323001C00FA
:101B0000013B1A78392A06D1059A9A42F7D1099AE7
:101B100001320992302201321A708CE70022C64B42
:101B200006F0A2F9002200230C900D91FEF76AFC4A
:101B300000288ED0C0E70F9F0E9D069C002F14D06A
:101B4000229A012A00DDE4E0199A002A00D1DAE0A5
:101B5000BA4A9B18069A0121D21806920A9A02984C
:101B6000D3180A9300F022FC0700002C0ED00A9B29
:101B7000002B0BDD0A9A2300944200DD1300069A25
:101B8000E41AD21A06920A9AD31A0A930E9B002BD1
:101B900021D00F9B002B00D1D3E0049E002D14D048
:101BA00039002A00029800F0C5FC049A01000700E1
:101BB000029800F013FC06000499029800F03EFB26
:101BC0000E9B04965B1B0E9305D031000E9A029873
:101BD00000F0B0FC04900121029800F0E7FB129B9A
:101BE0000600002B00D1BCE11A000100029800F0B1
:101BF000A1FC229B06000025012B16DC0025109B72
:101C0000AB420ED1119B1B03AB420AD18C4B119AF4
:101C1000134206D0069B0135013306930A9B01331C
:101C20000A93129B0120002B08D0336903339B00D9
:101C3000F318586800F06AFB2023181A0A9B18183A
:101C400002001F231A40184200D181E001339B1A81
:101C5000042B79DD1C239B1A069AE418D2180692ED
:101C60000A9AD3180A93069B002B05DD1A000499E3
:101C7000029800F0C1FC04900A9B002B05DD3100A6
:101C80001A00029800F0B8FC0600139B002B61D0EC
:101C90003100049800F01CFD00285BDA039B0A2247
:101CA000013B099304990023029800F0EBFA0F9B83
:101CB0000490002B00D15BE1002339000A22029836
:101CC00000F0E0FA0B9B0700002B4DDC229B022B5F
:101CD00046DD0B9B002B00D0E8E531000522029881
:101CE00000F0D0FA06000100049800F0F1FC002892
:101CF00000DCDBE5059B059A5C1C31231370099B16
:101D000001330993D6E536231A9A0E9D9B1A069C39
:101D100020E7089B5D1E0E9BAB4208DB5D1B089B0A
:101D2000002BF4DA069B089A9C1A002312E70E9BFC
:101D3000129AEB1AD31812930E95069C0025089B55
:101D400008E70E9A049942E7042B8CD01C3383E7F2
:101D50001300FBE7039B0993089B0B93002BB5DD56
:101D60000F9B002B00D107E1002C05DD390022007C
:101D7000029800F041FC07000397002D20D07968FD
:101D8000029800F019FA041E0CD122002D4B2E48A7
:101D90002E49FFF734FB26003700ABE7039B089E74
:101DA0000993F9E739003A690C31023292000C309C
:101DB00000F076FE01222100029800F01DFC039045
:101DC000059B0B9A0693013B9B1801220E93109BD7
:101DD00013400C9331000498FFF776FA39000500A0
:101DE0000A90049800F074FC039A0B90310002985A
:101DF00000F08AFC0122C368040030350892002BF1
:101E000004D10100049800F063FC089021000298BE
:101E100000F014FA069B229A5C1C089B13430C9A50
:101E2000134315D1392D2ED00B9B002B01DD0A9DBC
:101E30003135069B1D703FE500002440330400004F
:101E40000000F07F65A500080CA50008EF02000067
:101E50000B9B002B04DB229A13430C9A13431ED1D5
:101E6000089B002BE5DD04990122029800F0C4FBD9
:101E70003100049000F02CFC002802DCD9D1EB07E3
:101E8000D7D5392DD3D13923069A137023001C00DE
:101E9000013B1A78392A51D001321A700CE5089B9F
:101EA000002B03DD392DEED00135C2E7069B0E9ADB
:101EB0001D7093422DD000230A220499029800F04D
:101EC000E1F9039B04909F4209D1390000230A22C3
:101ED000029800F0D7F90700039006947AE73900DA
:101EE00000230A22029800F0CDF9002307000A22FD
:101EF0000399029800F0C6F90390EEE700240B9BCB
:101F0000A34201DD1C00013C03970027059B013320
:101F1000E41804990122029800F06EFB310004904D
:101F200000F0D6FB0028B1DC01D1ED07AED42300D0
:101F30001C00013B1A78302AFAD0BDE4059A9A4277
:101F4000A5D1099B0133099331231370B4E4154BD8
:101F5000269A0593144B002A01D0FFF781FAFFF768
:101F600081FA229B012B00DC48E60120129D65E6E8
:101F70000B9B002B00DCA9E6002431000498FFF73E
:101F8000A3F9059B303018550B9B01340500A34283
:101F9000B4DD00230A220499029800F073F904903A
:101FA000EBE7C046E8A40008F0A4000870B50500FF
:101FB0000C1E10D0043C2368002B00DAE418280023
:101FC00000F0EAF81D4A1368002B05D16360146025
:101FD000280000F0E9F870BDA34208D92068211854
:101FE0008B42F3D119685B6809182160EEE71A008B
:101FF0005B68002B01D0A342F9D911685018A042A8
:102000000BD120680918501811608342E0D118687C
:102010005B68411811605360DAE7A04202D90C23D3
:102020002B60D5E7206821188B4203D119685B68C3
:102030000918216063605460CAE7C046EC040020C0
:1020400010B5034B0100186800F026F810BDC0461B
:10205000CC00002070B50F4E0D003168040000293F
:1020600002D100F00BFD30602900200000F006FDD9
:10207000431C03D101256D42280070BD0323C51CFC
:102080009D43A842F8D0291A200000F0F7FC013047
:10209000F2D1EFE7E8040020F7B50322CB1C93430D
:1020A000083305001F000C2B34D20C27B94233D85B
:1020B000280000F071F8374E33681C00002C2FD137
:1020C00039002800FFF7C6FF0400431C5FD13468C5
:1020D0000094009B002B4AD1002C52D0236828008A
:1020E000E3180099019300F0C9FC019B834248D199
:1020F00023682800FF1A3900FFF7ACFF013040D0F9
:102100002368DB19236033685A68002A33D1009BA7
:10211000336019E0002BC9DA0C232B600020FEBDD0
:102120002168C91B20D40B290AD9E2192760A342D0
:1021300004D1326063681160536005E05A60F9E7CA
:102140006268A3420ED13260280000F02DF8200012
:1021500007220B30231D9043C21A9842DFD01B1A6E
:10216000A350DCE75A60EFE723006468A6E7009C11
:1021700063680093ADE71A005B68A342FBD10023BC
:10218000DAE70C2328002B6000F00EF8C6E70760A2
:10219000DAE7C046EC04002010B50248FFF787F8E4
:1021A00010BDC046E404002010B50248FFF780F8D7
:1021B00010BDC046E404002070B5C46905000E00DF
:1021C000002C10D11020FFF73BFF041EE86105D161
:1021D00022006B21174B184800F06CFC0023436071
:1021E00083600360C360E368002B0BD121220421CC
:1021F000280000F07DFCEB69E060DB68002B01D17A
:10220000002070BDB2009B181868002805D0026835
:102210001A6000230361C360F3E701210C00B4409E
:10222000621D2800920000F063FC0028E8D04660A0
:102230008460EEE7F5A4000876A5000870B5C669CD
:1022400005000C00002E0ED11020FFF7F9FE021E33
:10225000E86104D18F21094B094800F02BFC46604E
:1022600086600660C660002C07D0EB696268DB6898
:1022700092009B181A6822601C6070BDF5A40008CB
:1022800076A50008F7B50F0001900C001E00002095
:102290000D6914373B68013099B251431B0C53430D
:1022A00089190E0C9B191E0C89B21B045B1808C7F8
:1022B0008542EFDC002E22D0A368AB4219DC6168B6
:1022C00001980131FFF778FF071E05D13A00BA21C6
:1022D0000C4B0D4800F0EEFB210022690C3102325C
:1022E00092000C3000F0DCFB21000198FFF7A6FF04
:1022F0003C002B1D9B00E31801355E60256120002A
:10230000FEBDC04665A5000876A500088022030032
:1023100052020020934201D21B041030802252044A
:10232000934201D208301B0280225205934201D20F
:1023300004301B018022D205934201D202309B005F
:10234000002B03DB0130134200D1202070470368CB
:10235000010007221800104013420DD0063A002059
:10236000134205D10230034203D0D34010000B606A
:1023700070479B080B60FBE79AB2002A01D110203E
:102380001B0CDAB2002A01D108301B0A1A0701D14E
:1023900004301B099A0701D102309B08DA07E9D4FF
:1023A00001305B08E6D12020E2E7000010B50C0008
:1023B0000121FFF701FF002807D14621054C02004B
:1023C000054B2000FF3100F075FB012344610361E0
:1023D00010BDC04676A5000865A50008F0B50D69DA
:1023E00016690F00140089B0B54204DB33000C00FD
:1023F0002E0017001D0073190193A36872196168FC
:10240000934200DA0131FFF7D7FE0090002806D191
:10241000B121464B4648009A490000F04BFB009A18
:10242000731914329B00D3180293002113000298F1
:10243000834229D32300B6001433049314379B1925
:10244000AD000393BC462B00634407930023059320
:10245000230003991533994204D30C1B153CA4089F
:10246000A3000593079B9C4510D3019B002B05DD22
:10247000029B043B02931B68002B52D0009B019AE5
:1024800018001A6109B0F0BD02C3D0E763461C68AA
:10249000A4B2002C1ED017000025049E01CE3B687C
:1024A000069383B2634319006B46000C1B8B604399
:1024B000CB1806995B19090C4018190C41189BB2EE
:1024C0000D0C09041943039B02C7B342E6D8059BD0
:1024D000D3185D6063461C68240C1ED0116816007A
:1024E00008000027049D2B68000C9BB26343DB1996
:1024F0001B18180489B20843306080CD70683F0C07
:10250000674381B279181B0CC918039B0F0C043662
:10251000AB42E8D8059BD318596004239C44D218D9
:10252000A0E7019B013B01939FE7C04665A500081A
:1025300076A50008F7B50323150007000C001A4024
:102540001D4208D02849013A920052580023210028
:10255000FFF798FE0400AB10019342D0FD69002DF7
:1025600011D11020FFF76CFD051EF86106D1B421D2
:102570002A001E4B1E48FF3100F09CFA00234360E6
:1025800083600360C360AE68002E07D1380019492C
:10259000FFF70CFF00230600A86003600122019BE7
:1025A00025001340019A52100192002B0CD02100FB
:1025B00032003800FFF712FF290004003800FFF74F
:1025C0003DFE019B002B0CD03068002807D1320063
:1025D00031003800FFF702FF00233060036006007F
:1025E000DCE72000FEBDC04678A80008F5A400087E
:1025F00076A5000871020000F0B50C0016002369F2
:10260000571187B0FB180293013301934968A368FF
:102610000390019A934210DB0398FFF7CDFD00234E
:10262000010005001A00143198420CD1EF212A0054
:10263000254B2648490000F03DFA01315B00E8E7F0
:1026400098000A500133BB42FADBFB43DB171F4003
:10265000BF002300C9191F203700226914339200DC
:1026600005919A180740064228D00130C01B0490FB
:1026700000201E688C46BE4006436046066001CBC3
:10268000049E0431F0409A42F3D821001531002312
:102690008A4203D3131B153B9B089B00059AD31852
:1026A0005860002801D1029B0193019B03982100EF
:1026B0002B61FFF7C3FD280007B0F0BD40CB0E60D3
:1026C00004319A42FAD8EEE765A5000876A500081D
:1026D00030B50B6904690200E01A9C420FD1143234
:1026E0009B0014311400C918D218043A0439156833
:1026F0000B689D4204D001209D4200D2023830BDBB
:102700009442F2D3FBE70000F0B50C0087B00090D4
:10271000110020001700FFF7DBFF051E10D101009C
:102720000098FFF749FD021E04D1454B4548464934
:1027300000F0C0F9012345610361100007B0F0BD4E
:102740000026B04203DA23003C001F000136616816
:102750000098FFF731FD021E03D1394B39483B4940
:10276000E6E72369143400939B00E31801931423D4
:102770009C463B69BC449B00634402930300C660D3
:10278000002014330393059304946146049B20CBEB
:10279000049308C98C46A9B20E0099B2711A09189F
:1027A0002D0C1B0C0814EB1A1B18181489B21B04EF
:1027B0001943059B02C30593029B6345E5D83B0083
:1027C000029D153300219D4203D3EB1B153B9B0853
:1027D0009900039B5B1861180E1D350004330293AA
:1027E000039B1B1B0393039B9C46019BAC449D4294
:1027F00012D3019801310023884204D3030003332C
:102800009B1B9B089B0002995B18043B19680029DD
:1028100011D0009B136190E7070008CD98B2C01952
:1028200000141C0C0419DB1920149BB2240423434C
:1028300064462360D7E7009901390091E5E7C04677
:1028400065A5000876A500083702000045020000D3
:10285000F7B5012116001F00FFF7AEFC041E05D1DD
:102860002200254B2548264900F024F93B037D0032
:102870001B0B6D0D02D08022520313430193002ED7
:1028800025D068460096FFF762FD009900281CD00D
:10289000019B20221E00121A96403200C3400A43B8
:1028A00062610193019EA661731E9E4101362661FD
:1028B000002D14D03526134BED18089B2D181D60E4
:1028C000099B361A1E602000FEBD6161EAE701A87F
:1028D000FFF73DFD019B012663612030E7E70A4BCE
:1028E000C018089B1860094BF3189B00E31858693F
:1028F000FFF70CFD7601E3E765A5000876A5000863
:102900000F030000CDFBFFFFCEFBFFFFFFFFFF3FEC
:10291000F7B50C228B5E05000C001A075AD44A68E2
:10292000002A02DC0A6C002A4FDDE76A002F4CD037
:10293000002280212E682A601A0049010A400B42B9
:1029400034D0626DA3895B0706D56368D21A636BC6
:10295000002B01D0236CD21A00232800E76A216AD9
:10296000B8470C23E25E431C06D129681D292ED8E6
:102970002B4BCB40DB072AD5002363602369236000
:10298000D20405D5431C02D12B68002B00D1606511
:10299000616B2E60002918D023004433994202D085
:1029A0002800FFF703FB002363630EE001232800E8
:1029B000216AB8470200431CC4D12B68002BC1D048
:1029C0001D2B01D0162B1DD12E60002021E04023AD
:1029D00013431BE00E69002EF7D00F680E60BA1B80
:1029E000019200229B0700D14A69A260019B002B43
:1029F000EBDDA36A32001F002800019B216AB84763
:102A0000002807DC4023A28913431BB20120A381C5
:102A10004042FEBD019B36181B1A0193E6E7C046F3
:102A2000010040200B6970B505000C00002B02D19D
:102A30000025280070BD002804D0036A002B01D1B6
:102A4000FEF736FB0C22A35E002BF1D0626ED2079C
:102A500004D49B0502D4A06DFEF729FC28002100B8
:102A6000FFF756FF636E0500DB07E2D4A3899B05E1
:102A7000DFD4A06DFEF71CFCDBE70000002370B57F
:102A8000064D040008002B6007F03EFB431C03D1F9
:102A90002B68002B00D0236070BDC046E0040020EE
:102AA000002310B59A4200D110BDCC5CC454013350
:102AB000F8E700007FB514001A00094B05001B68F9
:102AC0000E00D868074B002C01D1074B1C000749AA
:102AD000019302942B00009600F056F800F064F881
:102AE000CC000020DAA5000805A70008E7A500082B
:102AF00070B50B0C150C002B1ED1002D0CD189B21A
:102B000094B24C432100FFF7C7FA051E1BD02200E8
:102B10000021FEF74DFB16E02B1C0C1C89B292B273
:102B20004A439BB2A1B25943140C0C19230C07D190
:102B3000240492B21443E5E7002D01D1141CEDE703
:102B40000C2300250360280070BD82B0002900D14D
:102B500001A9101E06D0002B06D013780B60107848
:102B6000431E984102B0704702204042FAE703003A
:102B7000081E05D0FF2A04D98A2201201A6040428B
:102B8000704701200A70FBE70EB417B5054C05AB82
:102B900004CB01002068019300F034F81EBC08BC8F
:102BA00003B01847CC000020062010B500F022FA30
:102BB000012007F0B7FA936810B5013B9360002B32
:102BC00004DA9469A34207DB0A2905D01368581C6C
:102BD00010601970080010BD00F034F90100F9E729
:102BE000F8B506000F001400D518AC4201D1002042
:102BF00007E021783A003000FFF7DDFF0134431C85
:102C0000F3D1F8BDF0B59FB00D0016001C00029086
:102C1000002804D0036A002B01D1FEF749FA6B6E3D
:102C2000DB0705D4AB899B0502D4A86DFEF73FFBFB
:102C3000AB891B0702D52B69002B13D12900029801
:102C400000F042F900280DD06B6EDB0703D50120A0
:102C500040421FB0F0BDAB899B05F8D4A86DFEF7CC
:102C600027FBF4E70023292102AA52180B932033F3
:102C70001370013102AA10335218137005943400F6
:102C80002378002B01D0252B48D1A71BB4420BD0B1
:102C90003B00320029000298FFF7A2FF013000D16B
:102CA000AEE00B9BDB190B932378002B00D1A7E040
:102CB0000122532100235242079202AA5218661C95
:102CC00006930993089313701C93594F317805228A
:102CD0003800FEF7EEFA741C069906AB00281FD1E7
:102CE000CA0604D55327202202A8C01902700A0779
:102CF00004D553272B2202A8C019027032782A2A41
:102D000015D0340000200A27DA682178661C303993
:102D1000092950D9002811D009920FE00134AFE7FA
:102D20000123C01B83400B4326000693CDE7059A81
:102D3000101D12680590002A37DBDA6022782E2AEF
:102D40000CD162782A2A3BD1059A0234111D1268EF
:102D50000591002A01DA012252425A60354E0322BF
:102D600030002178FEF7A5FA06AF002806D04023F0
:102D7000801B8340069A0134134306932178062270
:102D80002D48661C3976FEF794FA002847D02B4B65
:102D9000002B29D10722059B073393430833059362
:102DA0000B9B03995B180B9369E75242DA6002228E
:102DB0000A430692C2E77A43340001205218A4E77E
:102DC00000220A205A601100130001342278661C88
:102DD000303A092A03D9002BC0D00791BEE74143FE
:102DE000340001238918F1E705AA009239002A006E
:102DF000134B0298FDF722FD0390039B0133CFD1C3
:102E00006B6EDB0705D4AB899B0502D4A86DFEF77A
:102E10004FFAAB895B0600D519E70B9819E705AAAD
:102E2000009239002A00064B0298FDF7A5FFE3E760
:102E300016A600081CA6000820A600083D080008E9
:102E4000E12B0008F8B506000D001400002804D09E
:102E5000036A002B01D1FEF72BF9A369A360A389B4
:102E60001B0702D52369002B09D12100300000F097
:102E70002BF8002803D001256D422800F8BD2369F6
:102E80002068EFB2C01A6369EDB2834205DC21000D
:102E90003000FFF7C7FD0028EDD1A3680130013BEA
:102EA000A36023685A1C22601F706369834204D0A8
:102EB000A389DB07E1D50A2DDFD121003000FFF720
:102EC000B1FD0028D9D0D6E72B4B70B505001868A6
:102ED0000C00002804D0036A002B01D1FEF7E8F8AB
:102EE0000C22A35E1A0722D4DA0607D409222A602C
:102EF000373201201343A381404270BD5A0713D5D6
:102F0000616B002908D023004433994202D0280085
:102F1000FFF74CF8002363632422A3899343002224
:102F2000626022691BB2226008221343A3812269D6
:102F3000002A07D19A0501D51B0603D521002800D8
:102F400000F0D2F80C23E25E012113000B400A428C
:102F50000CD00023A36063695B42A3610020236956
:102F60008342CAD11306C8D54023C2E7910700D4D3
:102F70006369A360F2E7C046CC00002010B5884228
:102F800002D98B18984208D300239A4207D0CC5C10
:102F9000C4540133F9E78B5C8354013AFBD210BD72
:102FA00070B504000D001F2904D916230360012009
:102FB000404270BDC36B002B04D08A009B181A6876
:102FC000002A08D1200000F031F82A00010020007A
:102FD00000F01AF8EDE7012A09D0511C03D116239D
:102FE00003600120E5E700212800196090470020D8
:102FF000DFE7000010B5034B01001868FFF7D0FFB2
:1030000010BDC046CC000020002370B5064D040062
:10301000080011002B6001F0A2F9431C03D12B68BA
:10302000002B00D0236070BDE004002010B501F03B
:103030008EF910BDF7B506000C001500002905D16A
:103040001100FFF729F804002000FEBD002A03D17B
:10305000FEF7ACFF2C00F7E700F0A4F8070085426C
:1030600002D84308AB42EFD329003000FFF714F831
:103070000190002801D1019CE6E72A00BD4200D959
:103080003A0021000198FFF70BFD21003000FEF708
:103090008DFFF0E7F0B50E001D000E23C95E140091
:1030A00097B000290CDAB2898023110019401A4226
:1030B00014D18023DB0000202960236017B0F0BD0D
:1030C0006A4600F04BF80028EDDBF02301991B0263
:1030D0001940044BC9184B425941EAE700214023EB
:1030E000E9E7C04600E0FFFFF7B502268B8905003F
:1030F0000C00334206D023004733236023610123B1
:103100006361F7BD6A4601ABFFF7C4FF009F28006B
:103110003900FEF7C1FF0C22A35E002806D19A05F4
:10312000EFD4032293431E43A681E4E78022134396
:10313000A381019B206020616761002BE1D0280002
:103140000E23E15E00F01CF80028DAD00323A289E8
:103150009A43023B1343A381D3E70000002370B5D9
:10316000064D0400080011002B6001F0E3F8431C39
:1031700003D12B68002B00D0236070BDE004002039
:10318000002370B5064D040008002B6001F0B4F870
:10319000431C03D12B68002B00D0236070BDC046B8
:1031A000E00400200B1F1B68181F002B01DA0B58CE
:1031B000C018704701210A4B82B01A6C0A431A6486
:1031C0001A6C0A4080210092009ADA6B49050A4382
:1031D000DA63DB6B0B400193019B02B07047C04682
:1031E0000010024007B58021084B09011A6C0D2020
:1031F0000A431A6400221B6C0B4001931100019BCF
:1032000000F074FA0D2000F09BFA07BD0010024098
:103210007047FEE77047704710B500F03DF810BDED
:1032200010B5024800F08DFD10BDC046200A0020F8
:10323000104B70B519680500002901D1012070BD3F
:10324000FA208000FCF758FF0B4C01002068FCF7C7
:1032500053FF00F081FA041EF0D1032DEED80200D6
:1032600001202900404200F041FA044B20001D607B
:10327000E5E7C04688020020900200208C02002072
:1032800010B50320FFF7D4FF041E03D1FFF792FF10
:10329000200010BD0124FBE7034A044913680968B4
:1032A0005B1813607047C046F004002088020020BD
:1032B000014B18687047C046F004002070B5074DF8
:1032C00004002B680020A34206D0054B1868FFF7C6
:1032D000AFFF002800D12C6070BDC04688020020DE
:1032E0008C020020002213B5030001920268012025
:1032F0009168014201D0002016BD94680D490C422E
:1033000007D01022996B0A439A63DA6B0243DA639F
:10331000F2E7936808491843084B90601868FCF777
:10332000EBFE0190019B002BE5D0019B013B01933B
:10333000F8E7C0461500008040420F0090020020D0
:103340007047000070B5041E00D17FE0836B002B36
:1033500005D102003432C3631370FFF7F1FFA36B92
:10336000DB0600D574E0226893685B0700D56FE048
:10337000A16B3A4B19400633FF330B43A3639368A9
:10338000DB070BD41821D3688B43A1680B43D360B0
:10339000136961681B011B090B431361D368304932
:1033A0000B40D360617E237E48039B030343E068A8
:1033B0000343601DC07F40000343A06A0138451EDF
:1033C000A841000303432069023845426841800058
:1033D0000343A07E012804D1002925D18021490280
:1033E0000B43C220E169FF30814202D0206A0143D1
:1033F0000B43D1681943D160E16A072906D8072534
:103400005069A8435061506901435161D268154920
:103410000A409A4210D100200323E063A26B9A4332
:10342000023B1343A36370BD2021A56B2943A16315
:10343000E16B0843E063D4E71223A26B9A43023B9B
:103440001343A3630123E26B1343E3630120EAE721
:103450001023A26B1343A363F8E7C046FDFEFFFFF2
:1034600019C2FEFFE7FF3FC3F8B504260568040054
:10347000AB680220334219D1270034373B78012B47
:1034800014D0012320003B70FFF72CFF00280DD142
:10349000A26B074B1A4080235B001343A3631C23DA
:1034A000E06338702B60AB681E43AE60F8BDC04669
:1034B000FEF0FFFFF8B5466904000D00082E0DD0A0
:1034C00003680120DB680C26034207D02023A26B8F
:1034D00034341343636000232370F8BDFFF7E8FE24
:1034E000070023681A68164222D08022A16B92003E
:1034F0000A43A263C022D9681201114213D1627E2D
:10350000002A10D11A6812070DD59A68520722D4E2
:103510000C215A688A435A60A16B154A1140043243
:10352000FF320A43A263227E002A1DD00020D4E786
:103530006A1CD7D0002D08D10423A26B3434134366
:103540006360002303202370C7E7FFF7B1FEC01BB1
:10355000A842C6D9F0E72022A16B0A43A263012248
:10356000E16B0A43E263DEE70C221A60DEE7C04645
:10357000FEFEFFFF0368186C70470000F7B50023DC
:10358000040001933434237806000220012B26D056
:10359000013820703568AB685B074ED40A684F6805
:1035A0001300BC46274F90400B3BBC4536D0AF6A5A
:1035B0003843A862F06A07280CD907206E69896829
:1035C0000640B14206D06E69014086436E616E6965
:1035D00031436961012B03D9002000232370FEBD14
:1035E00013000B3B5D1EAB41802517495B429B0DD1
:1035F00008689B052D045B1903430B600B2AEBD174
:10360000124B13491868FCF777FD0A2343430193D3
:10361000019B002BE0D0019B013BF8E7AA6A8243A3
:10362000AA62012BD8D8581E8341074A094811685D
:103630009B051B180B401360CEE72023B26B13438E
:10364000B363CAE701100000082701409002002080
:1036500040420F00FFFF7FFFF8B5050034352B789F
:1036600004000220012B38D00138287023689A68A2
:10367000024233D1A16B1C4A11400632FF320A4389
:103680000321A263DE68DA688A43DA6080229968DF
:1036900012060A439A60FFF70BFE070023689A6838
:1036A000002A0CDB0321DA680E40164302220020B8
:1036B000DE60A36B9343A36300232B700DE0FFF741
:1036C000F7FDC01B0228E9D91223A26B01209A43FF
:1036D000023B1343A36300232B70F8BD2023A26B8E
:1036E0001343A363E8E7C046FDFEFFFF10B5FF24C8
:1036F00003220B0021000240D20091409B01234095
:10370000C943934000280ADBC0240B4A800880008C
:103710008018A40002590A401343035110BD0F2220
:1037200010400838054A800880008018C26911409E
:103730001943C161F2E7C04600E100E000ED00E09E
:10374000002805DB1F2318401E3B8340014A1360FD
:103750007047C04600E100E08022431E5204012071
:1037600093420DD2C021074A07485360036A0906F5
:103770001B021B0A0B4303620020072390601360A7
:103780007047C04610E000E000ED00E00F2303604A
:103790000C4B1F21DA6AD24392B242605A6A0A4045
:1037A00082605A6A120A0A40C2601A6AD2B2AA2A0F
:1037B00000D055220261FF22120242611B6A1340AF
:1037C0008361704700200240494AF0B58218541EB8
:1037D000A241002385B0013201910392019A12683F
:1037E0001400DC4001D105B0F0BD01249C40A4468A
:1037F0006146144000940A4277D0019A102452681E
:103800001500A5430295022D0ED107250F261D4058
:10381000AD00AE40DC08A4000419276A0199B74343
:103820000E69AE403E432662032426005D00AE4092
:103830001440AC400168F743B1430C430460029C60
:10384000013C012C0DD801998668CC683E40AC4003
:1038500034438460614614099C4046688E43344377
:1038600044600199C6688C683E40AC403443C460F3
:10387000D4003AD503260F241E40F600B4401D495B
:103880009D08AD006D182F6EA743A024E405041B0E
:10389000611E8C41039964420C40B44000993C4342
:1038A0000E002C66144CCD43E76F3E43D10301D488
:1038B0003E002E40E667114E009FF46F27439103B0
:1038C00001D42C4027000B4CF7672768009E3E432D
:1038D000D10201D43E002E4026606668009F374327
:1038E000920201D42E4037006760013376E7C0466C
:1038F00000FCFFAF00180240041802400818024004
:10390000002A01D0816170478162FCE74369194256
:1039100001D0816270478161FCE7000030B587B05B
:1039200001A90A00134B31CB31C211CB11C2124B8A
:1039300038229C682000104014420ED107241A68D7
:103940005B68D20A5B0B22402340042B00D818008E
:1039500080000858D04007B030BD99681140082950
:1039600006D098681040183843425841C003F2E727
:103970000248F0E7A0A400080010024000366E01E3
:10398000F8B5051E01D10120F8BD0368DB0708D496
:103990002B689B0758D42B681B0700D5C5E0002077
:1039A000F2E738227B4CA3681340082B06D123682A
:1039B0009B03EDD54368002BEAD1E4E74368002B75
:1039C0002AD081680029DED00C20226982430A4374
:1039D000226180225202934211D122681343236054
:1039E000FFF766FC80270600BF0223683B42CFD169
:1039F000FFF75EFC801BC828F7D90320C4E7A0218D
:103A0000C9028B4208D180232168DB020B4323606B
:103A100023681A432260E3E722685F490A40226074
:103A200022685E490A402260002BD9D1FFF740FC92
:103A300080270600BF0223683B42A9D0FFF738FC6D
:103A4000801BC828F7D9D8E73823524CA2681A42FD
:103A500035D123685B0503D5EB68002B00D192E7D5
:103A600063686A691B0C1B0413436360FFF720FC47
:103A700080270600FF0023683B421AD02368484A8B
:103A800013402A6913432360FFF748FFA3684549A1
:103A90001B051B0F9B005B581F210B40D840424A5F
:103AA000424B10601868FFF7C3FB002800D172E793
:103AB00069E7FFF7FDFB801B0228DCD99DE7EB6877
:103AC000002B1FD02368364A802713402A69FF0045
:103AD00013432360802322685B0013432360FFF7B6
:103AE000E7FB060023683B4206D063686A691B0C4B
:103AF0001B04134363604EE7FFF7DAFB801B0228C9
:103B0000F0D97AE723682A4A802713402360FFF719
:103B1000CFFB0600FF0023683B4200D13BE7FFF7E5
:103B2000C7FB801B0228F6D967E73822194CA36827
:103B30001340182B08D1236E9B0700D42FE7A869E8
:103B400043425841C0B21FE7AA690123002A10D09E
:103B5000226E022613432366FFF7AAFB0500236E9D
:103B6000334200D01BE7FFF7A3FB401B0228F6D926
:103B700043E7226E02269A432266FFF799FB05006F
:103B8000236E334200D10AE7FFF792FB401B022865
:103B9000F6D932E700100240FFFFFEFFFFFFFBFFF8
:103BA000FFC7FFFF9CAA0008900200208C020020A3
:103BB000FFFEFFFFF7B504000E00002801D1012031
:103BC000FEBD0127434D2B683B408B4228D3226822
:103BD000930739D4D20746D401272B683B40B34220
:103BE00008D92B68BB432B60FFF762FB06002B68EC
:103BF0003B4260D12368384D5B0763D4FFF78EFEEC
:103C0000AB6836491B051B0F9B005B581F210B40FF
:103C1000D840334A334B10601868FFF709FBCFE7F1
:103C20002B68BB430B432B60FFF742FB01902B68D3
:103C30003B40B342CBD0FFF73BFB019BC01A2A4B62
:103C40009842F4D90320BBE72349530704D5E02366
:103C50008868DB0103438B608B6824480340A068BD
:103C600003438B60B6E762681B4F012A19D13B689A
:103C70009B03A4D50721BB688B431343BB60FFF7AD
:103C800017FB01903823BA681A406368DB009A4238
:103C9000A2D0FFF70DFB019BC01A134B9842F1D93C
:103CA000D0E7002A03D13B685B05E3D487E73B6E8E
:103CB0009B07DFD483E7FFF7FBFA0B4B801B98428F
:103CC00095D9BFE7AB680A4A1340E2681343AB607B
:103CD00094E7C04600200240001002409CAA000861
:103CE000900200208C02002088130000FFF0FFFFEC
:103CF000FF8FFFFF064B07499B68074A5B045B0F7A
:103D00009B005B581F2110680B40D8407047C0468D
:103D1000001002407CAA00089002002001220368E3
:103D20000720D9681143D96099680140062902D05B
:103D300019680A431A60002070477047704770473F
:103D400070470222036810B51969040011420ED0B1
:103D5000D96811420BD0053A1A61043202779B6987
:103D60009B0700D179E0FFF7E9FF002323770422C6
:103D700023681969114210D0D96811420DD0093A4F
:103D80001A61073222779A69C0239B0020001A42E9
:103D900069D0FFF7D3FF002323770822236819692E
:103DA00011420ED0D96811420BD0113A1A610D326E
:103DB0002277DB6920009B075BD0FFF7BFFF002362
:103DC0002377102223681969114210D0D968114253
:103DD0000DD0213A1A6119322277DA69C0239B008B
:103DE00020001A424BD0FFF7A9FF002323770122BE
:103DF00023681969114207D0D968114204D0033AE7
:103E000020001A6101F00EFF802223681969114217
:103E100008D0D968114205D0023AFF3A20001A6151
:103E200000F08EF8402223681969114207D0D96842
:103E3000114204D0813A20001A61FFF781FF20224D
:103E400023681969114207D0D968114204D0413A58
:103E500020001A6100F073F810BDFFF76EFF20001C
:103E6000FFF76DFF81E7FFF768FF2000FFF767FFAF
:103E700091E7FFF762FF2000FFF761FF9FE7FFF781
:103E80005CFF2000FFF75BFFAFE7000010B5184CA8
:103E90000368A0420AD0174A904207D0164A9042BF
:103EA00009D1164A1A40CB6813430AE070229343A3
:103EB0004A681343F5E7124A9042F2D0114A904201
:103EC000EFD0802293434A69134303608B68C36237
:103ED0000B688362A04205D0094B984202D0094B7F
:103EE000984201D10B6903630123436110BDC046B1
:103EF000002C01400004004000200040FFFCFFFFB8
:103F0000004401400048014070B504000120002C2D
:103F100014D025003D352B78DAB2002B05D12300D3
:103F20003C3320001A70FFF75DF902232B702068E4
:103F3000211DFFF7ABFF012300202B7070BD7047E0
:103F40007047000070B5040003682E491A691925EE
:103F50000A40C1680A431A6182680069D96802434D
:103F600060690243284801400A43DA605A692748D9
:103F7000E16902400A435A615A6925480240A06932
:103F800002435A6180231B01994220D1FFF7B2FE00
:103F9000616868434900FCF7AFF864210600FCF74C
:103FA00031F9C80032306421FCF7A6F8642105001D
:103FB0003000FCF7A1F8072300012B40C018F823BC
:103FC0006D005B0024681D404519A56070BDFFF7BA
:103FD00091FE616868438900FCF78EF86421050052
:103FE000FCF710F9080132306421FCF785F82668E7
:103FF000642104002800FCF77FF800012418B46055
:10400000E4E7C046FFDFFFFFF3E9FFFFFFF7FFFF35
:10401000FFFCFFFFF8B504000E0017001D0022682A
:10402000136833409E4201D1002016E06B1CF7D08C
:10403000002D13D123680C49DA6803200A40DA60A6
:104040005A69A331FF318A435A6122002023453245
:1040500013705370002344342370F8BDFFF728F920
:10406000C01B8542DBD2E5E75FFEFFFF7047000023
:1040700070B504000120002C3ED0250045352B787A
:10408000DAB2002B05D12300443320001A70FFF769
:10409000EDFF24232B7022681849D36820000B40C1
:1040A000D360FFF74FFF226A2368002A11D052061F
:1040B0000FD55A691248616A02400A435A61802248
:1040C0005201914205D15A690E490A40A16A0A4338
:1040D0005A611A690C4900200A4008211A615A697C
:1040E0008A435A618022D96892010A43DA60202308
:1040F000A06446342B70237070BDC046FFDFFFFF05
:10410000FFEFFFFFFF9FFFFFFFF7FFFFF0B585B059
:1041100003930300453301931B7804000D0017003F
:104120000220202B44D10138002941D0002A3FD061
:104130008023A2685B019A4204D12369002B01D13C
:10414000014235D1230044331A780220012A2FD0AE
:10415000012200261A702123019AA6641370FFF72A
:10416000A7F88023A2680290278667865B019A429F
:1041700004D12369B34201D12E001D00638E002BB0
:104180000DD140212000039B029AFFF743FF002836
:104190000DD12023019A44341370207008E080214F
:1041A0002000039B029AFFF735FF002802D003206E
:1041B00005B0F0BD2268002D09D133880236DB0539
:1041C000DB0D5360638E013B9BB26386D6E72B7891
:1041D00001355360F6E7F0B585B00393030046332D
:1041E00001931B7804000D0017000220202B33D10F
:1041F0000138002930D0002A2ED08023A2685B012C
:104200009A4204D12369002B01D1014224D1230019
:1042100044331A780220012A1ED0012200261A7087
:104220002223019AA6641370FFF742F88023A26844
:104230000290278767875B019A4204D12369B342C2
:1042400001D12E001D00638F98B2002B06D1019A78
:10425000203344341370207005B0F0BD20212000BD
:10426000039B029AFFF7D6FE00280FD123685B68F4
:10427000002D08D1DB05DB0D33800236638F013B57
:104280009BB26387DFE72B700135F7E70320E3E795
:10429000FA2307B59B0001900122034801A9FFF70B
:1042A00035FF01980EBDC046F4040020FA2307B57F
:1042B0009B000122024801A9FFF78DFF01980EBD66
:1042C000F404002070B50E0014000025A54201DBA7
:1042D000200070BD705DFFF7DBFF0135F6E770B5BC
:1042E0000E0014000025A54201DB200070BDFFF781
:1042F000DDFF70550135F6E7012310B5022804D91A
:1043000005F08CFD092303600023180010BD002375
:1043100010B5022804D905F081FD092303600A3B8A
:10432000180010BD10B505F079FD092303600120C8
:10433000404210BD10B5022804D880239B014B6079
:10434000002010BD05F06AFD09230360F8E710B5F1
:1043500005F064FD582303600120404210BD10B5F4
:1043600005F05CFD582303600120404210BD0000B1
:104370000C490D4A4B6812681B0C1B041343802226
:104380009201134310B54B600023084C08499A0072
:10439000105901335050302BF9D18022054B920532
:1043A0009A6010BD00100240040FFF1F00000008BB
:1043B0000000002000ED00E0F7B5184E184CF36A3D
:1043C000184D019000281AD0210028006360236056
:1043D000FFF7D4F8002802D0082000F09DFEB36B50
:1043E0006360210028002360FFF7C8F8002802D08E
:1043F000082000F091FE0C4B019A1A70F7BD0B4F8C
:104400002100280067602360FFF7B8F8002802D079
:10441000082000F081FEB36B6760E2E79C07002094
:1044200044050020500500208407002001100000F2
:104430008022444B73B5196B520311431963196BF6
:104440004148424C01401963196C20001143196422
:104450001B6C13400193019B3D4B2360FFF7FCF85D
:10446000002802D0082000F057FE0122B02322616C
:10447000A276C2221B06636000230421FF32E261A0
:10448000621DA360E36023832362D377A3622000CD
:1044900005336161E362FEF755FF002802D0082072
:1044A00000F03AFE2B4E2C4DB368290020006B60C3
:1044B0002B60FFF763F8002802D0082000F02CFEE4
:1044C0007369290020006B602B60FFF757F8002804
:1044D00002D0082000F020FE336A290020006B6023
:1044E0002B60FFF74BF8002802D0082000F014FEE4
:1044F0000120FFF761FF0B23290020006B602B6078
:10450000FFF73CF8002802D0082000F005FE0C233D
:10451000290020006B602B60FFF730F8002802D0E4
:10452000082000F0F9FD0D4B0D4C18680D4B1B6871
:10453000C01A02F0F7FB011C0B4801F021FE2060BD
:1045400073BDC04600100240FFFFEFFF5005002082
:10455000002401409C07002044050020180FFF1F85
:1045600040050020140FFF1F00005C4210B502F050
:10457000D9FB084B041C186802F0D4FB011C201C5A
:1045800002F01EF9044B196801F0C8FF034901F05D
:10459000E9FB10BD140FFF1F400500200000F04193
:1045A00070B504000848001B02F0BCFB074901F08D
:1045B000B5FF051C200002F0B5FB011C281C01F012
:1045C000DFFD01F0B7FB70BDFF0F00000050C347D7
:1045D00010B502F0A7FB134901F0D2FD05F0A4FDD0
:1045E000114901F0CDFD04F0EFFB104A104B02F031
:1045F000DFFB04F031FC011CFE20800501F0C0FD52
:1046000004F0E2FB0B4A0C4B03F0F6FE04F024FC32
:104610000A4901F083FF05F0B7FD084901F0B0FD3C
:1046200010BDC0460050C34700D0844583DBB5DCD5
:10463000E1796B3F66666666661271400000204154
:10464000F0B5824D85B02800FEF70EFFFA21280054
:104650008900FEF72FFF2800FEF78CFF7C4C2064BA
:104660002800FEF701FFFA2128008900FEF722FF4B
:104670002800FEF77FFF2300E06384331B78002BC4
:104680000BD02800FEF7F0FEFA2128008900FEF783
:1046900011FF2800FEF76EFFE0642800FEF7E4FE3D
:1046A000FA2128008900FEF705FF2800FEF762FFC7
:1046B0002300606484331B78002B0BD02800FEF7A6
:1046C000D3FEFA2128008900FEF7F4FE2800FEF749
:1046D00051FFA0642800FEF7C7FEFA2128008900D8
:1046E000FEF7E8FE2800FEF745FF594C206528003C
:1046F000FEF7BAFEFA2128008900FEF7DBFE28004B
:10470000FEF738FF606502F00DFB011C8B20C00531
:1047100001F036FD04F058FB4E4A4F4B03F0A4FB6A
:1047200004F09AFB051C6067206DFFF71FFFE36B29
:10473000A0621800009302F0F5FAE621890501F065
:10474000EDFE291C01F0EAFE236C0290A065180022
:10475000019302F0E7FAE621890501F0DFFE291C4A
:1047600001F0DCFEE065071C606C02F0DBFAE6217C
:10477000890501F0D3FE291C01F0D0FE230003902F
:10478000206684331B78002B56D0A06C02F0CAFA46
:10479000E621890501F0C2FE291C01F0BFFE60661A
:1047A000061CE06C02F0BEFAE621890501F0B6FEB7
:1047B000291C01F0B3FEA066254C284B1E60230087
:1047C0008C331860029B00982361FFF7E9FE60615B
:1047D000FFF7FEFE051CA0610198E761FFF7E0FE10
:1047E0002062FFF7F5FE1E496062061C039801F087
:1047F00095FEE16FA067281CFBF758FE002800D04B
:10480000E567271DF96F301CFBF750FE002800D02C
:10481000FE671449281CFBF753FE00280FD0062022
:1048200000F07AFC2300E27898331A702300227992
:1048300099331A7005B0F0BD0B4E301CBCE7094926
:10484000301CFBF73DFE0028ECD0E8E750050020C7
:1048500000070020333333333333F33F880700201E
:10486000000030410000DC42000080BF0122014B0B
:104870009A707047F90600200122014B1A707047A8
:10488000F90600200122014B5A707047F9060020FA
:104890000122014B5A717047F90600200122014B99
:1048A0001A717047F9060020F8B5464C464D2300B2
:1048B000583319882B78606D002B60D0434BDB7820
:1048C000002B5CD02A0026002832127860369A42EB
:1048D00013D2AA78002A0BD00122FFF711F8002288
:1048E0003188E06DFFF70CF8AB880133AB800CE04A
:1048F000FFF706F801223188F3E70022FFF700F8FE
:1049000000223188E06DFEF7FBFF2B0028331B7877
:104910000133DBB2F92B00D900232A0028321370AF
:1049200023002B4E683319883378606E002B41D0FA
:10493000264B1F79002F3DD0330028331A78FA23F5
:10494000DB1B270070379A422ADDAA78002A22D082
:104950000122FEF7D5FF00223988E06EFEF7D0FF76
:10496000B38801339BB2B380330028331B78013303
:10497000DBB2F92B00D9002328363370F8BD0022B2
:10498000FEF7BEFF2300603319880022E06DFEF7BA
:10499000B7FF0023AAE7FEF7B3FF01223988DCE75F
:1049A0000022FEF7ADFF39880022E06EFEF7A8FF77
:1049B0000023D8E70022FEF7A3FF230070331988F5
:1049C000F2E7C0469C070020C00500200007002039
:1049D0009005002010B50A4B0A4AD86B0233D98FD4
:1049E000094B1B78053B022B03D80122FEF788FFF9
:1049F00004E01278002AF9D0FEF788FF10BDC04607
:104A00009C070020000700202C07002013B50B484E
:104A10000B4C00780B4B0C4A1B7812780B4900901A
:104A2000200005F0D9F92000FBF74AFBFA2382B2F7
:104A300021009B000648FFF769FB13BD0D0EFF1F09
:104A4000F00500200E0EFF1F0F0EFF1F27A6000807
:104A50004008002010B588B001AC2000FEF796FE9B
:104A60000F4805F0AFF905990E4805F045F90E48D5
:104A700005F042F90D4805F0A5F907990C4805F035
:104A80003BF9079B0B49DB0400D50B490B4805F0AC
:104A900033F90B490B4805F02FF908B010BDC0469B
:104AA0004CA600085BA6000874A6000885A60008AE
:104AB0008EA6000843A600083AA60008A7A600088C
:104AC000B5A60008BDA6000884B030B50E4B85B071
:104AD00009919B78040009AD0998002B03D080212F
:104AE000C90501F03FF9094B011C0293FA23019318
:104AF0006B69200000932B69EA6800F027FF05B07E
:104B000030BC08BC04B018470007002000007A43FE
:104B10000022F0B5294C85B0211DCA67E26722004A
:104B2000002326000125903213602549254A2C36A2
:104B300063633370A363E37023718B709370A36915
:104B40001570A360636A204AE360204B65700D70A6
:104B50001188586C2A00FEF7D3FE257030780028A3
:104B60001BD1052369461A4A3370D0CAD0C1194BEC
:104B700018330ECBFFF7A8FF6946174A174B51CAE7
:104B800051C1183328000ECBFFF79EFF0020144BB5
:104B9000185600F0F9FF05B0F0BD124C1249200084
:104BA00005F042F92000FBF78BFAFA2382B22100CC
:104BB0009B000E48FFF7AAFAE8E7C046000700206E
:104BC000C005002090050020E40700209C0700207D
:104BD000300300200C030020B802002094020020C3
:104BE000F6060020F0050020D2A6000840080020AC
:104BF0000023164A0020110010B51370D3701371F2
:104C0000134A2C311370134A0B701370124B185641
:104C100000F0E2FF0020114B185600F0DDFF0020ED
:104C2000FA210F4B8900185600F0E8FF0D4C0E4991
:104C3000200005F0F9F82000FBF742FAFA2382B2CF
:104C400021009B000948FFF761FA10BD0007002012
:104C5000C005002090050020F2060020F506002087
:104C6000F7060020F0050020F6A600084008002006
:104C7000002200210F4B5A709A70DA705A719A71A3
:104C80001A700D4B181D9960D9609961596299622B
:104C900059679967D967C16719009A631A701A63CF
:104CA0009A855A801A715A63903198330A601A8033
:104CB0007047C046F906002000070020F8B5294ECD
:104CC000294D3378002B12D080235B00274C338092
:104CD000274B606D00221988FEF712FEEA78E06D1E
:104CE00060342188002A00D00122FEF709FE214FFE
:104CF0003B78002B10D080235B001C4C3B801E4B6C
:104D000000221988606EFEF7FBFD2300703300223D
:104D10001988E06EFEF7F4FDFFF792FC7378002B24
:104D200001D0012333807B78002B01D001233B800D
:104D30002B002C331B78032B12D12C0090342368CA
:104D4000002B0DD10D49686AFBF7BAFB002807D08C
:104D5000FA21686B8900FBF7CFF9094BC018206076
:104D6000F8BDC046C0050020000700209C070020B9
:104D7000F407002090050020040800200000BE4237
:104D80007CFCFFFFF0B5234C95B0636B224E139370
:104D9000224B234D186801F055FF1090706E01F002
:104DA00051FF23000F902C331B781E4F0E93A06FE2
:104DB00004F00AF823000C900D9199331B780A93A4
:104DC000306F04F001F808900991606A03F0FCFF6D
:104DD00023000690079198331B780493706A03F0C0
:104DE000F3FF02900391A06903F0EEFF139A009085
:104DF00001913900280004F0EFFF2800FBF760F96B
:104E0000FA2382B229009B000748FFF77FF915B00B
:104E1000F0BDC046000700208C08002020090020BB
:104E2000F005002006A7000840080020F0B5124C4D
:104E300085B0E06F03F0C8FF230090331B68043493
:104E400002930600E06F0F0003F0BEFF0B4D0C4C09
:104E500032003B00009001912900200004F0BCFFCB
:104E60002000FBF72DF9FA2382B221009B000548B0
:104E7000FFF74CF905B0F0BD0007002041A700087E
:104E8000F005002040080020F0B50127802202260E
:104E90002025814C8BB0636B92023B436363636B51
:104EA000A0203B400093009BE36B7C491343E363EA
:104EB000E36BC00513400193019B636B3343636352
:104EC000636B33400293029B636B2B436363636B9F
:104ED0004E602B400393039B03230B60CB60063390
:104EE0008F600B61FEF770FC8022236C520313432A
:104EF0002364236C6A4C134008222282053A6261C3
:104F0000033222627A3294462285793AE262102292
:104F1000A021A286634A4020D587634A0493049B5C
:104F2000626404236265E2656246C9052160E1604E
:104F3000A16161622163E1635C49A3800D805C49EA
:104F4000A36308805B49A660A0830A805A495B4A34
:104F50000F805B49A0200E80210000256266E2667A
:104F600062670322574E78310B80C00531003360F1
:104F70007260B560FEF728FC0322238A3100E068E6
:104F800033607260B560FEF71FFC0322A38B310013
:104F9000A06972603360B560FEF716FC4149E06BB2
:104FA000CB8F05A905930223069708930797FEF771
:104FB0000BFC0322238D3100606A33607260B560A0
:104FC000FEF702FC0322A38E310033607260B560ED
:104FD0000226206BFEF7F8FB344A606C138805A9A3
:104FE0000593089606970797FEF7EEFB304B606D2A
:104FF0001B8805A90593079606970895FEF7E4FB1D
:105000002C4BE06D1B8805A905930796069708951C
:10501000FEF7DAFB284B606E1B8805A905930796FF
:1050200006970895FEF7D0FB254BE06E1B8805A977
:105030000593079606970895FEF7C6FB224B234E6D
:105040001F70234BB5701F70224B606D1A00283201
:105050001570214A1D809D809D70154B57701988D1
:105060002A00FEF74DFC134B2A001988E06DFEF76D
:1050700047FC3580B580104B283635702A001988DA
:10508000606EFEF73DFC0E4B2A001988E06EFEF7BD
:1050900037FC0BB0F0BDC046001002402C080020C9
:1050A0009C0700209E07002000040050E407002019
:1050B000F4070020FC070020040800200014005022
:1050C0000C08002018080020F106002090050020A0
:1050D000F0060020C0050020000700200A4B70B534
:1050E000586F03F071FE094A094B04000D00FBF7ED
:1050F000ADF9002807D0074B20002900034AFBF731
:1051000091F9431E984170BD00070020CDCCCCCC56
:10511000CCCCFC3FCCCC0C40F8B5060072B62A4C87
:105120002A4B00221988606DFEF7EAFB23006033EA
:1051300019880022E06DFEF7E3FB2300683319882D
:105140000022606EFEF7DCFB23007033198800221A
:10515000E06EFEF7D5FB1E4D32001E49280004F01C
:105160003BFE2800FAF7ACFFFA23290082B29B002D
:105170001948A51CFEF7CAFF0122E98FE06BFEF774
:10518000BFFB2300002248331988606CFEF7B8FB90
:105190000022E98FE06BFEF7B3FB0122E98FE06BA1
:1051A000FEF7AEFB0027E98FBE4202DC0122E06B76
:1051B000ECE70022E06BFEF7A3FB0122E98FE06B36
:1051C000FEF79EFB0137EEE79C070020F407002066
:1051D000F005002073A7000840080020F0B56C4BD4
:1051E00087B004936B4C1B78A569052B54D1281C00
:1051F00003F0EAFD0600A0680F0003F0E5FD0022C1
:10520000654B01F0D5FD02000B0030003900FBF7C3
:105210001DF9002838D0636A181C059303F0D4FDEB
:105220000600E0680F0003F0CFFD00225A4B01F0AA
:10523000BFFD02000B0030003900FBF707F9002822
:1052400022D00623049AA56013700122059BE36017
:10525000524B9A70524B9A704E4C0020A16900F04C
:10526000ABFB0120616A00F0A7FB6378002B00D143
:1052700083E0A2235720E37000224A4B20711A706A
:10528000494B1A7007B0F0BD424B5A6B474B032095
:105290009A42E1D9FFF740FF062B35D1A368281CBD
:1052A000059303F091FD060005980F0003F08CFDB7
:1052B0000022394B01F07CFD02000B003000390068
:1052C000FBF7C4F800281BD0606A03F07DFDE56899
:1052D0000600281C0F0003F077FD00222E4B01F082
:1052E00067FD02000B0030003900FBF7AFF8002823
:1052F00006D00723049A65621370059BA361ABE790
:10530000244B5A6B2A4BC2E7072BA5D12949281CED
:10531000FBF7D6F8002829D02649606AFBF7D0F8B9
:10532000002823D0012200206946049B60701A7077
:105330001A4B214A98701A4B9870D0CAD0C11F4B93
:105340006C4618330ECBFFF7BFFB1821049B1C4A99
:105350001B785943501803000C33E0CBE0C4895844
:10536000836842680120FFF7AFFB75E7626B154B5E
:105370009A4200D870E701208CE7134D286A00F0AC
:10538000D9FCE070E86E00F0D5FCC0B274E7C0460E
:105390002C0700200007002000001040C00500205E
:1053A00090050020E8050020B8050020E02E000050
:1053B000C05D00000000F041300300200C0300201D
:1053C00094020020F04902008C0800200A480B4B90
:1053D00010B50360E1235B02436000238360C36078
:1053E000036183610C334361FEF742FE002802D063
:1053F0000820FFF791FE10BD400800200044004047
:10540000F0B589B0FDF73CFF00F03EFCFFF73CFD36
:1054100000F068FBFFF7DAFFFFF70AF8FFF728FC58
:10542000434C444B444A4549200004F0D5FC20003D
:10543000FAF746FEFA2382B221009B004048FEF7AD
:1054400065FEFFF7E3FA01213E4800F085FBFA21F3
:105450003D4B490018703D4800F07EFBFA213C4F5F
:10546000490038703B4800F077FBFA213A4B49007D
:1054700018703A48059300F06FFB394B39491870A2
:10548000394800F069FB394E39493070394800F02D
:1054900063FBFA210122384B49001870374B38481A
:1054A0009A7100F059FB374B374A1870374B9446C6
:1054B0000693197818234B431800604407930300A0
:1054C0006C460C3326CB26C46346079A6C46D158EB
:1054D000426883680020FFF7F7FA069B2C4A197888
:1054E00018234B43944618006044069303000C3382
:1054F00026CB26C46346069AD158426883680120A9
:10550000FFF7E2FA0020385600F03EFB002030564C
:1055100000F03AFB0020059B185600F035FB1D4BB0
:105520001D4A586C11880022FEF7EAF909B0F0BD57
:10553000F00500209BA70008A4A70008ACA700085E
:1055400040080020A9480008F8060020D5490008B6
:10555000F706002085480008F40600206D48000882
:10556000F606002060EA000079480008F5060020F1
:105570008813000091480008F3060020F906002077
:105580009D480008F20600200C0300202C07002094
:10559000940200209C070020E4070020F0B5D54BC2
:1055A00089B01B6E0493FFF72BFFFFF753FAFFF749
:1055B00047F8D14CA06F03F007FC0600606F0F00A6
:1055C00003F002FCCD4D32003B0000900191CC492C
:1055D000280004F001FC2800FAF772FDFA23C94EF6
:1055E00082B229009B003000FEF790FD23008C332F
:1055F000186803F0E9FB23000290039188331868D0
:1056000003F0E2FBC04F00900191049A390028009A
:1056100004F0E2FB2800FAF753FDFA2382B29B0064
:1056200029003000FEF772FDA06903F0CDFB049065
:105630000591606A03F0C8FB049A059BB34F009084
:1056400001913900280004F0C7FB2800FAF738FD63
:10565000FA2382B29B0029003000FEF757FDA369B0
:10566000A360636AE360FFF739FD002802D10730C9
:10567000FFF752FD0020FEF79FFEA549A069FAF74B
:105680000BFF002801D00123A370A24DAB79002BA2
:1056900006D00023AB712378002B22D0FFF7A8FAA5
:1056A0006B79002B46D0002300206B719A4B185663
:1056B00000F092FAA06903F087FB0600A0680F00D3
:1056C00003F082FB80230022DB0501F071FB020066
:1056D0000B0030003900FAF7AFFE00280ED003208F
:1056E000C6E700206363A3638B4B185600F04CFAA7
:1056F00000208A4B185600F047FAD1E7606A03F0A1
:1057000063FB0600E0680F0003F05EFB80230022CD
:10571000DB0501F04DFB02000B0030003900FAF709
:105720008BFE0028DBD1FFF7F3F900207C4B1856E5
:1057300000F02AFA2B78002B00D1B1E000272F705F
:10574000A36B0133A363A36B0E2B00D8C6E0A36B3E
:10575000132B6ED926002C3604963378042B28D0D0
:1057600004236A4633706F4B07936F4B43CB43C29E
:10577000079B380060330ECBFFF7A6F9049A6B4BFA
:10578000117818224A43944607926A460493634468
:105790009C460C3343CB43C2049B079A0120D1584B
:1057A00063465A689B68FFF78FF9614B1F70614B26
:1057B0001F70A36B142B73D926002C363378002B63
:1057C0006ED000236A469C463370564B04935A4B66
:1057D00083CB83C2049B60460ECBFFF775F918217B
:1057E0003378524A594394460800604403006A469D
:1057F00004910C33C2CBC2C26346049AD1584268AA
:1058000083680120FFF760F9FFF7F2F9FFF70EFB5D
:105810004A49E06FFAF736FE002801D0042027E756
:10582000231D4749D86FFAF72DFE002838D00520F0
:105830001EE7A36B0E2B33D926002C360496337843
:10584000032B2DD00323012233703A4B67709A70DB
:105850006A46344B07933B4B43CB43C2079B38000C
:1058600048330ECBFFF730F91821049B2F4A1B78E1
:10587000944659430800604403006F4604910C337A
:1058800046CB46C76346049AD158836842680120D4
:10589000FFF71AF900202C4BFA21185600F0AEF948
:1058A0006B78002B01D000236B70AB78002B0CD0F1
:1058B0000023AB702378002B03D0636BF533FF33E9
:1058C0006363FFF7FBF9FFF789FC2B79002B00D10D
:1058D000DBE600232B71FFF755FAD6E6A36B0D2B01
:1058E000DED923002C331A78022AD9D002221A706A
:1058F000D6E7C0460010024000070020F005002057
:10590000CBA700084008002000A800083FA8000816
:1059100000006041F9060020F3060020F206002096
:10592000F80600200C0300207803002094020020D9
:10593000C0050020900500201803002000008242CE
:105940000000BE4260030020F7060020F7B5019377
:105950004C234343164C0092E3181A0000250E1CFA
:1059600001213C32070011709D61DD611D625E62A4
:10597000291C301CFAF786FD002805D10D49301C82
:10598000FAF794FD002802D00820FFF7C5FB4C234E
:105990007B43009A0998E250E418019B6360089BDE
:1059A000A36001F06FF90A9B2561E0606361F7BDB8
:1059B0008C0800200000DC424C234343F0B5474CE8
:1059C00087B0E41825000290606A039100F0F8FEA9
:1059D000E3683C3501932B78061C002B13D0002381
:1059E0003F49A361FAF74EFD002801D000232B7038
:1059F0004C220299394B4A439B18019A1A62039A26
:105A0000DA6107B0F0BD616800F088FDFC2189050E
:105A100000F084FDA16900F0A5F90199A061051CC1
:105A2000FAF744FD002840D0019BA3611D1C4C23C4
:105A3000029A2A4F5A43BC18E1690398049200F075
:105A4000BFFEA16800F06AFD049BA064D9590590CF
:105A5000301C00F063FD291C00F084F9059900F06A
:105A6000AFFE266A6469311C051C00F0A9FE211CEA
:105A7000FAF71CFD002822D0211C301C00F072F91E
:105A8000051C0199281CFAF711FD0028B0D14C2300
:105A9000029A291C5343FB181C69201CFAF706FDC7
:105AA000002800D12C1C0194A2E72769281C391C6E
:105AB000FAF7E8FC0028BAD0A7613D1CB7E7291C1B
:105AC000301C00F07DFE011C201CFAF7DBFC0028D6
:105AD000D7D0211C301C00F073FED1E78C080020C9
