:020000040800F2
:1000000000200020F5610008613300086333000818
:1000100000000000000000000000000000000000E0
:100020000000000000000000000000006533000830
:10003000000000000000000067330008693300087A
:1000400045620008456200084562000845620008F4
:1000500045620008456200084562000845620008E4
:100060000000000045620008456200080000000032
:100070004562000845620008456200080000000073
:100080007133000845620008000000008133000859
:100090000000000091330008A13300084562000809
:1000A00000000000456200080000000045620008F2
:1000B0004562000800000000000000000000000091
:1000C0000023C25C0133002AFBD1581E7047000098
:1000D00002B4714649084900095C49008E4402BCDB
:1000E0007047C04603B47146490840004900095EA4
:1000F00049008E4403BC7047002243088B4274D3EE
:1001000003098B425FD3030A8B4244D3030B8B4218
:1001100028D3030C8B420DD3FF22090212BA030C21
:100120008B4202D31212090265D0030B8B4219D302
:1001300000E0090AC30B8B4201D3CB03C01A524122
:10014000830B8B4201D38B03C01A5241430B8B426A
:1001500001D34B03C01A5241030B8B4201D30B0353
:10016000C01A5241C30A8B4201D3CB02C01A52417A
:10017000830A8B4201D38B02C01A5241430A8B423D
:1001800001D34B02C01A5241030A8B4201D30B0226
:10019000C01A5241CDD2C3098B4201D3CB01C01A40
:1001A000524183098B4201D38B01C01A524143094A
:1001B0008B4201D34B01C01A524103098B4201D338
:1001C0000B01C01A5241C3088B4201D3CB00C01AA5
:1001D000524183088B4201D38B00C01A524143081D
:1001E0008B4201D34B00C01A5241411A00D2014642
:1001F000524110467047FFE701B5002000F0F0F8CB
:1002000002BDC0460029F7D076E7704703460B438E
:100210007FD4002243088B4274D303098B425FD3FF
:10022000030A8B4244D3030B8B4228D3030C8B422B
:100230000DD3FF22090212BA030C8B4202D3121211
:10024000090265D0030B8B4219D300E0090AC30BE6
:100250008B4201D3CB03C01A5241830B8B4201D393
:100260008B03C01A5241430B8B4201D34B03C01A7C
:100270005241030B8B4201D30B03C01A5241C30AF4
:100280008B4201D3CB02C01A5241830A8B4201D365
:100290008B02C01A5241430A8B4201D34B02C01A4F
:1002A0005241030A8B4201D30B02C01A5241CDD2F4
:1002B000C3098B4201D3CB01C01A524183098B423F
:1002C00001D38B01C01A524143098B4201D34B0128
:1002D000C01A524103098B4201D30B01C01A52418B
:1002E000C3088B4201D3CB00C01A524183088B4212
:1002F00001D38B00C01A524143088B4201D34B00FB
:10030000C01A5241411A00D201465241104670476C
:100310005DE0CA0F00D04942031000D34042534071
:1003200000229C4603098B422DD3030A8B4212D331
:10033000FC22890112BA030A8B420CD38901921163
:100340008B4208D3890192118B4204D389013AD0A0
:10035000921100E08909C3098B4201D3CB01C01A75
:10036000524183098B4201D38B01C01A5241430988
:100370008B4201D34B01C01A524103098B4201D376
:100380000B01C01A5241C3088B4201D3CB00C01AE3
:10039000524183088B4201D38B00C01A5241D9D2FB
:1003A00043088B4201D34B00C01A5241411A00D27C
:1003B0000146634652415B10104601D34042002B78
:1003C00000D54942704763465B1000D3404201B5F7
:1003D000002000F005F802BD0029F8D016E77047AC
:1003E0007047C0468446100062468C46190063463A
:1003F00000E0C0461FB507F053FF002801D40021DC
:10040000C8421FBD10B507F095FE4042013010BD37
:1004100010B507F045FF002801DB002010BD0120CA
:1004200010BDC04610B507F03BFF002801DD0020DD
:1004300010BD012010BDC04610B507F0C1FE002858
:1004400001DC002010BD012010BDC04610B507F032
:10045000B7FE002801DA002010BD012010BDC04603
:10046000844608006146FFE71FB506F099FA0028A8
:1004700001D40021C8421FBD10B506F021FA404248
:10048000013010BD10B506F08BFA002801DB00200A
:1004900010BD012010BDC04610B506F081FA00283D
:1004A00001DD002010BD012010BDC04610B506F0D2
:1004B0002FFA002801DC002010BD012010BDC0462D
:1004C00010B506F025FA002801DA002010BD012041
:1004D00010BDC0460100343138C9043B9C461D6044
:1004E000A646010020313CC990469946A246AB463B
:1004F00001000831FCC941680068E54600BDC046FE
:100500007047C0467047C0467047C0467047C046F7
:100510007047C0467047C0467047C0467047C046E7
:100520007047C0467047C04601B401A801B585B008
:10053000FFB408A841464A4653465C4665463EC05D
:1005400001A83EC80F98009000230CB401A909F03F
:10055000F7F8109B12B0184701B401A801B585B097
:10056000FFB408A841464A4653465C4665463EC02D
:1005700001A83EC80F98009000230CB401A909F00F
:1005800013F9109B12B0184701B401A801B585B04A
:10059000FFB408A841464A4653465C4665463EC0FD
:1005A00001A83EC80F98009000230CB401A909F0DF
:1005B0001FF9109B12B0184701B401A801B585B00E
:1005C000FFB408A841464A4653465C4665463EC0CD
:1005D00001A83EC80F98009000230CB401AB09F0AD
:1005E000D9F8109B12B0184701B401A801B585B025
:1005F000FFB408A841464A4653465C4665463EC09D
:1006000001A83EC80F98009000230CB401AA09F07D
:1006100059F9109B12B018471C2101231B04984262
:1006200001D3000C10391B0A984201D3000A083983
:100630001B09984201D30009043902A2105C40183A
:100640007047C046040302020101010100000000DE
:10065000000000000448054B10B5834203D0044B52
:10066000002B00D0984710BDD4040020D4040020F3
:100670000000000006480749091A8B10C90FC91865
:1006800010B5491003D0044B002B00D0984710BD83
:10069000D4040020D40400200000000010B5074C52
:1006A0002378002B09D1FFF7D5FF054B002B02D093
:1006B000044800E000BF0123237010BDD4040020D3
:1006C00000000000BCA80008054B10B5002B03D0AB
:1006D0000449054800E000BFFFF7CCFF10BDC0464D
:1006E00000000000D8040020BCA80008F0B51F00DE
:1006F000002316008BB09F4204DA802109067B1884
:100700001F002D23129A149D1370202303229D4352
:10071000462D07D02B00453B59424B411099013AD9
:10072000CB18109309AB049308AB0393139B00926F
:100730000293109B320001933B0000F04BFE04003B
:10074000472D1BD1119BDB0711D5109BC3180793B5
:100750000022002330003900FFF754FE002801D0AA
:10076000079B09933022099B07998B4220D32000D5
:10077000099B159A1B1B13600BB0F0BD109BC3188F
:100780000793462DE4D10378302B0CD100220023AF
:1007900030003900FFF736FE002804D10123109AFB
:1007A0009B1A139A1360139B079A1B68D318CEE702
:1007B000591C09911A70D6E7F0B52B2385B00500B6
:1007C0000C1E027001DA4C4202336B70092C2EDDD4
:1007D00002ABDE1D20000A21FFF7FEFD370030319D
:1007E000013E200031700A210194FFF70FFD019BAB
:1007F0000400632BEEDCBA1E30341470AC1C130002
:10080000210002A8073098420CD802AB0733002021
:10081000934203D3093002ABC018C01B0019401B20
:1008200005B0F0BD1878013308700131E9E73023D5
:10083000E418AB70281DEC70F1E70000F0B597B03C
:100840000C001C9D0A920B93099000F0B9FC036800
:1008500018000F93FFF734FC002307221090149325
:10086000237E0E93236811932B6807339343012251
:10087000C0CB2B607B005B080D930C96A664E764ED
:100880000C980D99A44B524208F078FC002831D105
:100890000C980D990122A04B5242FFF7C3FD00288E
:1008A00028D10022002330003900FFF7B1FD0028D5
:1008B00003D023002D2243331A70984B0C930E9BC8
:1008C000472B01D8964B0C9303230025119A2361E3
:1008D00001339A4322600B9B2100009309980A9BE5
:1008E00015AA00F0D9F9013000D099E0012040426A
:1008F00017B0F0BD32003B003000390008F03EFC7C
:1009000000280CD0002F03DA23002D2243331A7065
:10091000844B0C930E9B472BD6D8834BD3E72022D6
:100920000E9D636895435A1C44D10733636080234E
:10093000119ADB00134300222360069214AA059249
:100940000E9A0AA9049213AA039223225218029221
:10095000019363683200009309983B00FFF7C6FEDD
:1009600013990C90472D2BD1CB1C02DB63688B4273
:1009700044DA0E9E023EF3B20E9320000E9A013925
:1009800050301391FFF718FF149A050013182361D4
:10099000012A02DC2268D20701D501332361232317
:1009A0000AAA9B181B78002B95D023002D224333D5
:1009B0001A7090E7472DBAD1002BB8D10133B5E7B3
:1009C0000E9B652BD9D90E9B662B19D16368002924
:1009D00009DD2161002B02D12268D2070BD501333A
:1009E0005B18236107E0002B03D10122206810422D
:1009F00000D09A1C22610025A165D0E767230E93E1
:100A0000149B8B4205DC23682161DB07F3D54B1C6B
:100A1000E7E70122002901DC9218521A9B18E0E74F
:100A20002268530508D423690C9A0A9909980B9DEA
:100A3000A847013029D159E70E9B652B00D8D6E095
:100A4000A06CE16C00220023FFF7DCFC002833D00F
:100A50000123364A0A9909980B9DA847013000D115
:100A600044E7149E139BB34202DB2368DB070CD5DB
:100A70000B9D109B0F9A0A990998A84700250130F1
:100A800000D133E7731EAB420ADC23689B0700D515
:100A900000E1159BE068984200DB29E7180027E792
:100AA000220001230A9909980B9F1A32B847013096
:100AB00000D11BE70135E5E7139B002B38DC012350
:100AC0001A4A0A9909980B9DA847013000D10DE7F1
:100AD000149E139B334302D12368DB07D5D50B9DAE
:100AE000109B0F9A0A990998A8470025013000D158
:100AF000FCE6139B5B42AB4201DC330094E722002F
:100B000001230A9909980B9F1A32B847013000D186
:100B1000ECE60135EDE7C046FFFFEF7FF0A80008E7
:100B2000ECA80008F8A80008F4A80008FCA8000831
:100B3000149EA76DB74200DD3700002F2FDCFB436A
:100B40000025DB173B400E93A76D0E9BFB1AAB42B3
:100B50002EDC139B9E4237DC2368DB0734D4139DC5
:100B6000F31B751B9D4200DD1D00002D35DCEB43A2
:100B70000027DB171D400C95139B0C9AF31A9B1A48
:100B8000BB4200DC81E7220001230A9909980B9DF2
:100B90001A32A847013000D1A8E60137ECE73B0044
:100BA0000C9A0A9909980B9DA8470130C7D19DE678
:100BB000220001230A9909980B9F1A32B847013085
:100BC00000D193E60135BFE7109B0F9A0A99099867
:100BD0000B9DA8470130C2D188E60C9B0A99DA190F
:100BE00009982B000B9FB8470130C0D17EE6149EB8
:100BF000012E02DC01231A4239D001230C9A0A99F2
:100C000009980B9FB847013000D16FE6109B0F9AEF
:100C10000A9909980B9FB847013000D166E6A06C8D
:100C2000E16C731E0E9300220023FFF7EBFB0028FC
:100C30001BD10C9A0E9B01320A9909980B9EB04762
:100C400001300ED152E6220001230A9909980B9E29
:100C50001A32B047013000D148E601370E9B9F425F
:100C6000F1DB22002B005032DFE60027F6E70C9A7A
:100C7000E2E7220001230A9909980B9E1932B04736
:100C8000013000D132E60135E368159A9B1AAB4278
:100C9000EFDCFEE60025F7E7F7B5160001938A685A
:100CA0000B690C000090934200DA130022003360BD
:100CB00043321278002A01D00133336023689B0647
:100CC00002D53368023333602268062315001D40C5
:100CD0001A4227D0230043331B785A1E93412268BF
:100CE000920630D4220001990098089D4332A8470B
:100CF000013025D00622236800251340042B05D19E
:100D00003368E568ED1AEB43DB171D40A3682269E1
:100D1000934201DD9B1AED180026B54220D1002038
:100D200010E00135E36832689B1AAB42D2DD220045
:100D3000012301990098089F1932B8470130F0D17A
:100D400001204042FEBD3020E118433108702100EF
:100D50005A1C45310978A218433202331170C1E799
:100D60002200012301990098089F1A32B8470130E8
:100D7000E6D00136D1E70000F0B58BB006920A004C
:100D800043320793059003920A7E0C00109B782A49
:100D900009D8622A0BD8002A00D1BAE07A49049116
:100DA000582A00D18EE0250042352A7022E010003A
:100DB00063381528F7D8FFF795F916001F00F6FFDE
:100DC000F6FFF6FFF6FF1F00F6FFF6FFF6FFF6FF51
:100DD0009F0036007E00F6FFF6FFB000F6FF3600FB
:100DE000F6FFF6FF820025001A684235111D1960D2
:100DF00013682B7001239EE018680968021D0D0618
:100E00000BD506681A60002E03DA2D23039A76426A
:100E100013705D4B0A27049318E006681A604906B0
:100E2000F1D536B2EFE70868196840C9050602D463
:100E3000400600D5B6B21960534B0A2704936F2AB7
:100E400000D1023F2300002243331A706368A3607D
:100E5000002B06DB04212268039D8A432260334372
:100E60000CD0039D30003900FFF7CCF9049B013D05
:100E70005B5C2B70330006009F42F3D9082F09D129
:100E80002368DB0706D5626823699A4202DC3023B7
:100E9000013D2B70039B5B1B2361079B210000938B
:100EA0000598069B09AAFFF7F7FE013048D10120FB
:100EB00040420BB0F0BD202209680A43226078222C
:100EC00032490491210045310A701968226840C9ED
:100ED000100602D4500600D5B6B21960D30702D569
:100EE000202313432360002E01D01027AAE72022DD
:100EF000236893432360F8E71A680D68101D496959
:100F0000186013682E0601D5196002E06D06FBD546
:100F100019800023039D2361BFE71A68111D196022
:100F2000156800212800626800F0C3F9002801D08C
:100F3000401B6060636823610023039A1370ACE771
:100F40002A00236906990598079DA8470130AED06D
:100F500023689B0715D4099BE0689842A9DA18001A
:100F6000A7E72200012306990598079E1932B0478A
:100F700001309CD00135E368099A9B1AAB42F0DC42
:100F8000E9E70025F7E7C046FEA800080FA900081A
:100F9000002310B5040003604360836081814366D1
:100FA000C281036143618361190008225C3000F053
:100FB000FFF80B4B246263620A4BA3620A4BE362A5
:100FC0000A4B23630A4B9C4205D00A4B9C4202D039
:100FD000094B9C4203D12000583000F067F910BD46
:100FE000191100084111000879110008A511000825
:100FF000F004002058050020C005002010B5034A69
:101000000349044800F06CF810BDC046C000002041
:10101000252A0008D000002041680B4B10B50400C1
:10102000994201D001F0FEFCA168084B994202D020
:10103000200001F0F7FCE168054B994202D0200046
:1010400001F0F0FC10BDC046F0040020580500205F
:10105000C005002010B5094B094A04211A6009484F
:101060000022FFF795FF012209210748FFF790FFB3
:10107000022212210548FFF78BFF10BD2806002031
:10108000FD0F0008F004002058050020C0050020D6
:1010900010B5024800F00BF910BDC0463106002023
:1010A00010B5024800F004F910BDC046310600201A
:1010B00010B50400FFF7ECFF236A002B02D0FFF706
:1010C000EFFF10BD044B2362044B1B68002BF6D1CD
:1010D000FFF7C0FFF3E7C0461910000828060020FC
:1010E000F7B51400002600900191A5686768013FDC
:1010F00004D52468002CF8D13000FEBDAB89012B4B
:1011000008D90E22AB5E013304D029000098019B60
:10111000984706436835EAE770B50C000E25495F2D
:1011200000F078F8002803DB636D1B18636570BD61
:10113000A389024A1340A381F9E7C046FFEFFFFFEE
:10114000F8B51F008B8905000C001600DB0505D5DE
:101150000E23C95E0022022300F048F8A389054A45
:1011600028001340A38132000E23E15E3B0000F013
:1011700065F8F8BDFFEFFFFF70B50C000E25495F65
:1011800000F034F80C22A35E421C03D1044A134041
:10119000A38170BD802252011343A3816065F8E7EB
:1011A000FFEFFFFF10B50E23C95E00F00DF810BD74
:1011B00003008218934200D1704719700133F9E798
:1011C000004870470C020020002370B5064D040053
:1011D00008002B6003F055FE431C03D12B68002B45
:1011E00000D0236070BDC0462C06002070B50400FE
:1011F000080011001A000023054D2B6003F04CFE7F
:10120000431C03D12B68002B00D0236070BDC04667
:101210002C06002070B50400080011001A000023FD
:10122000054D2B6003F015FE431C03D12B68002BEA
:1012300000D0236070BDC0462C06002070B50400AD
:10124000080011001A000023054D2B6003F0F4FD87
:10125000431C03D12B68002B00D0236070BDC04617
:101260002C06002070B500260C4C0D4D641BA410FC
:10127000A64209D1002609F021FB0A4C0A4D641B45
:10128000A410A64205D170BDB300EB5898470136B3
:10129000EEE7B300EB5898470136F2E7FCB00008E0
:1012A000FCB0000800B10008FCB0000870477047AF
:1012B0007047C9B28218904201D10020704703786C
:1012C0008B42FBD00130F6E7F0B503690C6989B0B9
:1012D000039006910020A34263DB0B00013C143312
:1012E000A50004935B190593039B143301935D19C7
:1012F000059B2F681E68380001363100FEF7FCFEA2
:101300000290B74227D3049B00279C46019E079773
:10131000624608CA30689446029A99B251431B0C3F
:101320005343C9190A0C9B1889B282B2521A079901
:101330001F0C5218000C9BB21114C31A5B1819141D
:1013400092B21B04134308C6059B07916345DFD285
:101350002B68002B2BD00699039801F0B9F90028CF
:101360001EDB0026019D049901C92B6887B29AB241
:10137000D21B9219000C1B0C1B1A10141B181E14E4
:1013800092B21B04134308C5059B8B42ECD2019A11
:10139000A300D3181A68002A14D0029B01330293C9
:1013A000029809B0F0BD2B68002B04D1013C019BD1
:1013B000043DAB42F7D3039B1C61CCE71A68002ABB
:1013C00004D1013C019A043B9A42F7D3039B1C6170
:1013D000E3E70000F0B514001D00C2699DB0109451
:1013E0001195259F0290002A10D1102000F028FEB0
:1013F000029B021ED86104D1EF21C04BC04801F00E
:1014000059FB0023436083600360C36011680029B7
:101410000BD001235268029893404A608B6000F021
:101420000DFF0022029BDB691A602E1E1DDA0123CC
:101430006E00DE403B601196B24BB24A334093429D
:1014400016D1B14B249A3603360B1360264301D1D3
:1014500000F07DFDAD4B269A0593002A02D0AC4BDF
:10146000269A136005981DB0F0BD00233B60E3E7AA
:10147000109A119B0C920D930C980D990022002349
:10148000FEF7C0FF071E0BD00123249A1360269B92
:10149000002B02D09F4B269A13609F4B0593E1E7E8
:1014A0001AAB01931BAB009302980C9A0D9B01F0B1
:1014B000CFF91A9B0490310D059300D17BE00D9B71
:1014C00019971A03954B120B1343954A8E180C98D3
:1014D0000D9919000022934B07F018FA924A934B8A
:1014E00006F04CFF924A934B05F0ECFE04003000EE
:1014F0000D0007F0A1FE904A904B06F03FFF02005E
:101500000B002000290005F0DDFE04000D0007F0AF
:1015100057FE00220390002320002900FEF778FFE9
:1015200000280BD0039807F087FE2B002200FEF75F
:1015300069FF43425841039B1B1A039301231393F2
:10154000039B162B10D80C980D99039A7C4BD20054
:101550009B181A685B68FEF75BFF002847D0039B67
:10156000013B039300231393059B9E1B00230693CB
:10157000731E03D50122931B069300230A93039B3A
:10158000002B36DB039A0A9B944663440A9300239C
:1015900012920E93229B0124092B61D8052B02DDA8
:1015A0000024043B2293229B981E032862D8FEF756
:1015B0008FFD53553629059B1B9FDF19614BFA1888
:1015C000202A0FDD40239B1A9E405F4B3000FB1802
:1015D000DC40204307F05EFE01225C4B7E1ECB18F0
:1015E000199276E7202320009B1A9840F2E7139087
:1015F000BAE7069B039A9B1A069353420E93002365
:101600001293C7E70123239A0F939446039B6344E5
:101610000B9301330893002B08DC012306E0012320
:101620000F93239B002B29DD0B930893029A002133
:10163000D0690422150014354E1C9D4223D9416007
:10164000029800F0B9FD059000281FD1B021404B51
:101650002B48059AFF31D2E60023E1E70023D2E7C9
:1016600000230F942293013B00220B930893133322
:101670002392DBE701230F93023BF5E701231A00D6
:101680000B930893F4E731005200D3E7029B059ACD
:10169000DB691A60089B0E2B00D9DEE0002C00D11C
:1016A000DBE0039B002B68DD0F21039A244B0A40EB
:1016B000D2009B181E685F68039B02251C110C9AC0
:1016C0000D9B14921593039BDB050AD5214B0C400F
:1016D0001A6A5B6A0C980D9906F00EFA149015912F
:1016E00001351C4B0993002C36D114981599320002
:1016F0003B0006F001FA06000F005BE02DA9000890
:1017000044A900080000F07F0F27000029A9000865
:101710002CA90008FDA80008FCA800080000F03F64
:1017200001FCFFFF0000F83F61436F63A787D23FD2
:10173000B3C8608B288AC63FFB799F501344D33FC0
:1017400060AC00083204000012040000000010FE2B
:101750009DA9000838AC000801231C4209D0ED18EF
:10176000099B30001A685B68390006F007FE060026
:101770000F00099B64100833B4E7039B02250C9EFD
:101780000D9F002B16D00F225C422240D24BD2007C
:101790009B1830001A685B68390006F0EFFDCF4BEC
:1017A000060009930F0000232411002C00D098E0BC
:1017B000002BA0D1139B002B00D1A1E00022300010
:1017C0003900C74BFEF724FE002800D198E0089BA3
:1017D000002B00D194E00B9B002B3EDD039B3000DF
:1017E000013B390009930022BE4B06F0C7FD0600FD
:1017F0000F000B9C0135280007F01EFD32003B0056
:1018000006F0BCFD0022B84B05F05CFDB74B149010
:101810001591CB181593149A159B16921793002CBB
:1018200072D1002230003900B14B07F06FF8169AE0
:10183000179B06000F00FEF7FFFD002800D0AAE26C
:101840008020000684461599300061440B00149AEC
:101850003900FEF7DDFD002826D11B9B002B00DAA6
:1018600069E1039A0E2A00DD65E19B4BD2009B18CB
:101870005C681B6806930794239B002B00DBE4E065
:10188000089B002B00DDE0E00ED1069807990022AE
:10189000974B06F073FD02000B000C980D99FEF7B4
:1018A000C1FD002800D179E200263700239B059C6A
:1018B000DB430993039700273100029800F0BEFC38
:1018C000039B002B00D1B6E0002F05D09F4203D030
:1018D0003900029800F0B2FC0399029800F0AEFCC7
:1018E000A9E00122144206D0099BAD181A685B6872
:1018F00006F044FD0123099A64100832099254E766
:10190000039B089C099376E7734B621ED2009B18D9
:1019100018685968059BE31818930F9B002B49D052
:1019200002000B000020734906F0E6F8169A179B98
:1019300006F0ECFF059B14901591169339003000CA
:1019400007F03EFC050007F077FC02000B003000BA
:10195000390006F0DBFF169B30355C1C1D70149AB5
:10196000159B06000F00FEF753FD002863D13200DF
:101970003B0000205A4906F0C9FF149A159BFEF758
:1019800047FD002800D0B9E0189B9C4200D164E7D5
:10199000149815990022534B06F0F0FC0022149085
:1019A0001591504B3000390006F0E8FC1694060003
:1019B0000F00C3E7169A179B06F0E0FC14901591F0
:1019C000059D3900300007F0FBFB040007F034FCF4
:1019D0000B0002003900300006F098FF3034189BED
:1019E0002C70013506000F00AB4227D114981599D1
:1019F00000221C003F4B05F065FC02000B0030008C
:101A00003900FEF719FD002800D077E0149A159BE5
:101A10000020384906F07AFF02000B003000390040
:101A2000FEF7F6FC002800D117E72300013C2278DE
:101A3000302AFAD01C00099B03933DE00022294B79
:101A400006F09CFC06000F00BBE7089F059E013FC7
:101A5000BF19069A079B0C980D9906F04DF807F0F0
:101A6000AFFB050007F0E8FB069A079B06F086FC33
:101A700002000B000C980D9906F048FF2A00330075
:101A80003032013634001A709F4247D102000B00F9
:101A900005F018FC069A079B06000F00FEF7CCFC29
:101AA000002829D1069A079B30003900FEF7AAFCCE
:101AB000002801D0ED071FD40499029800F0BEFB66
:101AC00000232370039B249A01331360269B002B71
:101AD00000D1C7E41C60C5E460AC000838AC000865
:101AE0000000F03F0000244000001C400000C0FC4B
:101AF000000014400000E03F039B099323001C00FA
:101B0000013B1A78392A06D1059A9A42F7D1099AE7
:101B100001320992302201321A708CE70022C64B42
:101B200006F02CFC002200230C900D91FEF76AFCBD
:101B300000288ED0C0E70F9F0E9D069C002F14D06A
:101B4000229A012A00DDE4E0199A002A00D1DAE0A5
:101B5000BA4A9B18069A0121D21806920A9A02984C
:101B6000D3180A9300F022FC0700002C0ED00A9B29
:101B7000002B0BDD0A9A2300944200DD1300069A25
:101B8000E41AD21A06920A9AD31A0A930E9B002BD1
:101B900021D00F9B002B00D1D3E0049E002D14D048
:101BA00039002A00029800F0C5FC049A01000700E1
:101BB000029800F013FC06000499029800F03EFB26
:101BC0000E9B04965B1B0E9305D031000E9A029873
:101BD00000F0B0FC04900121029800F0E7FB129B9A
:101BE0000600002B00D1BCE11A000100029800F0B1
:101BF000A1FC229B06000025012B16DC0025109B72
:101C0000AB420ED1119B1B03AB420AD18C4B119AF4
:101C1000134206D0069B0135013306930A9B01331C
:101C20000A93129B0120002B08D0336903339B00D9
:101C3000F318586800F06AFB2023181A0A9B18183A
:101C400002001F231A40184200D181E001339B1A81
:101C5000042B79DD1C239B1A069AE418D2180692ED
:101C60000A9AD3180A93069B002B05DD1A000499E3
:101C7000029800F0C1FC04900A9B002B05DD3100A6
:101C80001A00029800F0B8FC0600139B002B61D0EC
:101C90003100049800F01CFD00285BDA039B0A2247
:101CA000013B099304990023029800F0EBFA0F9B83
:101CB0000490002B00D15BE1002339000A22029836
:101CC00000F0E0FA0B9B0700002B4DDC229B022B5F
:101CD00046DD0B9B002B00D0E8E531000522029881
:101CE00000F0D0FA06000100049800F0F1FC002892
:101CF00000DCDBE5059B059A5C1C31231370099B16
:101D000001330993D6E536231A9A0E9D9B1A069C39
:101D100020E7089B5D1E0E9BAB4208DB5D1B089B0A
:101D2000002BF4DA069B089A9C1A002312E70E9BFC
:101D3000129AEB1AD31812930E95069C0025089B55
:101D400008E70E9A049942E7042B8CD01C3383E7F2
:101D50001300FBE7039B0993089B0B93002BB5DD56
:101D60000F9B002B00D107E1002C05DD390022007C
:101D7000029800F041FC07000397002D20D07968FD
:101D8000029800F019FA041E0CD122002D4B2E48A7
:101D90002E49FFF734FB26003700ABE7039B089E74
:101DA0000993F9E739003A690C31023292000C309C
:101DB00000F076FE01222100029800F01DFC039045
:101DC000059B0B9A0693013B9B1801220E93109BD7
:101DD00013400C9331000498FFF776FA39000500A0
:101DE0000A90049800F074FC039A0B90310002985A
:101DF00000F08AFC0122C368040030350892002BF1
:101E000004D10100049800F063FC089021000298BE
:101E100000F014FA069B229A5C1C089B13430C9A50
:101E2000134315D1392D2ED00B9B002B01DD0A9DBC
:101E30003135069B1D703FE500002440330400004F
:101E40000000F07F9DA9000844A90008EF020000EF
:101E50000B9B002B04DB229A13430C9A13431ED1D5
:101E6000089B002BE5DD04990122029800F0C4FBD9
:101E70003100049000F02CFC002802DCD9D1EB07E3
:101E8000D7D5392DD3D13923069A137023001C00DE
:101E9000013B1A78392A51D001321A700CE5089B9F
:101EA000002B03DD392DEED00135C2E7069B0E9ADB
:101EB0001D7093422DD000230A220499029800F04D
:101EC000E1F9039B04909F4209D1390000230A22C3
:101ED000029800F0D7F90700039006947AE73900DA
:101EE00000230A22029800F0CDF9002307000A22FD
:101EF0000399029800F0C6F90390EEE700240B9BCB
:101F0000A34201DD1C00013C03970027059B013320
:101F1000E41804990122029800F06EFB310004904D
:101F200000F0D6FB0028B1DC01D1ED07AED42300D0
:101F30001C00013B1A78302AFAD0BDE4059A9A4277
:101F4000A5D1099B0133099331231370B4E4154BD8
:101F5000269A0593144B002A01D0FFF781FAFFF768
:101F600081FA229B012B00DC48E60120129D65E6E8
:101F70000B9B002B00DCA9E6002431000498FFF73E
:101F8000A3F9059B303018550B9B01340500A34283
:101F9000B4DD00230A220499029800F073F904903A
:101FA000EBE7C04620A9000828A9000870B5050085
:101FB0000C1E10D0043C2368002B00DAE418280023
:101FC00000F0EAF81D4A1368002B05D16360146025
:101FD000280000F0E9F870BDA34208D92068211854
:101FE0008B42F3D119685B6809182160EEE71A008B
:101FF0005B68002B01D0A342F9D911685018A042A8
:102000000BD120680918501811608342E0D118687C
:102010005B68411811605360DAE7A04202D90C23D3
:102020002B60D5E7206821188B4203D119685B68C3
:102030000918216063605460CAE7C0463806002072
:1020400010B5034B0100186800F026F810BDC0461B
:10205000CC00002070B50F4E0D003168040000293F
:1020600002D100F00BFD30602900200000F006FDD9
:10207000431C03D101256D42280070BD0323C51CFC
:102080009D43A842F8D0291A200000F0F7FC013047
:10209000F2D1EFE734060020F7B50322CB1C9343BF
:1020A000083305001F000C2B34D20C27B94233D85B
:1020B000280000F071F8374E33681C00002C2FD137
:1020C00039002800FFF7C6FF0400431C5FD13468C5
:1020D0000094009B002B4AD1002C52D0236828008A
:1020E000E3180099019300F0C9FC019B834248D199
:1020F00023682800FF1A3900FFF7ACFF013040D0F9
:102100002368DB19236033685A68002A33D1009BA7
:10211000336019E0002BC9DA0C232B600020FEBDD0
:102120002168C91B20D40B290AD9E2192760A342D0
:1021300004D1326063681160536005E05A60F9E7CA
:102140006268A3420ED13260280000F02DF8200012
:1021500007220B30231D9043C21A9842DFD01B1A6E
:10216000A350DCE75A60EFE723006468A6E7009C11
:1021700063680093ADE71A005B68A342FBD10023BC
:10218000DAE70C2328002B6000F00EF8C6E70760A2
:10219000DAE7C0463806002010B50248FFF787F896
:1021A00010BDC0463006002010B50248FFF780F889
:1021B00010BDC0463006002070B5C46905000E0091
:1021C000002C10D11020FFF73BFF041EE86105D161
:1021D00022006B21174B184800F06CFC0023436071
:1021E00083600360C360E368002B0BD121220421CC
:1021F000280000F07DFCEB69E060DB68002B01D17A
:10220000002070BDB2009B181868002805D0026835
:102210001A6000230361C360F3E701210C00B4409E
:10222000621D2800920000F063FC0028E8D04660A0
:102230008460EEE72DA90008AEA9000870B5C66954
:1022400005000C00002E0ED11020FFF7F9FE021E33
:10225000E86104D18F21094B094800F02BFC46604E
:1022600086600660C660002C07D0EB696268DB6898
:1022700092009B181A6822601C6070BD2DA900088E
:10228000AEA90008F7B50F0001900C001E00002059
:102290000D6914373B68013099B251431B0C53430D
:1022A00089190E0C9B191E0C89B21B045B1808C7F8
:1022B0008542EFDC002E22D0A368AB4219DC6168B6
:1022C00001980131FFF778FF071E05D13A00BA21C6
:1022D0000C4B0D4800F0EEFB210022690C3102325C
:1022E00092000C3000F0DCFB21000198FFF7A6FF04
:1022F0003C002B1D9B00E31801355E60256120002A
:10230000FEBDC0469DA90008AEA9000880220300BA
:1023100052020020934201D21B041030802252044A
:10232000934201D208301B0280225205934201D20F
:1023300004301B018022D205934201D202309B005F
:10234000002B03DB0130134200D1202070470368CB
:10235000010007221800104013420DD0063A002059
:10236000134205D10230034203D0D34010000B606A
:1023700070479B080B60FBE79AB2002A01D110203E
:102380001B0CDAB2002A01D108301B0A1A0701D14E
:1023900004301B099A0701D102309B08DA07E9D4FF
:1023A00001305B08E6D12020E2E7000010B50C0008
:1023B0000121FFF701FF002807D14621054C02004B
:1023C000054B2000FF3100F075FB012344610361E0
:1023D00010BDC046AEA900089DA90008F0B50D6962
:1023E00016690F00140089B0B54204DB33000C00FD
:1023F0002E0017001D0073190193A36872196168FC
:10240000934200DA0131FFF7D7FE0090002806D191
:10241000B121464B4648009A490000F04BFB009A18
:10242000731914329B00D3180293002113000298F1
:10243000834229D32300B6001433049314379B1925
:10244000AD000393BC462B00634407930023059320
:10245000230003991533994204D30C1B153CA4089F
:10246000A3000593079B9C4510D3019B002B05DD22
:10247000029B043B02931B68002B52D0009B019AE5
:1024800018001A6109B0F0BD02C3D0E763461C68AA
:10249000A4B2002C1ED017000025049E01CE3B687C
:1024A000069383B2634319006B46000C1B8B604399
:1024B000CB1806995B19090C4018190C41189BB2EE
:1024C0000D0C09041943039B02C7B342E6D8059BD0
:1024D000D3185D6063461C68240C1ED0116816007A
:1024E00008000027049D2B68000C9BB26343DB1996
:1024F0001B18180489B20843306080CD70683F0C07
:10250000674381B279181B0CC918039B0F0C043662
:10251000AB42E8D8059BD318596004239C44D218D9
:10252000A0E7019B013B01939FE7C0469DA90008DE
:10253000AEA90008F7B50323150007000C001A40E8
:102540001D4208D02849013A920052580023210028
:10255000FFF798FE0400AB10019342D0FD69002DF7
:1025600011D11020FFF76CFD051EF86106D1B421D2
:102570002A001E4B1E48FF3100F09CFA00234360E6
:1025800083600360C360AE68002E07D1380019492C
:10259000FFF70CFF00230600A86003600122019BE7
:1025A00025001340019A52100192002B0CD02100FB
:1025B00032003800FFF712FF290004003800FFF74F
:1025C0003DFE019B002B0CD03068002807D1320063
:1025D00031003800FFF702FF00233060036006007F
:1025E000DCE72000FEBDC0462CAC00082DA9000889
:1025F000AEA9000871020000F0B50C0016002369B6
:10260000571187B0FB180293013301934968A368FF
:102610000390019A934210DB0398FFF7CDFD00234E
:10262000010005001A00143198420CD1EF212A0054
:10263000254B2648490000F03DFA01315B00E8E7F0
:1026400098000A500133BB42FADBFB43DB171F4003
:10265000BF002300C9191F203700226914339200DC
:1026600005919A180740064228D00130C01B0490FB
:1026700000201E688C46BE4006436046066001CBC3
:10268000049E0431F0409A42F3D821001531002312
:102690008A4203D3131B153B9B089B00059AD31852
:1026A0005860002801D1029B0193019B03982100EF
:1026B0002B61FFF7C3FD280007B0F0BD40CB0E60D3
:1026C00004319A42FAD8EEE79DA90008AEA90008A5
:1026D00030B50B6904690200E01A9C420FD1143234
:1026E0009B0014311400C918D218043A0439156833
:1026F0000B689D4204D001209D4200D2023830BDBB
:102700009442F2D3FBE70000F0B50C0087B00090D4
:10271000110020001700FFF7DBFF051E10D101009C
:102720000098FFF749FD021E04D1454B4548464934
:1027300000F0C0F9012345610361100007B0F0BD4E
:102740000026B04203DA23003C001F000136616816
:102750000098FFF731FD021E03D1394B39483B4940
:10276000E6E72369143400939B00E31801931423D4
:102770009C463B69BC449B00634402930300C660D3
:10278000002014330393059304946146049B20CBEB
:10279000049308C98C46A9B20E0099B2711A09189F
:1027A0002D0C1B0C0814EB1A1B18181489B21B04EF
:1027B0001943059B02C30593029B6345E5D83B0083
:1027C000029D153300219D4203D3EB1B153B9B0853
:1027D0009900039B5B1861180E1D350004330293AA
:1027E000039B1B1B0393039B9C46019BAC449D4294
:1027F00012D3019801310023884204D3030003332C
:102800009B1B9B089B0002995B18043B19680029DD
:1028100011D0009B136190E7070008CD98B2C01952
:1028200000141C0C0419DB1920149BB2240423434C
:1028300064462360D7E7009901390091E5E7C04677
:102840009DA90008AEA9000837020000450200005B
:10285000F7B5012116001F00FFF7AEFC041E05D1DD
:102860002200254B2548264900F024F93B037D0032
:102870001B0B6D0D02D08022520313430193002ED7
:1028800025D068460096FFF762FD009900281CD00D
:10289000019B20221E00121A96403200C3400A43B8
:1028A00062610193019EA661731E9E4101362661FD
:1028B000002D14D03526134BED18089B2D181D60E4
:1028C000099B361A1E602000FEBD6161EAE701A87F
:1028D000FFF73DFD019B012663612030E7E70A4BCE
:1028E000C018089B1860094BF3189B00E31858693F
:1028F000FFF70CFD7601E3E79DA90008AEA90008EB
:102900000F030000CDFBFFFFCEFBFFFFFFFFFF3FEC
:10291000F7B50C228B5E05000C001A075AD44A68E2
:10292000002A02DC0A6C002A4FDDE76A002F4CD037
:10293000002280212E682A601A0049010A400B42B9
:1029400034D0626DA3895B0706D56368D21A636BC6
:10295000002B01D0236CD21A00232800E76A216AD9
:10296000B8470C23E25E431C06D129681D292ED8E6
:102970002B4BCB40DB072AD5002363602369236000
:10298000D20405D5431C02D12B68002B00D1606511
:10299000616B2E60002918D023004433994202D085
:1029A0002800FFF703FB002363630EE001232800E8
:1029B000216AB8470200431CC4D12B68002BC1D048
:1029C0001D2B01D0162B1DD12E60002021E04023AD
:1029D00013431BE00E69002EF7D00F680E60BA1B80
:1029E000019200229B0700D14A69A260019B002B43
:1029F000EBDDA36A32001F002800019B216AB84763
:102A0000002807DC4023A28913431BB20120A381C5
:102A10004042FEBD019B36181B1A0193E6E7C046F3
:102A2000010040200B6970B505000C00002B02D19D
:102A30000025280070BD002804D0036A002B01D1B6
:102A4000FEF736FB0C22A35E002BF1D0626ED2079C
:102A500004D49B0502D4A06DFEF729FC28002100B8
:102A6000FFF756FF636E0500DB07E2D4A3899B05E1
:102A7000DFD4A06DFEF71CFCDBE70000002370B57F
:102A8000064D040008002B6007F058FD431C03D1DD
:102A90002B68002B00D0236070BDC0462C060020A0
:102AA000002310B59A4200D110BDCC5CC454013350
:102AB000F8E700007FB514001A00094B05001B68F9
:102AC0000E00D868074B002C01D1074B1C000749AA
:102AD000019302942B00009600F056F800F064F881
:102AE000CC00002012AA00087BAB00081FAA000837
:102AF00070B50B0C150C002B1ED1002D0CD189B21A
:102B000094B24C432100FFF7C7FA051E1BD02200E8
:102B10000021FEF74DFB16E02B1C0C1C89B292B273
:102B20004A439BB2A1B25943140C0C19230C07D190
:102B3000240492B21443E5E7002D01D1141CEDE703
:102B40000C2300250360280070BD82B0002900D14D
:102B500001A9101E06D0002B06D013780B60107848
:102B6000431E984102B0704702204042FAE703003A
:102B7000081E05D0FF2A04D98A2201201A6040428B
:102B8000704701200A70FBE70EB417B5054C05AB82
:102B900004CB01002068019300F034F81EBC08BC8F
:102BA00003B01847CC000020062010B500F022FA30
:102BB000012007F0D1FC936810B5013B9360002B16
:102BC00004DA9469A34207DB0A2905D01368581C6C
:102BD00010601970080010BD00F034F90100F9E729
:102BE000F8B506000F001400D518AC4201D1002042
:102BF00007E021783A003000FFF7DDFF0134431C85
:102C0000F3D1F8BDF0B59FB00D0016001C00029086
:102C1000002804D0036A002B01D1FEF749FA6B6E3D
:102C2000DB0705D4AB899B0502D4A86DFEF73FFBFB
:102C3000AB891B0702D52B69002B13D12900029801
:102C400000F042F900280DD06B6EDB0703D50120A0
:102C500040421FB0F0BDAB899B05F8D4A86DFEF7CC
:102C600027FBF4E70023292102AA52180B932033F3
:102C70001370013102AA10335218137005943400F6
:102C80002378002B01D0252B48D1A71BB4420BD0B1
:102C90003B00320029000298FFF7A2FF013000D16B
:102CA000AEE00B9BDB190B932378002B00D1A7E040
:102CB0000122532100235242079202AA5218661C95
:102CC00006930993089313701C93594F317805228A
:102CD0003800FEF7EEFA741C069906AB00281FD1E7
:102CE000CA0604D55327202202A8C01902700A0779
:102CF00004D553272B2202A8C019027032782A2A41
:102D000015D0340000200A27DA682178661C303993
:102D1000092950D9002811D009920FE00134AFE7FA
:102D20000123C01B83400B4326000693CDE7059A81
:102D3000101D12680590002A37DBDA6022782E2AEF
:102D40000CD162782A2A3BD1059A0234111D1268EF
:102D50000591002A01DA012252425A60354E0322BF
:102D600030002178FEF7A5FA06AF002806D04023F0
:102D7000801B8340069A0134134306932178062270
:102D80002D48661C3976FEF794FA002847D02B4B65
:102D9000002B29D10722059B073393430833059362
:102DA0000B9B03995B180B9369E75242DA6002228E
:102DB0000A430692C2E77A43340001205218A4E77E
:102DC00000220A205A601100130001342278661C88
:102DD000303A092A03D9002BC0D00791BEE74143FE
:102DE000340001238918F1E705AA009239002A006E
:102DF000134B0298FDF722FD0390039B0133CFD1C3
:102E00006B6EDB0705D4AB899B0502D4A86DFEF77A
:102E10004FFAAB895B0600D519E70B9819E705AAAD
:102E2000009239002A00064B0298FDF7A5FFE3E760
:102E30004EAA000854AA000858AA00083D08000835
:102E4000E12B0008F8B506000D001400002804D09E
:102E5000036A002B01D1FEF72BF9A369A360A389B4
:102E60001B0702D52369002B09D12100300000F097
:102E70002BF8002803D001256D422800F8BD2369F6
:102E80002068EFB2C01A6369EDB2834205DC21000D
:102E90003000FFF7C7FD0028EDD1A3680130013BEA
:102EA000A36023685A1C22601F706369834204D0A8
:102EB000A389DB07E1D50A2DDFD121003000FFF720
:102EC000B1FD0028D9D0D6E72B4B70B505001868A6
:102ED0000C00002804D0036A002B01D1FEF7E8F8AB
:102EE0000C22A35E1A0722D4DA0607D409222A602C
:102EF000373201201343A381404270BD5A0713D5D6
:102F0000616B002908D023004433994202D0280085
:102F1000FFF74CF8002363632422A3899343002224
:102F2000626022691BB2226008221343A3812269D6
:102F3000002A07D19A0501D51B0603D521002800D8
:102F400000F0D2F80C23E25E012113000B400A428C
:102F50000CD00023A36063695B42A3610020236956
:102F60008342CAD11306C8D54023C2E7910700D4D3
:102F70006369A360F2E7C046CC00002010B5884228
:102F800002D98B18984208D300239A4207D0CC5C10
:102F9000C4540133F9E78B5C8354013AFBD210BD72
:102FA00070B504000D001F2904D916230360012009
:102FB000404270BDC36B002B04D08A009B181A6876
:102FC000002A08D1200000F031F82A00010020007A
:102FD00000F01AF8EDE7012A09D0511C03D116239D
:102FE00003600120E5E700212800196090470020D8
:102FF000DFE7000010B5034B01001868FFF7D0FFB2
:1030000010BDC046CC000020002370B5064D040062
:10301000080011002B6001F05CFF431C03D12B68FA
:10302000002B00D0236070BD2C06002010B501F0ED
:1030300048FF10BDF7B506000C001500002905D1AA
:103040001100FFF729F804002000FEBD002A03D17B
:10305000FEF7ACFF2C00F7E700F0A4F8070085426C
:1030600002D84308AB42EFD329003000FFF714F831
:103070000190002801D1019CE6E72A00BD4200D959
:103080003A0021000198FFF70BFD21003000FEF708
:103090008DFFF0E7F0B50E001D000E23C95E140091
:1030A00097B000290CDAB2898023110019401A4226
:1030B00014D18023DB0000202960236017B0F0BD0D
:1030C0006A4600F04BF80028EDDBF02301991B0263
:1030D0001940044BC9184B425941EAE700214023EB
:1030E000E9E7C04600E0FFFFF7B502268B8905003F
:1030F0000C00334206D023004733236023610123B1
:103100006361F7BD6A4601ABFFF7C4FF009F28006B
:103110003900FEF7C1FF0C22A35E002806D19A05F4
:10312000EFD4032293431E43A681E4E78022134396
:10313000A381019B206020616761002BE1D0280002
:103140000E23E15E00F01CF80028DAD00323A289E8
:103150009A43023B1343A381D3E70000002370B5D9
:10316000064D0400080011002B6001F09DFE431C79
:1031700003D12B68002B00D0236070BD2C060020EB
:10318000002370B5064D040008002B6001F06EFEB0
:10319000431C03D12B68002B00D0236070BDC046B8
:1031A0002C0600200B1F1B68181F002B01DA0B5880
:1031B000C0187047F0B50600C1B072B6294C2A4B52
:1031C00000221988606D00F091FF23006033198898
:1031D0000022E06D00F08AFF230068331988002286
:1031E000606E00F083FF2300703319880022E06EC8
:1031F00000F07CFF32001D49684607F007F868467A
:10320000FCF75EFFFA2382B29B0069461848A51CB2
:1032100001F036FD0122E98FE06B00F067FF23002B
:10322000002248331988606C00F060FF0022E98FAB
:10323000E06B00F05BFF0122E98FE06B00F056FFCE
:103240000027E98FBE4202DC0122E06BECE700229E
:10325000E06B00F04BFF0122E98FE06B00F046FFCE
:103260000137EEE78C060020E40600205FAA000884
:10327000CC07002001210A4B82B01A6C0A431A6461
:103280001A6C0A4080210092009ADA6B49050A43C1
:10329000DA63DB6B0B400193019B02B07047C046C1
:1032A000001002401FB50368284A934212D1022140
:1032B000274B1020DA6B0A43DA630022DB6B0B40EA
:1032C00000931100009B00F01FFE102000F046FE4E
:1032D00005B000BD1F4A934210D180211C4B09024A
:1032E0001A6C13200A431A6400221B6C0B400193D2
:1032F0001100019B00F008FE1320E7E7164A9342F5
:1033000010D18021124B89021A6C15200A431A64CD
:1033100000221B6C0B4002931100029B00F0F4FD95
:103320001520D3E70D4A9342D2D18021084BC90220
:103330001A6C16200A431A6400221B6C0B4003937C
:103340001100039B00F0E0FD1620BFE700040040E1
:1033500000100240002000400044014000480140AD
:103360007047FEE77047704710B500F0A3FB10BD33
:1033700010B5024801F07CF910BDC046C40B002016
:1033800010B5024801F074F910BDC0468C0700204A
:1033900010B5024801F06CF910BDC0464C07002082
:1033A00010B5024801F064F910BDC0460C070020BA
:1033B000F7B5184E184CF36A184D019000281AD032
:1033C000210028006360236000F0E6FC002802D0A2
:1033D0000120FFF7EFFEB36B63602100280023603C
:1033E00000F0DAFC002802D00120FFF7E3FE0C4BCE
:1033F000019A1A70F7BD0B4F210028006760236007
:1034000000F0CAFC002802D00120FFF7D3FEB36B06
:103410006760E2E78C060020400600204C06002092
:103420000C0A002001100000802170B501254F4BCF
:1034300049031A6B88B00A431A631A6B4C4802405E
:103440001A631A6C05A80A431A641A6C0A4001929E
:10345000019A5A6B00212A435A635B6B0C222B4062
:103460000293029BFDF7A4FEDC23A0200393C0057A
:10347000D93B03A9049300F097FD3E4C3E4B20003E
:10348000236000F0F7FC002802D02800FFF792FE2E
:103490000422B0236261C2221B066360002301255F
:1034A000FF32E261621DA360E36023832362D3776E
:1034B000A362200005332561A576E36200F050FB8E
:1034C000002802D02800FFF775FE2C4E2C4DB36863
:1034D000290020006B602B6000F05EFC002802D009
:1034E0000120FFF767FE7369290020006B602B60E5
:1034F00000F052FC002802D00120FFF75BFE336A87
:10350000290020006B602B6000F046FC002802D0F0
:103510000120FFF74FFE0120FFF74AFF0B23290090
:1035200020006B602B6000F037FC002802D00120E7
:10353000FFF740FE0C23290020006B602B6000F099
:103540002BFC002802D00120FFF734FE0D4B0E4C5F
:1035500018680E4B1B68C01A03F06EFE011C0C4865
:1035600003F098F8206008B070BDC046001002401B
:10357000FFFFEFFF4C060020002401408C060020D6
:1035800040060020180FFF1F3C060020140FFF1FED
:1035900000005C42F0B501250226514A8FB0536B02
:1035A00080202B435363536B40032B400093009BBD
:1035B000536B4C4C33435363536B4027334001935D
:1035C000019B2023516B19435163516B19400291A8
:1035D0000299116C01431164126C666102400392FE
:1035E000039A0422A020944622829218A2800622E6
:1035F000C0057619E0602060A061A783A660226202
:103600005219E2620932A2866246374FA263374AF4
:103610003B80D3872300402758331F802700230097
:10362000802168373D80270060331980304B218529
:103630006366E3666367703723007E3939806746C7
:103640002C4A783362646265E2651F800822002795
:1036500009AB1900099260622063E0630A960B9738
:1036600000F0A2FC238AE068099309AB19000A96CE
:103670000B9700F099FCA38BA069099309AB190083
:103680000A960B9700F090FC0221184BE06BDB8F41
:103690000791049304AB19000595069500F084FC8E
:1036A000238D606A099309AB19000A960B9700F005
:1036B0007BFCA38E206B099309AB19000A960B972C
:1036C00000F072FC0221084B606C1B88079104A972
:1036D00004930595069500F067FC0FB0F0BDC04659
:1036E000001002408C060020D40600208E06002028
:1036F000001400500004005030B587B0142200219F
:1037000001A8FDF755FD104D2C78012C1AD0022C84
:103710000BD101230D4801A90194029300F044FC50
:1037200000222100094800F0E1FC022301240022CC
:10373000064801A90194029303920493059300F0B3
:1037400033FC2C7007B030BD080700200014005077
:10375000F0B593B01C2200210BA8FDF729FD14221F
:10376000002106A8FDF724FD80215B4B09021A6C9D
:103770005A4D0A431A641A6C28000A4080210192AB
:10378000019A1A6C89020A431A641A6C0A40802151
:103790000292029A1A6CC9020A431A641A6C0A400D
:1037A00002210392039A5A6B0A435A635A6B0A40E6
:1037B0000492049A5A6B1E310A435A635B6BFF22D0
:1037C0000B400593059B464BEA602B6009236B6019
:1037D0000023AB602B61AB6101F047F8002802D0F9
:1037E0000120FFF7E7FC3F4C3F4BFF2223600923FA
:1037F000636000232000A360E26023616361A36132
:1038000001F033F8002802D00120FFF7D3FC374E37
:10381000374BFF2233600923736000233000B3600D
:10382000F26033617361B36101F01FF8002802D0C8
:103830000120FFF7BFFC0022602328000BA90B9397
:103840000C920D920E920F921092119201F064F868
:10385000002802D00120FFF7ADFC002220000BA9B8
:1038600001F05AF8002802D00120FFF7A3FC002243
:1038700030000BA901F050F8002802D00120FFF71A
:1038800099FC00260227402306A91A4807970997A2
:1038900006930A97089600F087FB802306A915482F
:1038A00006930A9700F080FB3100280001F0D4F85D
:1038B0003100200001F0F8F80C4F3100380001F021
:1038C000F3F82B685E6323685E633B685E630A4BB4
:1038D0001E7013B0F0BDC046001002408C070020DF
:1038E000002000404C070020004401400C0700204D
:1038F000004801400004005008070020034B1B68EB
:103900005863034B1B6859637047C0464C0700203F
:103910000C070020F0B506000D002A4C89B00028E5
:103920002DD1294B03AC019300292DD00100142285
:103930002000FDF73DFC019B1F78022F1AD0012FBC
:103940000AD1210021480397676000F02DFB320067
:1039500039001E4800F0CAFB022600230396A3602C
:103960000D332361210019486660E66000F01CFBFE
:10397000019B1E70134B1B685D6309B0F0BDFFF720
:10398000BBFE23685E63F8E701260C2205A8FDF75D
:103990000FFC666021000D48039600F005FB2A002D
:1039A00031000A4800F0A2FBB6192100074803962F
:1039B00000F0FAFA2A003100044800F097FB019B5E
:1039C0001D70DAE78C070020080700200014005063
:1039D000802110B501241A4B8902DA6B88B00A43A2
:1039E000DA63DA6BA0200A400192019A5A6BC00593
:1039F00022435A635B6B022223400293029B032300
:103A000003A903930693063307930492059400F0E9
:103A1000CBFA0C480C4B0360E1235B0243600023AC
:103A20008360C360036183610C33436101F0DAF8A2
:103A3000002802D02000FFF7BDFB08B010BDC04633
:103A400000100240CC07002000440040104B70B52D
:103A500019680500002901D1012070BDFA208000FD
:103A6000FCF74AFB0B4C01002068FCF745FB00F01B
:103A700081FA041EF0D1032DEED8020001202900A6
:103A8000404200F041FA044B20001D60E5E7C046CB
:103A900088020020900200208C02002010B5032034
:103AA000FFF7D4FF041E03D1FFF7E4FB200010BD95
:103AB0000124FBE7034A0449136809685B18136093
:103AC0007047C0461808002088020020014B186883
:103AD0007047C0461808002070B5074D04002B68D9
:103AE0000020A34206D0054B1868FFF7AFFF00285F
:103AF00000D12C6070BDC046880200208C020020DE
:103B0000002213B50300019202680120916801426E
:103B100001D0002016BD94680D490C4207D0102238
:103B2000996B0A439A63DA6B0243DA63F2E79368AC
:103B300008491843084B90601868FCF7DDFA0190BB
:103B4000019B002BE5D0019B013B0193F8E7C046A8
:103B50001500008040420F009002002070470000D6
:103B600070B5041E00D17FE0836B002B05D10200ED
:103B70003432C3631370FFF7F1FFA36BDB0600D58C
:103B800074E0226893685B0700D56FE0A16B3A4B45
:103B900019400633FF330B43A3639368DB070BD451
:103BA0001821D3688B43A1680B43D3601369616804
:103BB0001B011B090B431361D36830490B40D360D1
:103BC000617E237E48039B030343E0680343601D3B
:103BD000C07F40000343A06A0138451EA84100038E
:103BE0000343206902384542684180000343A07EB8
:103BF000012804D1002925D1802149020B43C2208C
:103C0000E169FF30814202D0206A01430B43D16851
:103C10001943D160E16A072906D807255069A843EE
:103C20005061506901435161D26815490A409A4276
:103C300010D100200323E063A26B9A43023B13439D
:103C4000A36370BD2021A56B2943A163E16B0843E9
:103C5000E063D4E71223A26B9A43023B1343A363AE
:103C60000123E26B1343E3630120EAE71023A26B15
:103C70001343A363F8E7C046FDFEFFFF19C2FEFF32
:103C8000E7FF3FC3F8B5042605680400AB680220CF
:103C9000334219D1270034373B78012B14D001234C
:103CA00020003B70FFF72CFF00280DD1A26B074BC3
:103CB0001A4080235B001343A3631C23E063387026
:103CC0002B60AB681E43AE60F8BDC046FEF0FFFF40
:103CD000F8B5466904000D00082E0DD003680120D8
:103CE000DB680C26034207D02023A26B3434134335
:103CF000636000232370F8BDFFF7E8FE0700236828
:103D00001A68164222D08022A16B92000A43A26355
:103D1000C022D9681201114213D1627E002A10D14B
:103D20001A6812070DD59A68520722D40C215A68D6
:103D30008A435A60A16B154A11400432FF320A438C
:103D4000A263227E002A1DD00020D4E76A1CD7D0AF
:103D5000002D08D10423A26B343413436360002385
:103D600003202370C7E7FFF7B1FEC01BA842C6D9E6
:103D7000F0E72022A16B0A43A2630122E16B0A4310
:103D8000E263DEE70C221A60DEE7C046FEFEFFFFBC
:103D90000368186C70470000F7B500230400019316
:103DA0003434237806000220012B26D001382070FD
:103DB0003568AB685B074ED40A684F681300BC4691
:103DC000274F90400B3BBC4536D0AF6A3843A862C2
:103DD000F06A07280CD907206E6989680640B1424D
:103DE00006D06E69014086436E616E693143696138
:103DF000012B03D9002000232370FEBD13000B3BD1
:103E00005D1EAB41802517495B429B0D08689B05F1
:103E10002D045B1903430B600B2AEBD1124B1349A2
:103E20001868FCF769F90A2343430193019B002BAF
:103E3000E0D0019B013BF8E7AA6A8243AA62012B0A
:103E4000D8D8581E8341074A094811689B051B189A
:103E50000B401360CEE72023B26B1343B363CAE772
:103E600001100000082701409002002040420F008E
:103E7000FFFF7FFFF8B5050034352B7804000220E2
:103E8000012B38D00138287023689A68024233D158
:103E9000A16B1C4A11400632FF320A430321A26380
:103EA000DE68DA688A43DA608022996812060A437B
:103EB0009A60FFF70BFE070023689A68002A0CDB64
:103EC0000321DA680E40164302220020DE60A36B55
:103ED0009343A36300232B700DE0FFF7F7FDC01B96
:103EE0000228E9D91223A26B01209A43023B134313
:103EF000A36300232B70F8BD2023A26B1343A3639D
:103F0000E8E7C046FDFEFFFF10B5FF2403220B00CB
:103F100021000240D20091409B012340C9439340BD
:103F200000280ADBC0240B4A800880008018A40007
:103F300002590A401343035110BD0F2210400838A4
:103F4000054A800880008018C26911401943C16188
:103F5000F2E7C04600E100E000ED00E0002805DBEC
:103F60001F2318401E3B8340014A13607047C04620
:103F700000E100E08022431E5204012093420DD252
:103F8000C021074A07485360036A09061B021B0A3F
:103F90000B43036200200723906013607047C04604
:103FA00010E000E000ED00E0494AF0B58218541E30
:103FB000A241002385B0013201910392019A126857
:103FC0001400DC4001D105B0F0BD01249C40A446A2
:103FD0006146144000940A4277D0019A1024526836
:103FE0001500A5430295022D0ED107250F261D4071
:103FF000AD00AE40DC08A4000419276A0199B7435C
:104000000E69AE403E432662032426005D00AE40AA
:104010001440AC400168F743B1430C430460029C78
:10402000013C012C0DD801998668CC683E40AC401B
:1040300034438460614614099C4046688E4334438F
:1040400044600199C6688C683E40AC403443C4600B
:10405000D4003AD503260F241E40F600B4401D4973
:104060009D08AD006D182F6EA743A024E405041B26
:10407000611E8C41039964420C40B44000993C435A
:104080000E002C66144CCD43E76F3E43D10301D4A0
:104090003E002E40E667114E009FF46F27439103C8
:1040A00001D42C4027000B4CF7672768009E3E4345
:1040B000D10201D43E002E4026606668009F37433F
:1040C000920201D42E4037006760013376E7C04684
:1040D00000FCFFAF0018024004180240081802401C
:1040E00000690840431E9841C0B27047002A01D0C1
:1040F000816170478162FCE730B587B001A90A0091
:10410000134B31CB31C211CB11C2124B38229C68F8
:104110002000104014420ED107241A685B68D20AAE
:104120005B0B22402340042B00D818008000085865
:10413000D04007B030BD99681140082906D0986872
:104140001040183843425841C003F2E70248F0E7F4
:10415000D8A800080010024000366E01F8B5051E10
:1041600001D10120F8BD0368DB0708D42B689B0749
:1041700058D42B681B0700D5C5E00020F2E7382291
:104180007B4CA3681340082B06D123689B03EDD515
:104190004368002BEAD1E4E74368002B2AD081680A
:1041A0000029DED00C20226982430A43226180224A
:1041B0005202934211D1226813432360FFF786FC19
:1041C00080270600BF0223683B42CFD1FFF77EFC69
:1041D000801BC828F7D90320C4E7A021C9028B425D
:1041E00008D180232168DB020B43236023681A4334
:1041F0002260E3E722685F490A40226022685E4944
:104200000A402260002BD9D1FFF760FC802706000E
:10421000BF0223683B42A9D0FFF758FC801BC82887
:10422000F7D9D8E73823524CA2681A4235D123680F
:104230005B0503D5EB68002B00D192E763686A69E0
:104240001B0C1B0413436360FFF740FC8027060030
:10425000FF0023683B421AD02368484A13402A696A
:1042600013432360FFF748FFA36845491B051B0F55
:104270009B005B581F210B40D840424A424B1060C4
:104280001868FFF7E3FB002800D172E769E7FFF742
:104290001DFC801B0228DCD99DE7EB68002B1FD09A
:1042A0002368364A802713402A69FF00134323609E
:1042B000802322685B0013432360FFF707FC06009E
:1042C00023683B4206D063686A691B0C1B041343D6
:1042D00063604EE7FFF7FAFB801B0228F0D97AE70C
:1042E00023682A4A802713402360FFF7EFFB06006C
:1042F000FF0023683B4200D13BE7FFF7E7FB801B51
:104300000228F6D967E73822194CA3681340182B06
:1043100008D1236E9B0700D42FE7A8694342584178
:10432000C0B21FE7AA690123002A10D0226E02261C
:1043300013432366FFF7CAFB0500236E334200D008
:104340001BE7FFF7C3FB401B0228F6D943E7226EA9
:1043500002269A432266FFF7B9FB0500236E33421B
:1043600000D10AE7FFF7B2FB401B0228F6D932E77B
:1043700000100240FFFFFEFFFFFFFBFFFFC7FFFF34
:104380004CAE0008900200208C020020FFFEFFFFD0
:10439000F7B504000E00002801D10120FEBD012761
:1043A000434D2B683B408B4228D32268930739D476
:1043B000D20746D401272B683B40B34208D92B686B
:1043C000BB432B60FFF782FB06002B683B4260D1AA
:1043D0002368384D5B0763D4FFF78EFEAB68364920
:1043E0001B051B0F9B005B581F210B40D840334A15
:1043F000334B10601868FFF729FBCFE72B68BB43EE
:104400000B432B60FFF762FB01902B683B40B342EC
:10441000CBD0FFF75BFB019BC01A2A4B9842F4D923
:104420000320BBE72349530704D5E0238868DB0159
:1044300003438B608B6824480340A06803438B6070
:10444000B6E762681B4F012A19D13B689B03A4D5CC
:104450000721BB688B431343BB60FFF737FB019019
:104460003823BA681A406368DB009A42A2D0FFF78B
:104470002DFB019BC01A134B9842F1D9D0E7002ABB
:1044800003D13B685B05E3D487E73B6E9B07DFD432
:1044900083E7FFF71BFB0B4B801B984295D9BFE7C7
:1044A000AB680A4A1340E2681343AB6094E7C04626
:1044B00000200240001002404CAE00089002002094
:1044C0008C02002088130000FFF0FFFFFF8FFFFF2A
:1044D000064B07499B68074A5B045B0F9B005B58D0
:1044E0001F2110680B40D8407047C04600100240A2
:1044F0002CAE0008900200200122036A70B593439D
:104500000362036A44688569723295430A681543F9
:10451000022293438A6813430D4A904205D00D4A04
:10452000904202D00C4A90420BD108229343CA68B1
:104530008E69134304229343084A22404C69344352
:1045400014434A68446085614263036270BDC0469B
:10455000002C01400044014000480140FFFCFFFFE7
:10456000036A174A70B5134003627323056A4268F1
:10457000C4699C430B681C43124B1D408B681B0293
:104580002B43114DA8420ED1104D1D40CB681B028C
:104590002B430F4D2B400F4D8E6915404A69324316
:1045A00012012A4305E00C4DA842F4D00B4DA8425D
:1045B000F1D042604A68C461C263036270BDC04604
:1045C000FFFEFFFFFFFDFFFF002C0140FFF7FFFF95
:1045D000FFFBFFFFFFCFFFFF004401400048014009
:1045E000036A124A30B513400362046A104D4368EF
:1045F000C2692A400D682D0215430E4A14408A688C
:10460000120322430C4CA04205D00C4CA04202D015
:104610000B4CA04204D10B4C1C404B699B01234323
:1046200043604B68C5610364026230BDFFEFFFFF6A
:10463000FF8CFFFFFFDFFFFF002C01400044014023
:1046400000480140FFBFFFFF012203680720D9682F
:104650001143D96099680140062902D019680A43BC
:104660001A60002070477047704770477047704766
:104670000222036810B51969040011420ED0D968EE
:1046800011420BD0053A1A61043202779B699B07ED
:1046900000D179E0FFF7E9FF0023237704222368A4
:1046A0001969114210D0D96811420DD0093A1A6126
:1046B000073222779A69C0239B0020001A4269D0F2
:1046C000FFF7D3FF002323770822236819691142DB
:1046D0000ED0D96811420BD0113A1A610D322277EF
:1046E000DB6920009B075BD0FFF7BFFF0023237728
:1046F000102223681969114210D0D96811420DD0D7
:10470000213A1A6119322277DA69C0239B0020000E
:104710001A424BD0FFF7A9FF002323770122236819
:104720001969114207D0D968114204D0033A200018
:104730001A6101F0FBFC802223681969114208D03C
:10474000D968114205D0023AFF3A20001A6100F000
:10475000B1F9402223681969114207D0D968114282
:1047600004D0813A20001A61FFF781FF20222368DC
:104770001969114207D0D968114204D0413A20008A
:104780001A6100F096F910BDFFF76EFF2000FFF7E9
:104790006DFF81E7FFF768FF2000FFF767FF91E7F4
:1047A000FFF762FF2000FFF761FF9FE7FFF75CFF65
:1047B0002000FFF75BFFAFE710B5184C0368A0427D
:1047C0000AD0174A904207D0164A904209D1164A99
:1047D0001A40CB6813430AE0702293434A6813439C
:1047E000F5E7124A9042F2D0114A9042EFD080226F
:1047F00093434A69134303608B68C3620B68836207
:10480000A04205D0094B984202D0094B984201D1F1
:104810000B6903630123436110BDC046002C0140B6
:104820000004004000200040FFFCFFFF0044014066
:104830000048014070B504000120002C14D0250070
:104840003D352B78DAB2002B05D123003C33200014
:104850001A70FEF727FD02232B702068211DFFF739
:10486000ABFF012300202B7070BD70B50400012048
:10487000002C14D025003D352B78DAB2002B05D161
:1048800023003C3320001A70FFF7EDFE02232B704B
:104890002068211DFFF790FF012300202B7070BDC1
:1048A0001022036A70B593430362056A154C42688F
:1048B000836923400C6824021C4320239D438B689A
:1048C0001B012B43104DA8420FD18025AB431E0086
:1048D000CB68403D1B013343AB430C4D8E69154003
:1048E0004A69324392002A4305E0094DA842F4D0B8
:1048F000084DA842F1D042604A6884618263036235
:1049000070BDC046FF8CFFFF002C0140FFF3FFFF8E
:104910000044014000480140F7B50700150002229D
:104920003C370C00397803001000012911D0012117
:10493000397019003D3101910A70082D44D009D811
:10494000002D1DD0042D2DD001230020019A1370BD
:104950003870FEBD0C2DF7D11D6821002800FFF72F
:104960003FFE8023EA691B011343EB61EB691F4A99
:104970001340EB612369EA691B021343EB61E3E730
:104980001D6821002800FFF7B7FD0823AA6913431B
:104990000422AB61AB699343AB61AB6922691343FA
:1049A000AB61D1E71D6821002800FFF779FF802364
:1049B000AA691B011343AB61AB690C4A1340AB619D
:1049C0002369AA691B02EAE71E6821003000FFF78D
:1049D000C7FD0422F3691D43F561F3699343F36155
:1049E000F36922691343F361AEE7C046FFFBFFFFA3
:1049F0001F2310B5012419408C408A40036AA34349
:104A00000362036A1A43026210BD000010B5046815
:104A100001222000FFF7ECFF0C4B9C4205D00C4B11
:104A20009C4202D00B4B9C4204D18023626C1B023F
:104A3000134363640722A3681340062B03D00123AA
:104A4000226813432360002010BDC046002C0140A3
:104A5000004401400048014010B5FFF7D7FF002097
:104A600010BD1F2310B5042419408C408A40036AEE
:104A7000A3430362036A1A43026210BD10B50468BF
:104A800004222000FFF7EDFF8023626C1B0213431A
:104A900007226364A3681340062B03D00123226816
:104AA00013432360002010BD10B5FFF7E7FF00207F
:104AB00010BD70477047000070B5040003682E49B0
:104AC0001A6919250A40C1680A431A618268006997
:104AD000D968024360690243284801400A43DA600A
:104AE0005A692748E16902400A435A615A692548D0
:104AF0000240A06902435A6180231B01994220D1E0
:104B0000FFF7E6FC616868434900FBF7F5FA6421AA
:104B10000600FBF777FBC80032306421FBF7ECFAA4
:104B2000642105003000FBF7E7FA072300012B4062
:104B3000C018F8236D005B0024681D404519A5606E
:104B400070BDFFF7C5FC616868438900FBF7D4FAC4
:104B500064210500FBF756FB080132306421FBF7A6
:104B6000CBFA2668642104002800FBF7C5FA00018F
:104B70002418B460E4E7C046FFDFFFFFF3E9FFFF5E
:104B8000FFF7FFFFFFFCFFFFF8B504000E00170062
:104B90001D002268136833409E4201D1002016E0B8
:104BA0006B1CF7D0002D13D123680C49DA68032061
:104BB0000A40DA605A69A331FF318A435A61220000
:104BC0002023453213705370002344342370F8BD02
:104BD000FEF77CFFC01B8542DBD2E5E75FFEFFFFEF
:104BE0007047000070B504000120002C3ED0250065
:104BF00045352B78DAB2002B05D123004433200051
:104C00001A70FFF7EDFF24232B7022681849D36830
:104C100020000B40D360FFF74FFF226A2368002A71
:104C200011D052060FD55A691248616A02400A43F0
:104C30005A6180225201914205D15A690E490A40B7
:104C4000A16A0A435A611A690C4900200A400821E6
:104C50001A615A698A435A618022D96892010A43CB
:104C6000DA602023A06446342B70237070BDC046E8
:104C7000FFDFFFFFFFEFFFFFFF9FFFFFFFF7FFFFDC
:104C8000F0B585B003930300453301931B7804000E
:104C90000D0017000220202B44D10138002941D0FB
:104CA000002A3FD08023A2685B019A4204D1236985
:104CB000002B01D1014235D1230044331A78022060
:104CC000012A2FD0012200261A702123019AA664FE
:104CD0001370FEF7FBFE8023A2680290278667868A
:104CE0005B019A4204D12369B34201D12E001D0019
:104CF000638E002B0DD140212000039B029AFFF709
:104D000043FF00280DD12023019A443413702070F2
:104D100008E080212000039B029AFFF735FF00285E
:104D200002D0032005B0F0BD2268002D09D13388E0
:104D30000236DB05DB0D5360638E013B9BB263865D
:104D4000D6E72B7801355360F6E7F0B585B00393CD
:104D50000300463301931B7804000D001700022066
:104D6000202B33D10138002930D0002A2ED08023C7
:104D7000A2685B019A4204D12369002B01D1014250
:104D800024D1230044331A780220012A1ED00122A4
:104D900000261A702223019AA6641370FEF796FE6D
:104DA0008023A2680290278767875B019A4204D11B
:104DB0002369B34201D12E001D00638F98B2002BEE
:104DC00006D1019A203344341370207005B0F0BD31
:104DD00020212000039B029AFFF7D6FE00280FD166
:104DE00023685B68002D08D1DB05DB0D33800236BC
:104DF000638F013B9BB26387DFE72B700135F7E7D9
:104E00000320E3E7FA2307B59B0001900122034842
:104E100001A9FFF735FF01980EBDC0461C08002010
:104E2000FA2307B59B000122024801A9FFF78DFF75
:104E300001980EBD1C08002070B50E00140000255E
:104E4000A54201DB200070BD705DFFF7DBFF01357F
:104E5000F6E770B50E0014000025A54201DB200026
:104E600070BDFFF7DDFF70550135F6E7012310B582
:104E7000022804D905F0ECF9092303600023180087
:104E800010BD002310B5022804D905F0E1F909236B
:104E900003600A3B180010BD10B505F0D9F90923CD
:104EA00003600120404210BD10B5022804D88023C1
:104EB0009B014B60002010BD05F0CAF90923036077
:104EC000F8E710B505F0C4F958230360012040420B
:104ED00010BD10B505F0BCF9582303600120404215
:104EE00010BD00000C490D4A4B6812681B0C1B04D6
:104EF000134380229201134310B54B600023084CEA
:104F000008499A00105901335050302BF9D18022B2
:104F1000054B92059A6010BD00100240040FFF1F60
:104F2000000000080000002000ED00E010B502F0D5
:104F300083F9084B041C186802F07EF9011C201C40
:104F400001F0C8FE044B196801F072FD034901F03D
:104F500093F910BD140FFF1F3C0600200000F04124
:104F600070B504000848001B02F066F9074901F01B
:104F70005FFD051C200002F05FF9011C281C01F0F8
:104F800089FB01F061F970BDFF0F00000050C347BD
:104F900010B502F051F9134901F07CFB05F0DEFA7F
:104FA000114901F077FB04F099F9104A104B02F017
:104FB00089F904F0DBF9011CFE20800501F06AFB91
:104FC00004F08CF90B4A0C4B03F0A0FC04F0CEF972
:104FD0000A4901F02DFD05F0F1FA084901F05AFBEC
:104FE00010BDC0460050C34700D0844583DBB5DC0C
:104FF000E1796B3F6666666666127140000020418B
:10500000F0B5824D85B02800FEF73CFEFA2128005D
:105010008900FEF75DFE2800FEF7BAFE7C4C206496
:105020002800FEF72FFEFA2128008900FEF750FE27
:105030002800FEF7ADFE230060648C331B78002B44
:105040000BD02800FEF71EFEFA2128008900FEF78B
:105050003FFE2800FEF79CFE20652800FEF712FEAA
:10506000FA2128008900FEF733FE2800FEF790FEA3
:105070002300A0648C331B78002B0BD02800FEF794
:1050800001FEFA2128008900FEF722FE2800FEF723
:105090007FFEE0642800FEF7F5FDFA212800890074
:1050A000FEF716FE2800FEF773FE594C60652800D7
:1050B000FEF7E8FDFA2128008900FEF709FE280026
:1050C000FEF766FEA06502F0B7F8011C8B20C00554
:1050D00001F0E0FA04F002F94E4A4F4B03F04EF9AA
:1050E00004F044F9051CE067606DFFF71FFF236CB7
:1050F000E0621800009302F09FF8E621890501F0B4
:1051000097FC291C01F094FC636C0290E065180088
:10511000019302F091F8E621890501F089FC291C30
:1051200001F086FC2066071CA06C02F085F8E621E1
:10513000890501F07DFC291C01F07AFC2300039015
:1051400060668C331B78002B56D0E06C02F074F84C
:10515000E621890501F06CFC291C01F069FCA066C0
:10516000061C206D02F068F8E621890501F060FC5C
:10517000291C01F05DFCE066254C284B1E602300D5
:1051800094331860029B00986361FFF7E9FEA06109
:10519000FFF7FEFE061CE06101982762FFF7E0FEC4
:1051A0006062FFF7F5FE1E49A062051C039801F03E
:1051B0003FFC271DF86727000837F96F301CFBF705
:1051C00075F9002800D0FE67270088373968281C49
:1051D000FBF76CF9002800D03D601249301CFBF74A
:1051E0006FF900280BD00620FDF7E4FF2300A2880A
:1051F000AC331A8005B0F0BD0B4E301CBCE709493A
:10520000281CFBF75DF90028F0D0ECE74C060020E5
:1052100080090020333333333333F33F100A002047
:10522000000030410000F042000080BF70470000E5
:105230000122014B9A707047780900200122014B2E
:105240001A707047780900200122014B5A7070478C
:10525000780900200122014BDA717047780900209B
:105260000122014B5A717047780900200122014B3D
:105270001A7170477809002070B5144B14481B78D8
:10528000144C082B0ED80122110099400B00EA2182
:105290001D0049000D400B4211D1AB39FF392A00E6
:1052A0000B420CD10022C36B934208D0A31CD98FB0
:1052B000E06BFEF715FF421E531E9A41D2B2A31CAB
:1052C000D98FE06BFEF712FF70BDC046B009002019
:1052D000800900208C06002013B50B480B4C007889
:1052E0000B4B0C4A1B7812780B490090200004F0FD
:1052F0008DFF2000FAF7E4FEFA2382B221009B0022
:105300000648FFF7BDFC13BD0D0EFF1F6E08002001
:105310000E0EFF1F0F0EFF1F87AA0008CC070020EC
:1053200084B030B50F4B85B009915B78050009ACAE
:105330000998002B05D0237E002B02D0E16900F0F4
:105340009BFF094B011C0293FF2301936369280013
:1053500000932369E26800F073FD05B030BC08BC1F
:1053600004B018478009002000007A4310B50020DF
:10537000FEF71EF810BD0000F0B5374B87B01B6E6E
:105380000493FFF73DFE354B3549DC6F354D201C4E
:10539000FBF78CF8002803D02B00012278331A7019
:1053A000201C03F09BFF0600E86F0F0003F096FF40
:1053B0002D4C32003B00009001912C49200004F05C
:1053C00025FF2000FAF77CFEFA23294E82B2210045
:1053D00030009B00FFF754FC2B009433186803F057
:1053E0007DFF2B00029003919033186803F076FF45
:1053F000204F00900191049A3900200004F006FF2C
:105400002000FAF75DFEFA2382B29B0021003000F3
:10541000FFF736FCE86903F061FF04900591A86A84
:1054200003F05CFF049A059B134F00900191390033
:10543000200004F0EBFE2000FAF742FEFA2382B2CD
:10544000210030009B00FFF71BFCEB69EB60AB6AAF
:105450002B6107B0F0BDC046001002408409002057
:1054600000009040800900206E0800209AAA0008E1
:10547000CC070020CFAA00080FAB0008F0B500252C
:105480003A4C3B4B2200210089B01D7000230832AA
:105490008831D3670B602300A0331D602300A43341
:1054A0001D60230001269C331D60E369314FE360DA
:1054B000A36A29002361304B280007931E70A5635F
:1054C000A580E5633E70FEF719FA29002800FEF773
:1054D00021FA2A4B2A4A586C11883200FEF706FE40
:1054E000234B26701B78AB422FD1079ABB70937069
:1054F0006378AB4201D0BE709670012369463034A8
:105500002370204B204AC1CBC1C141CB41C1130004
:1055100020330ECB0020FFF703FF20781B4940010A
:105520000C1823006A460C33E0CBE0C2C0CBC0C2EB
:10553000415862680120A368FFF7F2FE0020144B77
:10554000185600F0A5FD09B0F0BD124C124920001C
:1055500004F084FE2000FAF7B3FDFA2382B22100A2
:105560009B000E48FFF78CFBE8E7C046800900204F
:10557000B00900206B080020680800208C0600207D
:10558000D4060020E0030020B40300209402002091
:10559000750900206E08002048AB0008CC070020E9
:1055A00010B50024154B21001A001C709C80144B70
:1055B00030321C70134B200014701C70FEF79EF9E3
:1055C00021002000FEF7A6F900200F4B185600F02E
:1055D00087FD00200D4B185600F082FD0C4C0D4944
:1055E000200004F03BFE2000FAF76AFDFA2382B2A5
:1055F00021009B000848FFF743FB10BD80090020F5
:105600006B08002068080020710900207409002040
:105610006E0800206CAB0008CC070020002201219E
:10562000194B10B55A709A70DA70597100219A713D
:105630001A70DA71154B181DC167180078300270A6
:105640001C00180088340830D9601961D96199624A
:10565000D962D9672160C167190098310A601900C1
:105660009C310A601900A031DA631A705A631A86F5
:105670009A605A705A809A809A630A601900AC3313
:10568000A4310A601A8010BD78090020800900202A
:10569000F0B5012700248BB0FEF700FA00F07EFD84
:1056A000FDF778FF00F098FCFEF792F9FDF7BCFEDD
:1056B000FEF74EF8FFF7B2FF4A4B4B4D1F704B4BB6
:1056C0004B4A1F704B4B28004B491C7014709C7048
:1056D00094704A4B4A4A04F099FD2800FAF7F0FC0E
:1056E000FA2382B229009B004648FFF7C9FAFFF768
:1056F000F3FD3900444800F0B3FCFA21434B490064
:105700001870434800F0ACFCFA21424B4900187075
:105710004148069300F0A4FCFA21404B4900187060
:105720003F48079300F09CFC3E4B3F4918703F48B0
:1057300000F096FC3E4B3F4918703F4800F090FC4B
:105740003E4B3F4918703F4800F08AFCFA213E4B1F
:10575000490018703D4B3E489F7100F081FC3D4B65
:105760003D4A1870089212783C4B520198189C469A
:105770000300694609920C3364CB64C144CB44C135
:105780006346099AD158426883682000FFF7C8FD34
:10579000089B334A197894464B011D0065440893D1
:1057A0002B0068460C3346CB46C044CB44C063460E
:1057B000089A3800D1586A68AB68FFF7B1FD00203D
:1057C000069B185600F064FC0020079B185600F05A
:1057D0005FFC244B244A586C11882200FEF786FC9B
:1057E0000BB0F0BD6F0900206E0800206E0900208C
:1057F000680800206B0800208BAB00087CAB000819
:1058000083AB0008CC0700202D5200087709002048
:1058100079520008760900204952000873090020D7
:10582000315200087509002060EA00003D5200086E
:1058300074090020881300006152000872090020DA
:10584000204E000055520008700900207809002001
:105850006D52000871090020B0090020B403002037
:10586000940200208C060020D406002070B5204D44
:105870002B78002B06D000200123010028706B70CC
:10588000FEF73CF81B4C2378002B06D000200123A8
:10589000010020706370FEF73DF8FFF7B1FB6B78F5
:1058A000002B03D000236B7001332B706378002B27
:1058B00003D000236370013323700F4B0F4C1B7810
:1058C000032B13D12500A4352B68002B0ED10C49D6
:1058D000A06AFAF7F5FD002808D0FA21A06BA034E1
:1058E00023688900C01AFAF707FC286070BDC0461B
:1058F0006B08002068080020B00900208009002003
:105900000000BE4270B5164C0020E16900F0CEFAEE
:10591000A16A012000F0CAFA124E306A00F094FC2D
:10592000C5B22571F06E00F08FFC0F4B60711878D6
:10593000011E05D098782900002801D000212800F8
:10594000FDF7DCFF094B1878011E06D09B7800217B
:105950006079002B01D101001800FDF7DBFF70BD5D
:1059600080090020300A00206B0800206808002011
:10597000F0B51E4C93B0A36B1D4D11932300303333
:105980001B781C4E0E93E06F03F0A8FC23000C90D4
:105990000D91AD331B78184F0A93386F03F09EFCBE
:1059A00008900991A06A03F099FC230006900791E2
:1059B000AC331B780493786A03F090FC0290039157
:1059C000E06903F08BFC119A0090019131002800EE
:1059D00004F01CFC2800FAF773FBFA2382B22900BA
:1059E0009B000648FFF74CF913B0F0BD800900207A
:1059F0006E080020AAAB0008300A0020CC07002067
:105A0000F0B5154B154C85B0D86F03F067FC23003B
:105A1000A4331B680600039323009C331B6888345F
:105A2000029320680F0003F059FC0D4D0D4C32001D
:105A30003B00009001912900200004F0E7FB2000CA
:105A4000FAF73EFBFA2382B221009B000648FFF7DB
:105A500017F905B0F0BDC046880900208009002074
:105A6000E0AB00086E080020CC070020F0B5AB4D7D
:105A700089B02B78AA4C0793012B56D1FE21A94E51
:105A800089052700706A01F025F90837011CF86FB5
:105A9000FAF716FD002800D1B8E0FE21270089059D
:105AA000306F01F017F98837011C3868FAF708FDE4
:105AB000002800D1AAE00223FA212B70A06B8900F4
:105AC0002600FAF719FB69469C36974B3060C1CB2C
:105AD000C1C1964A41CB41C1130040330ECB0020D7
