:020000040800F2
:1000000000200020115600081132000813320008A9
:1000100000000000000000000000000000000000E0
:100020000000000000000000000000001532000881
:10003000000000000000000017320008193200081C
:1000400061560008615600086156000861560008B4
:1000500061560008615600086156000861560008A4
:100060000000000061560008615600080000000012
:1000700061560008213200086156000800000000A7
:100080006156000861560008000000006156000833
:100090000000000061560008615600086156000823
:1000A00000000000615600080000000061560008D2
:1000B000D95300080000000000000000000000000C
:1000C0000023C25C0133002AFBD1581E7047000098
:1000D00002B4714649084900095C49008E4402BCDB
:1000E0007047C04603B47146490840004900095EA4
:1000F00049008E4403BC7047002243088B4274D3EE
:1001000003098B425FD3030A8B4244D3030B8B4218
:1001100028D3030C8B420DD3FF22090212BA030C21
:100120008B4202D31212090265D0030B8B4219D302
:1001300000E0090AC30B8B4201D3CB03C01A524122
:10014000830B8B4201D38B03C01A5241430B8B426A
:1001500001D34B03C01A5241030B8B4201D30B0353
:10016000C01A5241C30A8B4201D3CB02C01A52417A
:10017000830A8B4201D38B02C01A5241430A8B423D
:1001800001D34B02C01A5241030A8B4201D30B0226
:10019000C01A5241CDD2C3098B4201D3CB01C01A40
:1001A000524183098B4201D38B01C01A524143094A
:1001B0008B4201D34B01C01A524103098B4201D338
:1001C0000B01C01A5241C3088B4201D3CB00C01AA5
:1001D000524183088B4201D38B00C01A524143081D
:1001E0008B4201D34B00C01A5241411A00D2014642
:1001F000524110467047FFE701B5002000F0F0F8CB
:1002000002BDC0460029F7D076E7704703460B438E
:100210007FD4002243088B4274D303098B425FD3FF
:10022000030A8B4244D3030B8B4228D3030C8B422B
:100230000DD3FF22090212BA030C8B4202D3121211
:10024000090265D0030B8B4219D300E0090AC30BE6
:100250008B4201D3CB03C01A5241830B8B4201D393
:100260008B03C01A5241430B8B4201D34B03C01A7C
:100270005241030B8B4201D30B03C01A5241C30AF4
:100280008B4201D3CB02C01A5241830A8B4201D365
:100290008B02C01A5241430A8B4201D34B02C01A4F
:1002A0005241030A8B4201D30B02C01A5241CDD2F4
:1002B000C3098B4201D3CB01C01A524183098B423F
:1002C00001D38B01C01A524143098B4201D34B0128
:1002D000C01A524103098B4201D30B01C01A52418B
:1002E000C3088B4201D3CB00C01A524183088B4212
:1002F00001D38B00C01A524143088B4201D34B00FB
:10030000C01A5241411A00D201465241104670476C
:100310005DE0CA0F00D04942031000D34042534071
:1003200000229C4603098B422DD3030A8B4212D331
:10033000FC22890112BA030A8B420CD38901921163
:100340008B4208D3890192118B4204D389013AD0A0
:10035000921100E08909C3098B4201D3CB01C01A75
:10036000524183098B4201D38B01C01A5241430988
:100370008B4201D34B01C01A524103098B4201D376
:100380000B01C01A5241C3088B4201D3CB00C01AE3
:10039000524183088B4201D38B00C01A5241D9D2FB
:1003A00043088B4201D34B00C01A5241411A00D27C
:1003B0000146634652415B10104601D34042002B78
:1003C00000D54942704763465B1000D3404201B5F7
:1003D000002000F005F802BD0029F8D016E77047AC
:1003E0007047C0468446100062468C46190063463A
:1003F00000E0C0461FB506F095FD002801D400219D
:10040000C8421FBD10B506F0D7FC4042013010BDF8
:1004100010B506F087FD002801DB002010BD01208B
:1004200010BDC04610B506F07DFD002801DD00209E
:1004300010BD012010BDC04610B506F003FD002818
:1004400001DC002010BD012010BDC04610B506F033
:10045000F9FC002801DA002010BD012010BDC046C3
:10046000844608006146FFE71FB505F08FFC0028B1
:1004700001D40021C8421FBD10B505F017FC404251
:10048000013010BD10B505F081FC002801DB002013
:1004900010BD012010BDC04610B505F077FC002846
:1004A00001DD002010BD012010BDC04610B505F0D3
:1004B00025FC002801DC002010BD012010BDC04635
:1004C00010B505F01BFC002801DA002010BD01204A
:1004D00010BDC0460100343138C9043B9C461D6044
:1004E000A646010020313CC990469946A246AB463B
:1004F00001000831FCC941680068E54600BDC046FE
:100500007047C0467047C0467047C0467047C046F7
:100510007047C0467047C0467047C0467047C046E7
:100520007047C0467047C04601B401A801B585B008
:10053000FFB408A841464A4653465C4665463EC05D
:1005400001A83EC80F98009000230CB401A907F041
:1005500069FE109B12B0184701B401A801B585B01F
:10056000FFB408A841464A4653465C4665463EC02D
:1005700001A83EC80F98009000230CB401A907F011
:1005800085FE109B12B0184701B401A801B585B0D3
:10059000FFB408A841464A4653465C4665463EC0FD
:1005A00001A83EC80F98009000230CB401A907F0E1
:1005B00091FE109B12B0184701B401A801B585B097
:1005C000FFB408A841464A4653465C4665463EC0CD
:1005D00001A83EC80F98009000230CB401AB07F0AF
:1005E0004BFE109B12B0184701B401A801B585B0AD
:1005F000FFB408A841464A4653465C4665463EC09D
:1006000001A83EC80F98009000230CB401AA07F07F
:10061000CBFE109B12B018471C2101231B049842EB
:1006200001D3000C10391B0A984201D3000A083983
:100630001B09984201D30009043902A2105C40183A
:100640007047C046040302020101010100000000DE
:10065000000000000448054B10B5834203D0044B52
:10066000002B00D0984710BD7404002074040020B3
:100670000000000006480749091A8B10C90FC91865
:1006800010B5491003D0044B002B00D0984710BD83
:1006900074040020740400200000000010B5074C12
:1006A0002378002B09D1FFF7D5FF054B002B02D093
:1006B000044800E000BF0123237010BD780400202F
:1006C0000000000040900008054B10B5002B03D03F
:1006D0000449054800E000BFFFF7CCFF10BDC0464D
:1006E000000000007C04002040900008F0B51F00CE
:1006F000002316008BB09F4204DA802109067B1884
:100700001F002D23129A149D1370202303229D4352
:10071000462D07D02B00453B59424B411099013AD9
:10072000CB18109309AB049308AB0393139B00926F
:100730000293109B320001933B0000F04BFE04003B
:10074000472D1BD1119BDB0711D5109BC3180793B5
:100750000022002330003900FFF754FE002801D0AA
:10076000079B09933022099B07998B4220D32000D5
:10077000099B159A1B1B13600BB0F0BD109BC3188F
:100780000793462DE4D10378302B0CD100220023AF
:1007900030003900FFF736FE002804D10123109AFB
:1007A0009B1A139A1360139B079A1B68D318CEE702
:1007B000591C09911A70D6E7F0B52B2385B00500B6
:1007C0000C1E027001DA4C4202336B70092C2EDDD4
:1007D00002ABDE1D20000A21FFF7FEFD370030319D
:1007E000013E200031700A210194FFF70FFD019BAB
:1007F0000400632BEEDCBA1E30341470AC1C130002
:10080000210002A8073098420CD802AB0733002021
:10081000934203D3093002ABC018C01B0019401B20
:1008200005B0F0BD1878013308700131E9E73023D5
:10083000E418AB70281DEC70F1E70000F0B597B03C
:100840000C001C9D0A920B93099000F0B9FC036800
:1008500018000F93FFF734FC002307221090149325
:10086000237E0E93236811932B6807339343012251
:10087000C0CB2B607B005B080D930C96A664E764ED
:100880000C980D99A44B524207F0BAFA002831D1C6
:100890000C980D990122A04B5242FFF7C3FD00288E
:1008A00028D10022002330003900FFF7B1FD0028D5
:1008B00003D023002D2243331A70984B0C930E9BC8
:1008C000472B01D8964B0C9303230025119A2361E3
:1008D00001339A4322600B9B2100009309980A9BE5
:1008E00015AA00F0D9F9013000D099E0012040426A
:1008F00017B0F0BD32003B003000390007F080FA3D
:1009000000280CD0002F03DA23002D2243331A7065
:10091000844B0C930E9B472BD6D8834BD3E72022D6
:100920000E9D636895435A1C44D10733636080234E
:10093000119ADB00134300222360069214AA059249
:100940000E9A0AA9049213AA039223225218029221
:10095000019363683200009309983B00FFF7C6FEDD
:1009600013990C90472D2BD1CB1C02DB63688B4273
:1009700044DA0E9E023EF3B20E9320000E9A013925
:1009800050301391FFF718FF149A050013182361D4
:10099000012A02DC2268D20701D501332361232317
:1009A0000AAA9B181B78002B95D023002D224333D5
:1009B0001A7090E7472DBAD1002BB8D10133B5E7B3
:1009C0000E9B652BD9D90E9B662B19D16368002924
:1009D00009DD2161002B02D12268D2070BD501333A
:1009E0005B18236107E0002B03D10122206810422D
:1009F00000D09A1C22610025A165D0E767230E93E1
:100A0000149B8B4205DC23682161DB07F3D54B1C6B
:100A1000E7E70122002901DC9218521A9B18E0E74F
:100A20002268530508D423690C9A0A9909980B9DEA
:100A3000A847013029D159E70E9B652B00D8D6E095
:100A4000A06CE16C00220023FFF7DCFC002833D00F
:100A50000123364A0A9909980B9DA847013000D115
:100A600044E7149E139BB34202DB2368DB070CD5DB
:100A70000B9D109B0F9A0A990998A84700250130F1
:100A800000D133E7731EAB420ADC23689B0700D515
:100A900000E1159BE068984200DB29E7180027E792
:100AA000220001230A9909980B9F1A32B847013096
:100AB00000D11BE70135E5E7139B002B38DC012350
:100AC0001A4A0A9909980B9DA847013000D10DE7F1
:100AD000149E139B334302D12368DB07D5D50B9DAE
:100AE000109B0F9A0A990998A8470025013000D158
:100AF000FCE6139B5B42AB4201DC330094E722002F
:100B000001230A9909980B9F1A32B847013000D186
:100B1000ECE60135EDE7C046FFFFEF7F709000087F
:100B20006C90000878900008749000087C90000891
:100B3000149EA76DB74200DD3700002F2FDCFB436A
:100B40000025DB173B400E93A76D0E9BFB1AAB42B3
:100B50002EDC139B9E4237DC2368DB0734D4139DC5
:100B6000F31B751B9D4200DD1D00002D35DCEB43A2
:100B70000027DB171D400C95139B0C9AF31A9B1A48
:100B8000BB4200DC81E7220001230A9909980B9DF2
:100B90001A32A847013000D1A8E60137ECE73B0044
:100BA0000C9A0A9909980B9DA8470130C7D19DE678
:100BB000220001230A9909980B9F1A32B847013085
:100BC00000D193E60135BFE7109B0F9A0A99099867
:100BD0000B9DA8470130C2D188E60C9B0A99DA190F
:100BE00009982B000B9FB8470130C0D17EE6149EB8
:100BF000012E02DC01231A4239D001230C9A0A99F2
:100C000009980B9FB847013000D16FE6109B0F9AEF
:100C10000A9909980B9FB847013000D166E6A06C8D
:100C2000E16C731E0E9300220023FFF7EBFB0028FC
:100C30001BD10C9A0E9B01320A9909980B9EB04762
:100C400001300ED152E6220001230A9909980B9E29
:100C50001A32B047013000D148E601370E9B9F425F
:100C6000F1DB22002B005032DFE60027F6E70C9A7A
:100C7000E2E7220001230A9909980B9E1932B04736
:100C8000013000D132E60135E368159A9B1AAB4278
:100C9000EFDCFEE60025F7E7F7B5160001938A685A
:100CA0000B690C000090934200DA130022003360BD
:100CB00043321278002A01D00133336023689B0647
:100CC00002D53368023333602268062315001D40C5
:100CD0001A4227D0230043331B785A1E93412268BF
:100CE000920630D4220001990098089D4332A8470B
:100CF000013025D00622236800251340042B05D19E
:100D00003368E568ED1AEB43DB171D40A3682269E1
:100D1000934201DD9B1AED180026B54220D1002038
:100D200010E00135E36832689B1AAB42D2DD220045
:100D3000012301990098089F1932B8470130F0D17A
:100D400001204042FEBD3020E118433108702100EF
:100D50005A1C45310978A218433202331170C1E799
:100D60002200012301990098089F1A32B8470130E8
:100D7000E6D00136D1E70000F0B58BB006920A004C
:100D800043320793059003920A7E0C00109B782A49
:100D900009D8622A0BD8002A00D1BAE07A49049116
:100DA000582A00D18EE0250042352A7022E010003A
:100DB00063381528F7D8FFF795F916001F00F6FFDE
:100DC000F6FFF6FFF6FF1F00F6FFF6FFF6FFF6FF51
:100DD0009F0036007E00F6FFF6FFB000F6FF3600FB
:100DE000F6FFF6FF820025001A684235111D1960D2
:100DF00013682B7001239EE018680968021D0D0618
:100E00000BD506681A60002E03DA2D23039A76426A
:100E100013705D4B0A27049318E006681A604906B0
:100E2000F1D536B2EFE70868196840C9050602D463
:100E3000400600D5B6B21960534B0A2704936F2AB7
:100E400000D1023F2300002243331A706368A3607D
:100E5000002B06DB04212268039D8A432260334372
:100E60000CD0039D30003900FFF7CCF9049B013D05
:100E70005B5C2B70330006009F42F3D9082F09D129
:100E80002368DB0706D5626823699A4202DC3023B7
:100E9000013D2B70039B5B1B2361079B210000938B
:100EA0000598069B09AAFFF7F7FE013048D10120FB
:100EB00040420BB0F0BD202209680A43226078222C
:100EC00032490491210045310A701968226840C9ED
:100ED000100602D4500600D5B6B21960D30702D569
:100EE000202313432360002E01D01027AAE72022DD
:100EF000236893432360F8E71A680D68101D496959
:100F0000186013682E0601D5196002E06D06FBD546
:100F100019800023039D2361BFE71A68111D196022
:100F2000156800212800626800F0C3F9002801D08C
:100F3000401B6060636823610023039A1370ACE771
:100F40002A00236906990598079DA8470130AED06D
:100F500023689B0715D4099BE0689842A9DA18001A
:100F6000A7E72200012306990598079E1932B0478A
:100F700001309CD00135E368099A9B1AAB42F0DC42
:100F8000E9E70025F7E7C0467E9000088F9000084B
:100F9000002310B5040003604360836081814366D1
:100FA000C281036143618361190008225C3000F053
:100FB000FFF80B4B246263620A4BA3620A4BE362A5
:100FC0000A4B23630A4B9C4205D00A4B9C4202D039
:100FD000094B9C4203D12000583000F067F910BD46
:100FE000191100084111000879110008A511000825
:100FF00094040020FC0400206405002010B5034A7E
:101000000349044800F06CF810BDC046C000002041
:10101000252A0008D000002041680B4B10B50400C1
:10102000994201D001F0FEFCA168084B994202D020
:10103000200001F0F7FCE168054B994202D0200046
:1010400001F0F0FC10BDC04694040020FC04002018
:101050006405002010B5094B094A04211A600948AB
:101060000022FFF795FF012209210748FFF790FFB3
:10107000022212210548FFF78BFF10BDCC0500208E
:10108000FD0F000894040020FC04002064050020EB
:1010900010B5024800F00BF910BDC046D505002080
:1010A00010B5024800F004F910BDC046D505002077
:1010B00010B50400FFF7ECFF236A002B02D0FFF706
:1010C000EFFF10BD044B2362044B1B68002BF6D1CD
:1010D000FFF7C0FFF3E7C04619100008CC05002059
:1010E000F7B51400002600900191A5686768013FDC
:1010F00004D52468002CF8D13000FEBDAB89012B4B
:1011000008D90E22AB5E013304D029000098019B60
:10111000984706436835EAE770B50C000E25495F2D
:1011200000F078F8002803DB636D1B18636570BD61
:10113000A389024A1340A381F9E7C046FFEFFFFFEE
:10114000F8B51F008B8905000C001600DB0505D5DE
:101150000E23C95E0022022300F048F8A389054A45
:1011600028001340A38132000E23E15E3B0000F013
:1011700065F8F8BDFFEFFFFF70B50C000E25495F65
:1011800000F034F80C22A35E421C03D1044A134041
:10119000A38170BD802252011343A3816065F8E7EB
:1011A000FFEFFFFF10B50E23C95E00F00DF810BD74
:1011B00003008218934200D1704719700133F9E798
:1011C000004870470C020020002370B5064D040053
:1011D00008002B6003F03BFA431C03D12B68002B63
:1011E00000D0236070BDC046D005002070B504005B
:1011F000080011001A000023054D2B6003F032FA9D
:10120000431C03D12B68002B00D0236070BDC04667
:10121000D005002070B50400080011001A0000235A
:10122000054D2B6003F0FBF9431C03D12B68002B09
:1012300000D0236070BDC046D005002070B504000A
:10124000080011001A000023054D2B6003F0DAF9A5
:10125000431C03D12B68002B00D0236070BDC04617
:10126000D005002070B500260C4C0D4D641BA41059
:10127000A64209D1002607F0E3FE0A4C0A4D641B82
:10128000A410A64205D170BDB300EB5898470136B3
:10129000EEE7B300EB5898470136F2E7A89700084D
:1012A000A8970008AC970008A897000870477047F7
:1012B0007047C9B28218904201D10020704703786C
:1012C0008B42FBD00130F6E7F0B503690C6989B0B9
:1012D000039006910020A34263DB0B00013C143312
:1012E000A50004935B190593039B143301935D19C7
:1012F000059B2F681E68380001363100FEF7FCFEA2
:101300000290B74227D3049B00279C46019E079773
:10131000624608CA30689446029A99B251431B0C3F
:101320005343C9190A0C9B1889B282B2521A079901
:101330001F0C5218000C9BB21114C31A5B1819141D
:1013400092B21B04134308C6059B07916345DFD285
:101350002B68002B2BD00699039801F0B9F90028CF
:101360001EDB0026019D049901C92B6887B29AB241
:10137000D21B9219000C1B0C1B1A10141B181E14E4
:1013800092B21B04134308C5059B8B42ECD2019A11
:10139000A300D3181A68002A14D0029B01330293C9
:1013A000029809B0F0BD2B68002B04D1013C019BD1
:1013B000043DAB42F7D3039B1C61CCE71A68002ABB
:1013C00004D1013C019A043B9A42F7D3039B1C6170
:1013D000E3E70000F0B514001D00C2699DB0109451
:1013E0001195259F0290002A10D1102000F028FEB0
:1013F000029B021ED86104D1EF21C04BC04801F00E
:1014000059FB0023436083600360C36011680029B7
:101410000BD001235268029893404A608B6000F021
:101420000DFF0022029BDB691A602E1E1DDA0123CC
:101430006E00DE403B601196B24BB24A334093429D
:1014400016D1B14B249A3603360B1360264301D1D3
:1014500000F07DFDAD4B269A0593002A02D0AC4BDF
:10146000269A136005981DB0F0BD00233B60E3E7AA
:10147000109A119B0C920D930C980D990022002349
:10148000FEF7C0FF071E0BD00123249A1360269B92
:10149000002B02D09F4B269A13609F4B0593E1E7E8
:1014A0001AAB01931BAB009302980C9A0D9B01F0B1
:1014B000CFF91A9B0490310D059300D17BE00D9B71
:1014C00019971A03954B120B1343954A8E180C98D3
:1014D0000D9919000022934B06F05AF8924A934B4B
:1014E00005F08EFD924A934B04F02EFD040030006F
:1014F0000D0006F0E3FC904A904B05F081FD0200E0
:101500000B002000290004F01FFD04000D0006F070
:1015100099FC00220390002320002900FEF778FFA9
:1015200000280BD0039806F0C9FC2B002200FEF720
:1015300069FF43425841039B1B1A039301231393F2
:10154000039B162B10D80C980D99039A7C4BD20054
:101550009B181A685B68FEF75BFF002847D0039B67
:10156000013B039300231393059B9E1B00230693CB
:10157000731E03D50122931B069300230A93039B3A
:10158000002B36DB039A0A9B944663440A9300239C
:1015900012920E93229B0124092B61D8052B02DDA8
:1015A0000024043B2293229B981E032862D8FEF756
:1015B0008FFD53553629059B1B9FDF19614BFA1888
:1015C000202A0FDD40239B1A9E405F4B3000FB1802
:1015D000DC40204306F0A0FC01225C4B7E1ECB18B1
:1015E000199276E7202320009B1A9840F2E7139087
:1015F000BAE7069B039A9B1A069353420E93002365
:101600001293C7E70123239A0F939446039B6344E5
:101610000B9301330893002B08DC012306E0012320
:101620000F93239B002B29DD0B930893029A002133
:10163000D0690422150014354E1C9D4223D9416007
:10164000029800F0B9FD059000281FD1B021404B51
:101650002B48059AFF31D2E60023E1E70023D2E7C9
:1016600000230F942293013B00220B930893133322
:101670002392DBE701230F93023BF5E701231A00D6
:101680000B930893F4E731005200D3E7029B059ACD
:10169000DB691A60089B0E2B00D9DEE0002C00D11C
:1016A000DBE0039B002B68DD0F21039A244B0A40EB
:1016B000D2009B181E685F68039B02251C110C9AC0
:1016C0000D9B14921593039BDB050AD5214B0C400F
:1016D0001A6A5B6A0C980D9905F050F814901591F0
:1016E00001351C4B0993002C36D114981599320002
:1016F0003B0005F043F806000F005BE0AD900008EA
:10170000C49000080000F07F0F270000A990000897
:10171000AC9000087D9000087C9000080000F03F2D
:1017200001FCFFFF0000F83F61436F63A787D23FD2
:10173000B3C8608B288AC63FFB799F501344D33FC0
:10174000089300083204000012040000000010FE9C
:101750001D910008E092000801231C4209D0ED18F9
:10176000099B30001A685B68390005F049FC0600E7
:101770000F00099B64100833B4E7039B02250C9EFD
:101780000D9F002B16D00F225C422240D24BD2007C
:101790009B1830001A685B68390005F031FCCF4BAC
:1017A000060009930F0000232411002C00D098E0BC
:1017B000002BA0D1139B002B00D1A1E00022300010
:1017C0003900C74BFEF724FE002800D198E0089BA3
:1017D000002B00D194E00B9B002B3EDD039B3000DF
:1017E000013B390009930022BE4B05F009FC0600BD
:1017F0000F000B9C0135280006F060FB32003B0017
:1018000005F0FEFB0022B84B04F09EFBB74B149092
:101810001591CB181593149A159B16921793002CBB
:1018200072D1002230003900B14B05F0B1FE169A9A
:10183000179B06000F00FEF7FFFD002800D0AAE26C
:101840008020000684461599300061440B00149AEC
:101850003900FEF7DDFD002826D11B9B002B00DAA6
:1018600069E1039A0E2A00DD65E19B4BD2009B18CB
:101870005C681B6806930794239B002B00DBE4E065
:10188000089B002B00DDE0E00ED1069807990022AE
:10189000974B05F0B5FB02000B000C980D99FEF775
:1018A000C1FD002800D179E200263700239B059C6A
:1018B000DB430993039700273100029800F0BEFC38
:1018C000039B002B00D1B6E0002F05D09F4203D030
:1018D0003900029800F0B2FC0399029800F0AEFCC7
:1018E000A9E00122144206D0099BAD181A685B6872
:1018F00005F086FB0123099A64100832099254E727
:10190000039B089C099376E7734B621ED2009B18D9
:1019100018685968059BE31818930F9B002B49D052
:1019200002000B000020734904F028FF169A179B51
:1019300005F02EFE059B149015911693390030008A
:1019400006F080FA050006F0B9FA02000B0030003C
:10195000390005F01DFE169B30355C1C1D70149A75
:10196000159B06000F00FEF753FD002863D13200DF
:101970003B0000205A4905F00BFE149A159BFEF718
:1019800047FD002800D0B9E0189B9C4200D164E7D5
:10199000149815990022534B05F032FB0022149045
:1019A0001591504B3000390005F02AFB16940600C3
:1019B0000F00C3E7169A179B05F022FB14901591B0
:1019C000059D3900300006F03DFA040006F076FA75
:1019D0000B0002003900300005F0DAFD3034189BAE
:1019E0002C70013506000F00AB4227D114981599D1
:1019F00000221C003F4B04F0A7FA02000B0030004D
:101A00003900FEF719FD002800D077E0149A159BE5
:101A10000020384905F0BCFD02000B003000390001
:101A2000FEF7F6FC002800D117E72300013C2278DE
:101A3000302AFAD01C00099B03933DE00022294B79
:101A400005F0DEFA06000F00BBE7089F059E013F88
:101A5000BF19069A079B0C980D9904F08FFE06F0AB
:101A6000F1F9050006F02AFA069A079B05F0C8FA74
:101A700002000B000C980D9905F08AFD2A00330036
:101A80003032013634001A709F4247D102000B00F9
:101A900004F05AFA069A079B06000F00FEF7CCFCEA
:101AA000002829D1069A079B30003900FEF7AAFCCE
:101AB000002801D0ED071FD40499029800F0BEFB66
:101AC00000232370039B249A01331360269B002B71
:101AD00000D1C7E41C60C5E408930008E092000848
:101AE0000000F03F0000244000001C400000C0FC4B
:101AF000000014400000E03F039B099323001C00FA
:101B0000013B1A78392A06D1059A9A42F7D1099AE7
:101B100001320992302201321A708CE70022C64B42
:101B200005F06EFA002200230C900D91FEF76AFC7E
:101B300000288ED0C0E70F9F0E9D069C002F14D06A
:101B4000229A012A00DDE4E0199A002A00D1DAE0A5
:101B5000BA4A9B18069A0121D21806920A9A02984C
:101B6000D3180A9300F022FC0700002C0ED00A9B29
:101B7000002B0BDD0A9A2300944200DD1300069A25
:101B8000E41AD21A06920A9AD31A0A930E9B002BD1
:101B900021D00F9B002B00D1D3E0049E002D14D048
:101BA00039002A00029800F0C5FC049A01000700E1
:101BB000029800F013FC06000499029800F03EFB26
:101BC0000E9B04965B1B0E9305D031000E9A029873
:101BD00000F0B0FC04900121029800F0E7FB129B9A
:101BE0000600002B00D1BCE11A000100029800F0B1
:101BF000A1FC229B06000025012B16DC0025109B72
:101C0000AB420ED1119B1B03AB420AD18C4B119AF4
:101C1000134206D0069B0135013306930A9B01331C
:101C20000A93129B0120002B08D0336903339B00D9
:101C3000F318586800F06AFB2023181A0A9B18183A
:101C400002001F231A40184200D181E001339B1A81
:101C5000042B79DD1C239B1A069AE418D2180692ED
:101C60000A9AD3180A93069B002B05DD1A000499E3
:101C7000029800F0C1FC04900A9B002B05DD3100A6
:101C80001A00029800F0B8FC0600139B002B61D0EC
:101C90003100049800F01CFD00285BDA039B0A2247
:101CA000013B099304990023029800F0EBFA0F9B83
:101CB0000490002B00D15BE1002339000A22029836
:101CC00000F0E0FA0B9B0700002B4DDC229B022B5F
:101CD00046DD0B9B002B00D0E8E531000522029881
:101CE00000F0D0FA06000100049800F0F1FC002892
:101CF00000DCDBE5059B059A5C1C31231370099B16
:101D000001330993D6E536231A9A0E9D9B1A069C39
:101D100020E7089B5D1E0E9BAB4208DB5D1B089B0A
:101D2000002BF4DA069B089A9C1A002312E70E9BFC
:101D3000129AEB1AD31812930E95069C0025089B55
:101D400008E70E9A049942E7042B8CD01C3383E7F2
:101D50001300FBE7039B0993089B0B93002BB5DD56
:101D60000F9B002B00D107E1002C05DD390022007C
:101D7000029800F041FC07000397002D20D07968FD
:101D8000029800F019FA041E0CD122002D4B2E48A7
:101D90002E49FFF734FB26003700ABE7039B089E74
:101DA0000993F9E739003A690C31023292000C309C
:101DB00000F076FE01222100029800F01DFC039045
:101DC000059B0B9A0693013B9B1801220E93109BD7
:101DD00013400C9331000498FFF776FA39000500A0
:101DE0000A90049800F074FC039A0B90310002985A
:101DF00000F08AFC0122C368040030350892002BF1
:101E000004D10100049800F063FC089021000298BE
:101E100000F014FA069B229A5C1C089B13430C9A50
:101E2000134315D1392D2ED00B9B002B01DD0A9DBC
:101E30003135069B1D703FE500002440330400004F
:101E40000000F07F1D910008C4900008EF02000020
:101E50000B9B002B04DB229A13430C9A13431ED1D5
:101E6000089B002BE5DD04990122029800F0C4FBD9
:101E70003100049000F02CFC002802DCD9D1EB07E3
:101E8000D7D5392DD3D13923069A137023001C00DE
:101E9000013B1A78392A51D001321A700CE5089B9F
:101EA000002B03DD392DEED00135C2E7069B0E9ADB
:101EB0001D7093422DD000230A220499029800F04D
:101EC000E1F9039B04909F4209D1390000230A22C3
:101ED000029800F0D7F90700039006947AE73900DA
:101EE00000230A22029800F0CDF9002307000A22FD
:101EF0000399029800F0C6F90390EEE700240B9BCB
:101F0000A34201DD1C00013C03970027059B013320
:101F1000E41804990122029800F06EFB310004904D
:101F200000F0D6FB0028B1DC01D1ED07AED42300D0
:101F30001C00013B1A78302AFAD0BDE4059A9A4277
:101F4000A5D1099B0133099331231370B4E4154BD8
:101F5000269A0593144B002A01D0FFF781FAFFF768
:101F600081FA229B012B00DC48E60120129D65E6E8
:101F70000B9B002B00DCA9E6002431000498FFF73E
:101F8000A3F9059B303018550B9B01340500A34283
:101F9000B4DD00230A220499029800F073F904903A
:101FA000EBE7C046A0900008A890000870B50500B7
:101FB0000C1E10D0043C2368002B00DAE418280023
:101FC00000F0EAF81D4A1368002B05D16360146025
:101FD000280000F0E9F870BDA34208D92068211854
:101FE0008B42F3D119685B6809182160EEE71A008B
:101FF0005B68002B01D0A342F9D911685018A042A8
:102000000BD120680918501811608342E0D118687C
:102010005B68411811605360DAE7A04202D90C23D3
:102020002B60D5E7206821188B4203D119685B68C3
:102030000918216063605460CAE7C046DC050020CF
:1020400010B5034B0100186800F026F810BDC0461B
:10205000CC00002070B50F4E0D003168040000293F
:1020600002D100F00BFD30602900200000F006FDD9
:10207000431C03D101256D42280070BD0323C51CFC
:102080009D43A842F8D0291A200000F0F7FC013047
:10209000F2D1EFE7D8050020F7B50322CB1C93431C
:1020A000083305001F000C2B34D20C27B94233D85B
:1020B000280000F071F8374E33681C00002C2FD137
:1020C00039002800FFF7C6FF0400431C5FD13468C5
:1020D0000094009B002B4AD1002C52D0236828008A
:1020E000E3180099019300F0C9FC019B834248D199
:1020F00023682800FF1A3900FFF7ACFF013040D0F9
:102100002368DB19236033685A68002A33D1009BA7
:10211000336019E0002BC9DA0C232B600020FEBDD0
:102120002168C91B20D40B290AD9E2192760A342D0
:1021300004D1326063681160536005E05A60F9E7CA
:102140006268A3420ED13260280000F02DF8200012
:1021500007220B30231D9043C21A9842DFD01B1A6E
:10216000A350DCE75A60EFE723006468A6E7009C11
:1021700063680093ADE71A005B68A342FBD10023BC
:10218000DAE70C2328002B6000F00EF8C6E70760A2
:10219000DAE7C046DC05002010B50248FFF787F8F3
:1021A00010BDC046D405002010B50248FFF780F8E6
:1021B00010BDC046D405002070B5C46905000E00EE
:1021C000002C10D11020FFF73BFF041EE86105D161
:1021D00022006B21174B184800F06CFC0023436071
:1021E00083600360C360E368002B0BD121220421CC
:1021F000280000F07DFCEB69E060DB68002B01D17A
:10220000002070BDB2009B181868002805D0026835
:102210001A6000230361C360F3E701210C00B4409E
:10222000621D2800920000F063FC0028E8D04660A0
:102230008460EEE7AD9000082E91000870B5C66985
:1022400005000C00002E0ED11020FFF7F9FE021E33
:10225000E86104D18F21094B094800F02BFC46604E
:1022600086600660C660002C07D0EB696268DB6898
:1022700092009B181A6822601C6070BDAD90000827
:102280002E910008F7B50F0001900C001E000020F1
:102290000D6914373B68013099B251431B0C53430D
:1022A00089190E0C9B191E0C89B21B045B1808C7F8
:1022B0008542EFDC002E22D0A368AB4219DC6168B6
:1022C00001980131FFF778FF071E05D13A00BA21C6
:1022D0000C4B0D4800F0EEFB210022690C3102325C
:1022E00092000C3000F0DCFB21000198FFF7A6FF04
:1022F0003C002B1D9B00E31801355E60256120002A
:10230000FEBDC0461D9100082E91000880220300EA
:1023100052020020934201D21B041030802252044A
:10232000934201D208301B0280225205934201D20F
:1023300004301B018022D205934201D202309B005F
:10234000002B03DB0130134200D1202070470368CB
:10235000010007221800104013420DD0063A002059
:10236000134205D10230034203D0D34010000B606A
:1023700070479B080B60FBE79AB2002A01D110203E
:102380001B0CDAB2002A01D108301B0A1A0701D14E
:1023900004301B099A0701D102309B08DA07E9D4FF
:1023A00001305B08E6D12020E2E7000010B50C0008
:1023B0000121FFF701FF002807D14621054C02004B
:1023C000054B2000FF3100F075FB012344610361E0
:1023D00010BDC0462E9100081D910008F0B50D6992
:1023E00016690F00140089B0B54204DB33000C00FD
:1023F0002E0017001D0073190193A36872196168FC
:10240000934200DA0131FFF7D7FE0090002806D191
:10241000B121464B4648009A490000F04BFB009A18
:10242000731914329B00D3180293002113000298F1
:10243000834229D32300B6001433049314379B1925
:10244000AD000393BC462B00634407930023059320
:10245000230003991533994204D30C1B153CA4089F
:10246000A3000593079B9C4510D3019B002B05DD22
:10247000029B043B02931B68002B52D0009B019AE5
:1024800018001A6109B0F0BD02C3D0E763461C68AA
:10249000A4B2002C1ED017000025049E01CE3B687C
:1024A000069383B2634319006B46000C1B8B604399
:1024B000CB1806995B19090C4018190C41189BB2EE
:1024C0000D0C09041943039B02C7B342E6D8059BD0
:1024D000D3185D6063461C68240C1ED0116816007A
:1024E00008000027049D2B68000C9BB26343DB1996
:1024F0001B18180489B20843306080CD70683F0C07
:10250000674381B279181B0CC918039B0F0C043662
:10251000AB42E8D8059BD318596004239C44D218D9
:10252000A0E7019B013B01939FE7C0461D91000876
:102530002E910008F7B50323150007000C001A4080
:102540001D4208D02849013A920052580023210028
:10255000FFF798FE0400AB10019342D0FD69002DF7
:1025600011D11020FFF76CFD051EF86106D1B421D2
:102570002A001E4B1E48FF3100F09CFA00234360E6
:1025800083600360C360AE68002E07D1380019492C
:10259000FFF70CFF00230600A86003600122019BE7
:1025A00025001340019A52100192002B0CD02100FB
:1025B00032003800FFF712FF290004003800FFF74F
:1025C0003DFE019B002B0CD03068002807D1320063
:1025D00031003800FFF702FF00233060036006007F
:1025E000DCE72000FEBDC046D4920008AD90000894
:1025F0002E91000871020000F0B50C00160023694E
:10260000571187B0FB180293013301934968A368FF
:102610000390019A934210DB0398FFF7CDFD00234E
:10262000010005001A00143198420CD1EF212A0054
:10263000254B2648490000F03DFA01315B00E8E7F0
:1026400098000A500133BB42FADBFB43DB171F4003
:10265000BF002300C9191F203700226914339200DC
:1026600005919A180740064228D00130C01B0490FB
:1026700000201E688C46BE4006436046066001CBC3
:10268000049E0431F0409A42F3D821001531002312
:102690008A4203D3131B153B9B089B00059AD31852
:1026A0005860002801D1029B0193019B03982100EF
:1026B0002B61FFF7C3FD280007B0F0BD40CB0E60D3
:1026C00004319A42FAD8EEE71D9100082E910008D5
:1026D00030B50B6904690200E01A9C420FD1143234
:1026E0009B0014311400C918D218043A0439156833
:1026F0000B689D4204D001209D4200D2023830BDBB
:102700009442F2D3FBE70000F0B50C0087B00090D4
:10271000110020001700FFF7DBFF051E10D101009C
:102720000098FFF749FD021E04D1454B4548464934
:1027300000F0C0F9012345610361100007B0F0BD4E
:102740000026B04203DA23003C001F000136616816
:102750000098FFF731FD021E03D1394B39483B4940
:10276000E6E72369143400939B00E31801931423D4
:102770009C463B69BC449B00634402930300C660D3
:10278000002014330393059304946146049B20CBEB
:10279000049308C98C46A9B20E0099B2711A09189F
:1027A0002D0C1B0C0814EB1A1B18181489B21B04EF
:1027B0001943059B02C30593029B6345E5D83B0083
:1027C000029D153300219D4203D3EB1B153B9B0853
:1027D0009900039B5B1861180E1D350004330293AA
:1027E000039B1B1B0393039B9C46019BAC449D4294
:1027F00012D3019801310023884204D3030003332C
:102800009B1B9B089B0002995B18043B19680029DD
:1028100011D0009B136190E7070008CD98B2C01952
:1028200000141C0C0419DB1920149BB2240423434C
:1028300064462360D7E7009901390091E5E7C04677
:102840001D9100082E91000837020000450200008B
:10285000F7B5012116001F00FFF7AEFC041E05D1DD
:102860002200254B2548264900F024F93B037D0032
:102870001B0B6D0D02D08022520313430193002ED7
:1028800025D068460096FFF762FD009900281CD00D
:10289000019B20221E00121A96403200C3400A43B8
:1028A00062610193019EA661731E9E4101362661FD
:1028B000002D14D03526134BED18089B2D181D60E4
:1028C000099B361A1E602000FEBD6161EAE701A87F
:1028D000FFF73DFD019B012663612030E7E70A4BCE
:1028E000C018089B1860094BF3189B00E31858693F
:1028F000FFF70CFD7601E3E71D9100082E9100081B
:102900000F030000CDFBFFFFCEFBFFFFFFFFFF3FEC
:10291000F7B50C228B5E05000C001A075AD44A68E2
:10292000002A02DC0A6C002A4FDDE76A002F4CD037
:10293000002280212E682A601A0049010A400B42B9
:1029400034D0626DA3895B0706D56368D21A636BC6
:10295000002B01D0236CD21A00232800E76A216AD9
:10296000B8470C23E25E431C06D129681D292ED8E6
:102970002B4BCB40DB072AD5002363602369236000
:10298000D20405D5431C02D12B68002B00D1606511
:10299000616B2E60002918D023004433994202D085
:1029A0002800FFF703FB002363630EE001232800E8
:1029B000216AB8470200431CC4D12B68002BC1D048
:1029C0001D2B01D0162B1DD12E60002021E04023AD
:1029D00013431BE00E69002EF7D00F680E60BA1B80
:1029E000019200229B0700D14A69A260019B002B43
:1029F000EBDDA36A32001F002800019B216AB84763
:102A0000002807DC4023A28913431BB20120A381C5
:102A10004042FEBD019B36181B1A0193E6E7C046F3
:102A2000010040200B6970B505000C00002B02D19D
:102A30000025280070BD002804D0036A002B01D1B6
:102A4000FEF736FB0C22A35E002BF1D0626ED2079C
:102A500004D49B0502D4A06DFEF729FC28002100B8
:102A6000FFF756FF636E0500DB07E2D4A3899B05E1
:102A7000DFD4A06DFEF71CFCDBE70000002370B57F
:102A8000064D040008002B6006F0CAFA431C03D16F
:102A90002B68002B00D0236070BDC046D0050020FD
:102AA000002310B59A4200D110BDCC5CC454013350
:102AB000F8E700007FB514001A00094B05001B68F9
:102AC0000E00D868074B002C01D1074B1C000749AA
:102AD000019302942B00009600F056F800F064F881
:102AE000CC00002092910008199200089F910008E4
:102AF00070B50B0C150C002B1ED1002D0CD189B21A
:102B000094B24C432100FFF7C7FA051E1BD02200E8
:102B10000021FEF74DFB16E02B1C0C1C89B292B273
:102B20004A439BB2A1B25943140C0C19230C07D190
:102B3000240492B21443E5E7002D01D1141CEDE703
:102B40000C2300250360280070BD82B0002900D14D
:102B500001A9101E06D0002B06D013780B60107848
:102B6000431E984102B0704702204042FAE703003A
:102B7000081E05D0FF2A04D98A2201201A6040428B
:102B8000704701200A70FBE70EB417B5054C05AB82
:102B900004CB01002068019300F034F81EBC08BC8F
:102BA00003B01847CC000020062010B500F022FA30
:102BB000012006F043FA936810B5013B9360002BA7
:102BC00004DA9469A34207DB0A2905D01368581C6C
:102BD00010601970080010BD00F034F90100F9E729
:102BE000F8B506000F001400D518AC4201D1002042
:102BF00007E021783A003000FFF7DDFF0134431C85
:102C0000F3D1F8BDF0B59FB00D0016001C00029086
:102C1000002804D0036A002B01D1FEF749FA6B6E3D
:102C2000DB0705D4AB899B0502D4A86DFEF73FFBFB
:102C3000AB891B0702D52B69002B13D12900029801
:102C400000F042F900280DD06B6EDB0703D50120A0
:102C500040421FB0F0BDAB899B05F8D4A86DFEF7CC
:102C600027FBF4E70023292102AA52180B932033F3
:102C70001370013102AA10335218137005943400F6
:102C80002378002B01D0252B48D1A71BB4420BD0B1
:102C90003B00320029000298FFF7A2FF013000D16B
:102CA000AEE00B9BDB190B932378002B00D1A7E040
:102CB0000122532100235242079202AA5218661C95
:102CC00006930993089313701C93594F317805228A
:102CD0003800FEF7EEFA741C069906AB00281FD1E7
:102CE000CA0604D55327202202A8C01902700A0779
:102CF00004D553272B2202A8C019027032782A2A41
:102D000015D0340000200A27DA682178661C303993
:102D1000092950D9002811D009920FE00134AFE7FA
:102D20000123C01B83400B4326000693CDE7059A81
:102D3000101D12680590002A37DBDA6022782E2AEF
:102D40000CD162782A2A3BD1059A0234111D1268EF
:102D50000591002A01DA012252425A60354E0322BF
:102D600030002178FEF7A5FA06AF002806D04023F0
:102D7000801B8340069A0134134306932178062270
:102D80002D48661C3976FEF794FA002847D02B4B65
:102D9000002B29D10722059B073393430833059362
:102DA0000B9B03995B180B9369E75242DA6002228E
:102DB0000A430692C2E77A43340001205218A4E77E
:102DC00000220A205A601100130001342278661C88
:102DD000303A092A03D9002BC0D00791BEE74143FE
:102DE000340001238918F1E705AA009239002A006E
:102DF000134B0298FDF722FD0390039B0133CFD1C3
:102E00006B6EDB0705D4AB899B0502D4A86DFEF77A
:102E10004FFAAB895B0600D519E70B9819E705AAAD
:102E2000009239002A00064B0298FDF7A5FFE3E760
:102E3000CE910008D4910008D89100083D08000800
:102E4000E12B0008F8B506000D001400002804D09E
:102E5000036A002B01D1FEF72BF9A369A360A389B4
:102E60001B0702D52369002B09D12100300000F097
:102E70002BF8002803D001256D422800F8BD2369F6
:102E80002068EFB2C01A6369EDB2834205DC21000D
:102E90003000FFF7C7FD0028EDD1A3680130013BEA
:102EA000A36023685A1C22601F706369834204D0A8
:102EB000A389DB07E1D50A2DDFD121003000FFF720
:102EC000B1FD0028D9D0D6E72B4B70B505001868A6
:102ED0000C00002804D0036A002B01D1FEF7E8F8AB
:102EE0000C22A35E1A0722D4DA0607D409222A602C
:102EF000373201201343A381404270BD5A0713D5D6
:102F0000616B002908D023004433994202D0280085
:102F1000FFF74CF8002363632422A3899343002224
:102F2000626022691BB2226008221343A3812269D6
:102F3000002A07D19A0501D51B0603D521002800D8
:102F400000F0D2F80C23E25E012113000B400A428C
:102F50000CD00023A36063695B42A3610020236956
:102F60008342CAD11306C8D54023C2E7910700D4D3
:102F70006369A360F2E7C046CC00002010B5884228
:102F800002D98B18984208D300239A4207D0CC5C10
:102F9000C4540133F9E78B5C8354013AFBD210BD72
:102FA00070B504000D001F2904D916230360012009
:102FB000404270BDC36B002B04D08A009B181A6876
:102FC000002A08D1200000F031F82A00010020007A
:102FD00000F01AF8EDE7012A09D0511C03D116239D
:102FE00003600120E5E700212800196090470020D8
:102FF000DFE7000010B5034B01001868FFF7D0FFB2
:1030000010BDC046CC000020002370B5064D040062
:10301000080011002B6001F042FB431C03D12B6818
:10302000002B00D0236070BDD005002010B501F04A
:103030002EFB10BDF7B506000C001500002905D1C8
:103040001100FFF729F804002000FEBD002A03D17B
:10305000FEF7ACFF2C00F7E700F0A4F8070085426C
:1030600002D84308AB42EFD329003000FFF714F831
:103070000190002801D1019CE6E72A00BD4200D959
:103080003A0021000198FFF70BFD21003000FEF708
:103090008DFFF0E7F0B50E001D000E23C95E140091
:1030A00097B000290CDAB2898023110019401A4226
:1030B00014D18023DB0000202960236017B0F0BD0D
:1030C0006A4600F04BF80028EDDBF02301991B0263
:1030D0001940044BC9184B425941EAE700214023EB
:1030E000E9E7C04600E0FFFFF7B502268B8905003F
:1030F0000C00334206D023004733236023610123B1
:103100006361F7BD6A4601ABFFF7C4FF009F28006B
:103110003900FEF7C1FF0C22A35E002806D19A05F4
:10312000EFD4032293431E43A681E4E78022134396
:10313000A381019B206020616761002BE1D0280002
:103140000E23E15E00F01CF80028DAD00323A289E8
:103150009A43023B1343A381D3E70000002370B5D9
:10316000064D0400080011002B6001F083FA431C97
:1031700003D12B68002B00D0236070BDD005002048
:10318000002370B5064D040008002B6001F054FACE
:10319000431C03D12B68002B00D0236070BDC046B8
:1031A000D00500200B1F1B68181F002B01DA0B58DD
:1031B000C018704701210A4B82B01A6C0A431A6486
:1031C0001A6C0A4080210092009ADA6B49050A4382
:1031D000DA63DB6B0B400193019B02B07047C04682
:1031E0000010024007B58021084B09011A6C0D2020
:1031F0000A431A6400221B6C0B4001931100019BCF
:1032000000F0BCF90D2000F0E3F907BD001002400A
:103210007047FEE77047704710B500F03DF810BDED
:1032200010B5024800F009FE10BDC046540E002043
:10323000104B70B519680500002901D1012070BD3F
:10324000FA208000FCF758FF0B4C01002068FCF7C7
:1032500053FF00F0C9F9041EF0D1032DEED802008F
:1032600001202900404200F089F9044B20001D6034
:10327000E5E7C04688020020900200208C02002072
:1032800010B50320FFF7D4FF041E03D1FFF792FF10
:10329000200010BD0124FBE7034A044913680968B4
:1032A0005B1813607047C046E005002088020020CC
:1032B000014B18687047C046E005002070B5074D07
:1032C00004002B680020A34206D0054B1868FFF7C6
:1032D000AFFF002800D12C6070BDC04688020020DE
:1032E0008C0200207047000070B5041E00D17FE002
:1032F000836B002B05D102003432C3631370FFF7D8
:10330000F1FFA36BDB0600D574E0226893685B07CE
:1033100000D56FE0A16B3A4B19400633FF330B43E6
:10332000A3639368DB070BD41821D3688B43A16890
:103330000B43D360136961681B011B090B431361C5
:10334000D36830490B40D360617E237E48039B03E2
:103350000343E0680343601DC07F40000343A06A4D
:103360000138451EA8410003034320690238454245
:10337000684180000343A07E012804D1002925D1A3
:10338000802149020B43C220E169FF30814202D013
:10339000206A01430B43D1681943D160E16A0729D0
:1033A00006D807255069A84350615069014351610F
:1033B000D26815490A409A4210D100200323E063E5
:1033C000A26B9A43023B1343A36370BD2021A56BFC
:1033D0002943A163E16B0843E063D4E71223A26BA6
:1033E0009A43023B1343A3630123E26B1343E3635A
:1033F0000120EAE71023A26B1343A363F8E7C0465A
:10340000FDFEFFFF19C2FEFFE7FF3FC3F7B5002334
:10341000040001933434237806000220012B26D0C7
:10342000013820703568AB685B074ED40A684F6876
:103430001300BC46274F90400B3BBC4536D0AF6ACB
:103440003843A862F06A07280CD907206E6989689A
:103450000640B14206D06E69014086436E616E69D6
:1034600031436961012B03D9002000232370FEBD85
:1034700013000B3B5D1EAB41802517495B429B0D42
:1034800008689B052D045B1903430B600B2AEBD1E5
:10349000124B13491868FCF72FFE0A23434301938C
:1034A000019B002BE0D0019B013BF8E7AA6A824315
:1034B000AA62012BD8D8581E8341074A09481168CF
:1034C0009B051B180B401360CEE72023B26B134300
:1034D000B363CAE7011000000827014090020020F2
:1034E00040420F00FFFF7FFFF8B5050034352B7811
:1034F00004000220012B38D00138287023689A6814
:10350000024233D1A16B1C4A11400632FF320A43FA
:103510000321A263DE68DA688A43DA608022996850
:1035200012060A439A60FFF7C3FE070023689A68F1
:10353000002A0CDB0321DA680E4016430222002029
:10354000DE60A36B9343A36300232B700DE0FFF7B2
:10355000AFFEC01B0228E9D91223A26B01209A43B7
:10356000023B1343A36300232B70F8BD2023A26BFF
:103570001343A363E8E7C046FDFEFFFF10B5FF2439
:1035800003220B0021000240D20091409B01234006
:10359000C943934000280ADBC0240B4A80088000FE
:1035A0008018A40002590A401343035110BD0F2292
:1035B00010400838054A800880008018C269114010
:1035C0001943C161F2E7C04600E100E000ED00E010
:1035D000002805DB1F2318401E3B8340014A13606F
:1035E0007047C04600E100E08022431E52040120E3
:1035F00093420DD2C021074A07485360036A090667
:103600001B021B0A0B430362002007239060136018
:103610007047C04610E000E000ED00E010B5841CEB
:10362000E37F022B03D004238363012010BD0E210E
:10363000026813688B43136001231168994311607A
:103640000B498A4203D00B4B9A420DD110230A4AF0
:10365000536001230022E377C318DA77436B934268
:1036600000D098470020E1E780235B00EFE7C046E9
:10367000080002401C000240000002400020054BF0
:103680005A69824205DA044A9A60044A9A60586983
:10369000C00F70470020024023016745AB89EFCD82
:1036A0008022044B120659690A435A615869C04383
:1036B000C00F704700200240064B01205A6952009B
:1036C00006D5054ADA60054ADA6058694000C00F3D
:1036D0007047C046002002403B2A19087F6E5D4CAF
:1036E0008022054BD20559690A435A615869012362
:1036F0004000C00F58407047002002408023034A1A
:103700001B05516901200B435361704700200240A3
:1037100070B504008025FFF7CBFD6D020419074B3F
:103720001A69100028402A4205D0FFF7C1FDA042C7
:10373000F5D3032001E0024A1A6170BD0020024067
:1037400011800000F8B5554C010023780220012BB0
:1037500000D196E001232370514B52485A68FF254F
:103760001204520F920012584F4B10685F68060007
:103770002E40B7422AD19F68BC46C701FF0DBC4509
:1037800024D15F69000A284087421FD15068DF6852
:103790000540AF421AD11D694001400D854215D147
:1037A00090689D69C003C00B85420FD1D068DD6968
:1037B000C003C00B854209D110691F6A85B2AF42B0
:1037C00004D15D6A8000800C85421CD05E60106868
:1037D000C001C00D9860507858615068C0B2D86080
:1037E00050684001400D18619068C003C00B98619B
:1037F000D068C003C00BD861106980B2186212692A
:103800009200920C5A620A68284BD00703D5486888
:10381000C04380B2D862900704D5C8688D680002A2
:10382000284358620C2010400C2809D14D691A6AAF
:10383000F330284382438869096901430A430CE055
:1038400050071FD5FF20FF251A6A000202400969B0
:10385000186A1543A8430A4302431A628022596931
:1038600092020A435A618022596952040A435A61FA
:10387000FA20FF220E4B80001A60FFF749FF002359
:103880002370F8BD1207E9D5FF264D69186A1A6A38
:1038900035438969AA433040CFE7C046E40500209C
:1038A00000100240D4940008FC2002400020024096
:1038B00080200240494AF0B58218541EA2410023DC
:1038C00085B0013201910392019A12681400DC4024
:1038D00001D105B0F0BD01249C40A44661461440CE
:1038E00000940A4277D0019A102452681500A5432B
:1038F0000295022D0ED107250F261D40AD00AE40CA
:10390000DC08A4000419276A0199B7430E69AE4088
:103910003E432662032426005D00AE401440AC40C6
:103920000168F743B1430C430460029C013C012C45
:103930000DD801998668CC683E40AC403443846021
:10394000614614099C4046688E43344344600199A3
:10395000C6688C683E40AC403443C460D4003AD55D
:1039600003260F241E40F600B4401D499D08AD00FB
:103970006D182F6EA743A024E405041B611E8C4123
:10398000039964420C40B44000993C430E002C66FD
:10399000144CCD43E76F3E43D10301D43E002E408B
:1039A000E667114E009FF46F2743910301D42C402A
:1039B00027000B4CF7672768009E3E43D10201D4D5
:1039C0003E002E4026606668009F3743920201D475
:1039D0002E4037006760013376E7C04600FCFFAF3A
:1039E000001802400418024008180240006908400C
:1039F000431E9841C0B27047002A01D081617047D0
:103A00008162FCE74369194201D08162704781619C
:103A1000FCE7000030B587B001A90A00134B31CB99
:103A200031C211CB11C2124B38229C6820001040C9
:103A300014420ED107241A685B68D20A5B0B22403D
:103A40002340042B00D8180080000858D04007B04D
:103A500030BD99681140082906D098681040183880
:103A600043425841C003F2E70248F0E7589000088B
:103A70000010024000366E01F8B5051E01D101208C
:103A8000F8BD0368DB0708D42B689B0758D42B6864
:103A90001B0700D5C5E00020F2E738227B4CA36865
:103AA0001340082B06D123689B03EDD54368002BF8
:103AB000EAD1E4E74368002B2AD081680029DED0F0
:103AC0000C20226982430A432261802252029342DF
:103AD00011D1226813432360FFF7EAFB8027060019
:103AE000BF0223683B42CFD1FFF7E2FB801BC8280F
:103AF000F7D90320C4E7A021C9028B4208D1802353
:103B00002168DB020B43236023681A432260E3E74A
:103B100022685F490A40226022685E490A402260AA
:103B2000002BD9D1FFF7C4FB80270600BF02236812
:103B30003B42A9D0FFF7BCFB801BC828F7D9D8E7C8
:103B40003823524CA2681A4235D123685B0503D54D
:103B5000EB68002B00D192E763686A691B0C1B04B9
:103B600013436360FFF7A4FB80270600FF00236870
:103B70003B421AD02368484A13402A691343236002
:103B8000FFF748FFA36845491B051B0F9B005B58C7
:103B90001F210B40D840424A424B10601868FFF783
:103BA00047FB002800D172E769E7FFF781FB801B24
:103BB0000228DCD99DE7EB68002B1FD02368364A2A
:103BC000802713402A69FF00134323608023226863
:103BD0005B0013432360FFF76BFB060023683B4247
:103BE00006D063686A691B0C1B04134363604EE7CD
:103BF000FFF75EFB801B0228F0D97AE723682A4A88
:103C0000802713402360FFF753FB0600FF00236863
:103C10003B4200D13BE7FFF74BFB801B0228F6D964
:103C200067E73822194CA3681340182B08D1236E7C
:103C30009B0700D42FE7A86943425841C0B21FE751
:103C4000AA690123002A10D0226E0226134323669C
:103C5000FFF72EFB0500236E334200D01BE7FFF772
:103C600027FB401B0228F6D943E7226E02269A431F
:103C70002266FFF71DFB0500236E334200D10AE7E1
:103C8000FFF716FB401B0228F6D932E7001002406E
:103C9000FFFFFEFFFFFFFBFFFFC7FFFF14950008BC
:103CA000900200208C020020FFFEFFFFF7B5040009
:103CB0000E00002801D10120FEBD0127434D2B68D5
:103CC0003B408B4228D32268930739D4D20746D48D
:103CD00001272B683B40B34208D92B68BB432B60BC
:103CE000FFF7E6FA06002B683B4260D12368384DA7
:103CF0005B0763D4FFF78EFEAB6836491B051B0FCD
:103D00009B005B581F210B40D840334A334B106057
:103D10001868FFF78DFACFE72B68BB430B432B6086
:103D2000FFF7C6FA01902B683B40B342CBD0FFF7B8
:103D3000BFFA019BC01A2A4B9842F4D90320BBE773
:103D40002349530704D5E0238868DB0103438B60D4
:103D50008B6824480340A06803438B60B6E7626821
:103D60001B4F012A19D13B689B03A4D50721BB68CF
:103D70008B431343BB60FFF79BFA01903823BA686B
:103D80001A406368DB009A42A2D0FFF791FA019BC8
:103D9000C01A134B9842F1D9D0E7002A03D13B68EF
:103DA0005B05E3D487E73B6E9B07DFD483E7FFF730
:103DB0007FFA0B4B801B984295D9BFE7AB680A4A44
:103DC0001340E2681343AB6094E7C0460020024012
:103DD0000010024014950008900200208C02002080
:103DE00088130000FFF0FFFFFF8FFFFF064B07491E
:103DF0009B68074A5B045B0F9B005B581F211068A0
:103E00000B40D8407047C04600100240F4940008B0
:103E100090020020012203680720D9681143D9606D
:103E200099680140062902D019680A431A600020E7
:103E3000704770477047704770470222036810B59B
:103E40001969040011420ED0D96811420BD0053A0D
:103E50001A61043202779B699B0700D179E0FFF772
:103E6000E9FF00232377042223681969114210D047
:103E7000D96811420DD0093A1A61073222779A693E
:103E8000C0239B0020001A4269D0FFF7D3FF002314
:103E9000237708222368196911420ED0D96811428C
:103EA0000BD0113A1A610D322277DB6920009B0793
:103EB0005BD0FFF7BFFF0023237710222368196927
:103EC000114210D0D96811420DD0213A1A6119322D
:103ED0002277DA69C0239B0020001A424BD0FFF7FB
:103EE000A9FF00232377012223681969114207D013
:103EF000D968114204D0033A20001A6101F02AFB6C
:103F0000802223681969114208D0D968114205D06E
:103F1000023AFF3A20001A6100F08EF8402223682E
:103F20001969114207D0D968114204D0813A2000A2
:103F30001A61FFF781FF202223681969114207D017
:103F4000D968114204D0413A20001A6100F073F898
:103F500010BDFFF76EFF2000FFF76DFF81E7FFF751
:103F600068FF2000FFF767FF91E7FFF762FF20007F
:103F7000FFF761FF9FE7FFF75CFF2000FFF75BFFA4
:103F8000AFE7000010B5184C0368A0420AD0174AEA
:103F9000904207D0164A904209D1164A1A40CB687F
:103FA00013430AE0702293434A681343F5E7124A29
:103FB0009042F2D0114A9042EFD0802293434A6956
:103FC000134303608B68C3620B688362A04205D011
:103FD000094B984202D0094B984201D10B69036307
:103FE0000123436110BDC046002C01400004004085
:103FF00000200040FFFCFFFF00440140004801405A
:1040000070B504000120002C14D025003D352B781C
:10401000DAB2002B05D123003C3320001A70FFF7E1
:10402000E1F802232B702068211DFFF7ABFF01236D
:1040300000202B7070BD7047704700000368064970
:10404000DA6846300A40DA605A692331FF318A4320
:104050005A61202303707047DFFEFFFF70B5040034
:1040600003682E491A6919250A40C1680A431A6172
:1040700082680069D96802436069024328480140A8
:104080000A43DA605A692748E16902400A435A61E3
:104090005A6925480240A06902435A6180231B01E6
:1040A000994220D1FFF7A2FE616868434900FCF7FE
:1040B00023F864210600FCF7A5F8C800323064211B
:1040C000FCF71AF8642105003000FCF715F8072307
:1040D00000012B40C018F8236D005B0024681D40D0
:1040E0004519A56070BDFFF781FE616868438900CE
:1040F000FCF702F864210500FCF784F8080132306F
:104100006421FBF7F9FF2668642104002800FBF70F
:10411000F3FF00012418B460E4E7C046FFDFFFFFAF
:10412000F3E9FFFFFFF7FFFFFFFCFFFFF8B5040017
:104130000E0017001D002268136833409E4201D113
:10414000002016E06B1CF7D0002D13D123680C491A
:10415000DA6803200A40DA605A69A331FF318A43E2
:104160005A612200202345321370537000234434D7
:104170002370F8BDFFF79CF8C01B8542DBD2E5E752
:104180005FFEFFFF7047000070B504000120002CA7
:104190003ED0250045352B78DAB2002B05D123001F
:1041A000443320001A70FFF7EDFF24232B702268A0
:1041B0001849D36820000B40D360FFF74FFF226AF5
:1041C0002368002A11D052060FD55A691248616A35
:1041D00002400A435A6180225201914205D15A6934
:1041E0000E490A40A16A0A435A611A690C49002023
:1041F0000A4008211A615A698A435A618022D968A3
:1042000092010A43DA602023A06446342B702370A5
:1042100070BDC046FFDFFFFFFFEFFFFFFF9FFFFF07
:10422000FFF7FFFFF0B585B003930300453301931B
:104230001B7804000D0017000220202B44D1013808
:10424000002941D0002A3FD08023A2685B019A4216
:1042500004D12369002B01D1014235D1230044331D
:104260001A780220012A2FD0012200261A70212359
:10427000019AA6641370FFF71BF88023A2680290CE
:10428000278667865B019A4204D12369B34201D134
:104290002E001D00638E002B0DD140212000039BBA
:1042A000029AFFF743FF00280DD12023019A4434DE
:1042B0001370207008E080212000039B029AFFF712
:1042C00035FF002802D0032005B0F0BD2268002D84
:1042D00009D133880236DB05DB0D5360638E013B69
:1042E0009BB26386D6E72B7801355360F6E7F0B5CD
:1042F00085B003930300463301931B7804000D003F
:1043000017000220202B33D10138002930D0002A99
:104310002ED08023A2685B019A4204D12369002B2E
:1043200001D1014224D1230044331A780220012A0A
:104330001ED0012200261A702223019AA66413704F
:10434000FEF7B6FF8023A2680290278767875B018C
:104350009A4204D12369B34201D12E001D00638F1C
:1043600098B2002B06D1019A203344341370207088
:1043700005B0F0BD20212000039B029AFFF7D6FE76
:1043800000280FD123685B68002D08D1DB05DB0D09
:1043900033800236638F013B9BB26387DFE72B706C
:1043A0000135F7E70320E3E7F0B506004636357838
:1043B0000300ECB20220202D1ED1013800291BD0B1
:1043C000002A19D01D0044352F780130012F13D059
:1043D0005A871A8700202222986459633270287005
:1043E0001B68DE32D9680A43DA60012259690A4340
:1043F0005A61DA681443DC60F0BD7047010070B5A3
:1044000046310B78222B26D1802485680268436BC5
:104410006401A54220D10469002C1DD15268D20547
:10442000D20D1A8002334363438F013B9BB2438713
:10443000002B10D1202403680A4DDA68A243DA6009
:10444000DA682A40DA605A690335FF35AA435A61AF
:104450000C7000F0DBFF70BD52685C1C44631A7086
:10446000E2E7C046FFFEFFFF70470000F8B50368B3
:1044700004001A68D9685869150708D1202002423B
:104480005DD001425BD02000FFF7B8FFF8BD902659
:104490000125760028400E40064350D02A4204D021
:1044A000CB0502D5A36C1D43A564530705D5002891
:1044B00003D00223A56C2B43A364930705D50028E2
:1044C00003D00423A56C2B43A36408231A4204D011
:1044D000002802D0A06C0343A364A36C002BD5D0AA
:1044E00020231A4204D0194202D02000FFF786FF91
:1044F00040270822266820007569A36C3D401340C0
:104500001D4318D0FFF79AFD73693B420FD07369C2
:10451000206CBB437361002809D0284B4363FFF72D
:104520007DF80028B2D0206C436B9847AEE720009E
:10453000FFF79AFFAAE7FFF797FFA564A6E7802099
:10454000024229D0014227D0220045321278212A86
:104550009CD18021A068E26A4901884218D1216972
:10456000002915D111880232C905C90D5960E262CE
:10457000628E013A92B26286002A00D086E78021DC
:10458000DA688A43DA604022D9680A43DA607DE754
:10459000117801325960EAE74020024200D175E704
:1045A000014200D172E7DA688243DA6023002022F8
:1045B000453320001A70FFF720FF67E7C145000868
:1045C000002310B5406A43874386FFF74DFF10BDB7
:1045D000FA2307B59B0001900122034801A9FFF7C8
:1045E00021FE01980EBDC046FC050020FA2307B548
:1045F0009B000122024801A9FFF779FE01980EBD38
:10460000FC05002070B50E0014000025A54201DB5A
:10461000200070BD705DFFF7DBFF0135F6E770B578
:104620000E0014000025A54201DB200070BDFFF73D
:10463000DDFF70550135F6E7012310B5022804D9D6
:1046400004F078FB092303600023180010BD002349
:1046500010B5022804D904F06DFB092303600A3B5E
:10466000180010BD10B504F065FB0923036001209C
:10467000404210BD10B5022804D880239B014B6036
:10468000002010BD04F056FB09230360F8E710B5C5
:1046900004F050FB582303600120404210BD10B5C8
:1046A00004F048FB582303600120404210BD000085
:1046B0000C490D4A4B6812681B0C1B0413438022E3
:1046C0009201134310B54B600023084C08499A002F
:1046D000105901335050302BF9D18022054B9205EF
:1046E0009A6010BD00100240040FFF1F0000000878
:1046F0000000002000ED00E0F7B5184E184C736C78
:10470000184D019000281AD0210028006360236012
:10471000FEF77CFE002802D0082000F099FD336DE2
:104720006360210028002360FEF770FE002802D09D
:10473000082000F08DFD0C4B019A1A70F7BD0B4F4D
:104740002100280067602360FEF760FE002802D089
:10475000082000F07DFD336D6760E2E7500800201F
:104760004C06002058060020E4070020011000003D
:104770008022504B73B5196B520311431963196BA7
:104780004D484E4C01401963196C200011431964C7
:104790001B6C13400193019B494B2360FEF7A4FE61
:1047A000002802D0082000F053FD0122B02322612E
:1047B000A276C2221B06636000230421FF32E2615D
:1047C000621DA360E36023832362D377A36220008A
:1047D00005336161E362FEF787FD002802D00820FF
:1047E00000F036FD374E384DB368290020006B606D
:1047F0002B60FEF70BFE002802D0082000F028FDF9
:104800007369290020006B602B60FEF7FFFD002814
:1048100002D0082000F01CFD336A290020006B60E4
:104820002B60FEF7F3FD002802D0082000F010FDF9
:10483000F36A290020006B602B60FEF7E7FD00287B
:1048400002D0082000F004FDB36B290020006B604B
:104850002B60FEF7DBFD002802D0082000F0F8FCFA
:104860000120FFF749FF0B23290020006B602B601C
:10487000FEF7CCFD002802D0082000F0E9FC0C2354
:10488000290020006B602B60FEF7C0FD002802D0DD
:10489000082000F0DDFC0D4B0D4C18680D4B1B681B
:1048A000C01A01F00BFB011C0B4801F0E9F8206075
:1048B00073BDC04600100240FFFFEFFF5806002006
:1048C00000240140500800204C060020180FFF1F54
:1048D00048060020140FFF1F00005C420122014B1C
:1048E0009A707047620700200122014B1A707047CE
:1048F000620700200122014B5A70704762070020B6
:104900000122014B5A717047620700200122014BBE
:104910001A71704762070020F8B57E4C7E4D220068
:10492000703211887D4AE36E1078053803284FD81D
:10493000FBF7CEFB021D263601221800FFF75CF8BC
:104940002300002278331988606FFFF755F82300A1
:10495000002280331988E06FFFF74EF82300002211
:10496000883421880833D86FFFF746F8F8BD002255
:104970001800FFF741F82300783301221988E3E794
:1049800018000022FFF738F8230078331988002236
:10499000606FFFF731F82300803301221988DAE7CE
:1049A00018000022FFF728F8230078331988606F79
:1049B0000022FFF721F82300803319880022E06FDE
:1049C000FFF71AF823008834012221880833CAE748
:1049D000534E3278002A57D0EA78002A54D030005B
:1049E00028300078904207D218000122FFF704F81F
:1049F000B3880133B38003E000221800FEF7FCFF08
:104A0000330028331B780133DBB2F92B00D90023A4
:104A1000283633702300434E783319883378606F1B
:104A2000002B37D02A79002A34D0330028331F785E
:104A3000FA239B1A9F422DDD0122FEF7DDFFB3888A
:104A400001339BB2B380330028331B780133DBB2D0
:104A5000F92B00D90023283633702300324E8033DF
:104A600019883378E06F002B48D06B79002B45D044
:104A70003200283212789A4211D20122FEF7BCFF8E
:104A8000B3880133B3800DE018000022FEF7B4FFB5
:104A90000023AFE70022FEF7AFFF0023D2E700229A
:104AA000FEF7AAFF330028331B780133DBB2F92B62
:104AB00000D90023283633702300883421881B4C0A
:104AC0000833D86F2378002B1DD0AA79002A1AD07A
:104AD000230028331D78FA239B1A9D4213DD0122FF
:104AE000FEF78AFFA38801339BB2A3802834237882
:104AF0000133DBB2F92B0BD8237037E70022FEF726
:104B00007BFF0023BEE70022FEF776FF0023ECE7E1
:104B10000023F1E7500800206C070020C8070020A0
:104B200028070020F8060020C8060020980600206C
:104B300010B5094B1988094B1868FEF757FF084B49
:104B40001870084B002804D11A78012A01D10649AF
:104B50008A71187010BDC046E0080020DC080020F3
:104B600059070020580700206207002010B50B4BA2
:104B70000B4C1A780B4B586D58331988531F012B67
:104B800001D9092A03D10122FEF736FF04E0227879
:104B9000002AF9D0FEF736FF10BDC046C807002036
:104BA0006C0700205008002030B589B0FEF766FD84
:104BB000FEF782FD0C2301939E330593CF231B0246
:104BC0000693C12301A81B020793FEF7BBFD134CFC
:104BD0001349200004F0B4F82000FBF771FAFA231F
:104BE000104D82B29B0021002800FFF71BFBFEF74F
:104BF00085FD0D49200004F0A3F82000FBF760FAC2
:104C0000FA2382B221009B002800FFF70BFBFEF77E
:104C100067FDFEF745FD09B030BDC046440A0020DF
:104C2000DF9100080C0D0020FC91000813B50B4823
:104C30000B4C00780B4B0C4A1B7812780B490090F8
:104C4000200004F055F82000FBF73AFAFA2382B26C
:104C500021009B000648FFF7E5FA13BD0D0EFF1F6C
:104C6000440A00200E0EFF1F0F0EFF1F1A920008AD
:104C70000C0D002084B030B50E4B85B009919B78A7
:104C8000040009AD0998002B03D08021C90500F06C
:104C9000E9FC094B011C0293FA2301936B69200084
:104CA00000932B69EA6800F02FFB05B030BC08BC0C
:104CB00004B018476C07002000007A4300221A4B0A
:104CC0005A709A70DA705A719A711A70174B1900EB
:104CD0005C310A801900E0310A60002118009960F7
:104CE000D960196159611962D962996359649964EB
:104CF000196659669966D966196759671900D830D7
:104D000008310260CA6718001900DC308C311A7053
:104D10005A809A809A7102600A600132DA641A65D8
:104D20005A659A657047C046620700206C070020EC
:104D3000F0B50127802202262025A14C8BB0636BA1
:104D400092023B436363636BA0203B400093009B54
:104D5000E36B9C491343E363E36BC005134001938A
:104D6000019B636B33436363636B33400293029B2A
:104D7000636B2B436363636B0F602B400393039B55
:104D80000323CB6006334E608F600B61FEF792FD0C
:104D90008022236C520313432364236CA02013400E
:104DA0000493049B0523884CC005A3609B19636191
:104DB0000933238530339C46A3863A3BA363030023
:104DC0000422A3640823A683666426008021206051
:104DD000E060A06160622063E0637C486036C28767
:104DE0007B48A5800380053B7A4823657A4B218266
:104DF000E262636505802762E36535806646774831
:104E0000E3660680764863670180A0217548764B8B
:104E1000078076483E3EC3677548E367068075485D
:104E2000754E03607548C90502807548802301608E
:104E3000A0203560002573495B010B80013A3100E9
:104E4000C0057260B560FEF735FD0322238A31008C
:104E5000E06833607260B560FEF72CFD0322A38E1C
:104E60003100206B72603360B560FEF723FD594955
:104E7000606D0B8805A90593022306970893079791
:104E8000FEF718FD0322A38B3100A0693360726026
:104E9000B560FEF70FFD0322238D3100606A336099
:104EA0007260B560FEF706FD03224849E06BCB8FC8
:104EB000310033607260B560FEF7FCFC03224449A8
:104EC000A06C0B88310033607260B5600226FEF77B
:104ED000F1FC424AE06E138805A9059307960697F0
:104EE0000895FEF7E7FC3E4B606F1B8805A905930C
:104EF000079606970895FEF7DDFC3A4BE06F1B8896
:104F000005A90593079606970895FEF7D3FC384B3D
:104F100005A91B8807960593344B0697D86F08950B
:104F2000FEF7C8FC374B05A91B8807960593344B41
:104F3000069518680895FEF7BDFC304B05A91B883F
:104F4000069505932B4B079718680895FEF7B2FC5A
:104F50002D4B2E4E1F702E4BB5701F702D4BE06EDB
:104F60001A00283215702C4A1D809D809D701B4BA5
:104F7000577019882A00FEF73FFD194B2A0019883F
:104F8000606FFEF739FD254B35801D809D802833ED
:104F90001D70234BB5801D809D8028331D702836E1
:104FA000104B35702A001988E06FFEF725FD104B75
:104FB0002A0019880D4BD86FFEF71EFD0BB0F0BD0F
:104FC0000010024000090020500800205208002074
:104FD0009C080020A808002000040050C008002001
:104FE000C8080020D00800200014005058080020F5
:104FF000D8080020DC080020EC080020E008002091
:10500000E4080020E808002059070020F8060020E6
:1050100058070020280700206C070020C806002041
:1050200098060020F0B589B0FEF72AF900F0C4FA1E
:10503000FFF77EFE00F014FA00F0A2F9FFF798FBEC
:10504000FFF73CFE504C514B514A5249200003F0AF
:105050004FFE2000FBF734F8FA2382B221009B00B8
:105060004D48FFF7DFF8FFF7E1FD01214B4800F065
:1050700031FAFA214A4B490018704A4800F02AFADE
:10508000FA21494B490018704848059300F022FA6C
:10509000FA21474B490018704648069300F01AFA67
:1050A000454B46491870464800F014FA454B4649AE
:1050B0001870464800F00EFA454B0A211870454812
:1050C00000F008FAFA21444B49001870434807934E
:1050D00000F000FA424B434C187018232178424AE2
:1050E00059435018030094466D460C33C4CBC4C5D5
:1050F00062468368895842680020FFF7BBFD182389
:1051000021783A4A59435018030094466D460C33AF
:10511000C4CBC4C562468368895842680120FFF742
:10512000A9FD18232178324A5943501803009446A8
:105130006D460C33C4CBC4C5624683688958426847
:105140000220FFF797FD182321782A4A5943501867
:1051500003006C460C33E0CBE0C489588368426896
:105160000320FFF787FD0020059B185600F0CAF9C1
:105170000020079B185600F0C5F90020069B185622
:1051800000F0C0F909B0F0BD440A00202D920008DB
:105190003A920008429200080C0D002019490008BC
:1051A000610700206D4B000860070020F5480008EB
:1051B0005D070020DD4800085F07002060EA00006E
:1051C000E94800085E070020881300000149000834
:1051D0005C070020314B00085B0700200D490008E8
:1051E0005A070020C8070020FC0300208403002089
:1051F0000C0300209402002070B5FFF713FF104C41
:105200001049200003F09CFD2000FAF759FFFA2313
:105210000D4D82B29B0021002800FFF703F8FFF735
:10522000C3FC0A49200003F08BFD2000FAF748FF79
:10523000FA2382B2210028009B00FEF7F3FFFEE76D
:10524000440A0020619200080C0D00207D920008A5
:10525000F8B5060072B6274C274B00221988E06E7D
:10526000FEF7CAFB2300783319880022606FFEF72F
:10527000C3FB2300803319880022E06FFEF7BCFBDC
:105280002300220008338832D86F11880022FEF7ED
:10529000B3FB1A4D32001A49280003F029FD2800FB
:1052A000FAF70EFFFA23290082B2250015489B0069
:1052B000FEF7B8FF583501222988606DFEF79CFB88
:1052C00000222988606DFEF797FB01222988606D16
:1052D000FEF792FB0027BE42EDDD00222988606DBB
:1052E000FEF78AFB01222988606DFEF785FB0137F6
:1052F000F1E7C04650080020C0080020440A002002
:10530000A99200080C0D0020F7B506000F1C0092B2
:105310000193032803D90820FFF79AFFF7BD4C2318
:105320004343154C0025E3181A0001213C3211704B
:105330009D61DD611D625F62291C381CFBF7A2F8CC
:10534000002805D10D49381CFBF7B0F8002802D021
:105350000820FFF77DFF4C237343009A0998E25021
:10536000E418019B6360089BA36000F057FD0A9B53
:10537000E06025616361D1E7140900200000DC4290
:105380000F48104B10B50360E1235B02002443601B
:105390000C238460C460046184614361C461FEF7CE
:1053A000F3FEA04202D00820FFF752FF064B1C80FC
:1053B000064B1C80064B1C80064BDC7110BDC046A2
:1053C0000C0D002000440040080B0020060B0020BC
:1053D000040B00206207002013B50B4C2000FFF7E0
:1053E00045F823681A68D20606D5002201921A6889
:1053F00001925A680192019A1A68920602D52122F6
:1054000052421A6013BDC0460C0D002070B50E4903
:105410000E4A087814880E4DC0B228558020631CAF
:105420009BB213808000834201D300231380094A7A
:1054300009481388013313800122FEF7B5FF0122CA
:10544000064BDA7170BDC0460A0B0020080B002025
:105450000B0B0020040B00200C0D00206207002025
:1054600070B50025154B01201D60FDF727FF144C7A
:10547000144B200023601D23E360134B2561636000
:10548000A5606561A561FEF7BBFDA84202D00820BA
:10549000FFF7DEFE2000FEF7BDFC002802D008204A
:1054A000FFF7D6FE00231900084A1370084A01339B
:1054B0001170516014320C2BF9D170BD500E0020C8
:1054C000540E0020002C01401F0300004C0E002051
:1054D0005C0D002070B5094D2B780B2B0BD81424D4
:1054E00000265C43064AA6541219506091605A1C6B
:1054F0002A7058B270BD01204042FBE74C0E0020DC
:105500005C0D0020F8B50400002084421BDB0E4B2C
:105510001B789C4217DA1423FA2163430B4D890050
:10552000EB189E68D8600A4B186833188E4204D373
:105530004718FAF767FE7B1A9B1914220120624371
:10554000A9180B61A854F8BD4C0E00205C0D00207A
:10555000500E002070B50025134E144C33680133F3
:1055600033602378002B0ED02369326893420AD827
:10557000A168E3605B189A4200D353182361636803
:10558000002B00D09847013514340C2DE9D1084A7E
:105590001378002B04D1074A13680133136070BDE0
:1055A00001331370FBE7C046500E00205C0D002055
:1055B000580D0020440800200B230022802100B554
:1055C0008DB00593F5330893104B09921B680902BF
:1055D000DB04DB0C0B4305A80A9306920B92FEF743
:1055E0004BFA002802D00820FFF732FE00210723E3
:1055F00001A80193029103910491FEF757FB002843
:1056000002D00820FFF724FE0DB000BD100FFF1FD1
:105610000D4885460D480E490E4A002302E0D45835
:10562000C4500433C4188C42F9D30B4A0B4C0023EA
:1056300001E013600432A242FBD3FFF739F8FBF715
:1056400011FEFFF7D9FDFEE700200020C00000207A
:1056500074040020B097000878040020980E002001
:10566000FEE700004A02F8B5530ACE4699464B00C1
:10567000C90F4746884646004502360E1B0E80B5C8
:10568000C40F6F0A9209AD09F11A44454BD00029A5
:1056900038DD002B00D174E0FF2E00D1BEE0802366
:1056A000DB041A431B2900DCFDE0013D6B0100D443
:1056B000AFE001256D42AD01AF093800FAF7ACFF4C
:1056C0003B0005388340864200DCD3E0B94D311AF7
:1056D0001D405A0700D19EE00F221340042B00D139
:1056E00099E004356B0100D495E0481CFE2951D1A6
:1056F000FF200023C0051843E4072043C0BCB9467F
:10570000B046F8BD002949D0991B002E72D1002D5A
:1057100000D133E14C1E012900D159E1FF2900D10C
:105720004CE121006CE0002900DC81E0002B55D128
:10573000002A70D04B1E012900D12BE1FF296DD02A
:105740001B2B50DC190020235B1A10009A40C84024
:10575000531E9A410243AD188023DB041D4200D141
:10576000ADE0711CFE2EC3D001206A082840924D86
:10577000154005436A0700D08BE01D42B5D1EF0804
:1057800034E0002A47D04B1E012966D0FF2945D0BE
:10579000190087E7C0B2AB015B0AABE7FE239C466A
:1057A000701C03006046184200D092E0002E00D02A
:1057B000E7E0002D00D119E1002A17D08023AF1AAD
:1057C000DB041F4200D142E14446551B00D187E073
:1057D00001201D42DFD10021EF0807E0FF2E1DD080
:1057E0001B2900DC94E031000535EF087B025B0AE1
:1057F000C8B27FE7FF2B00D1E0E08020C004054362
:105800001B2900DC88E0551E44461E00690100D5B6
:105810004FE731000435EF08FF29E7D1002F00D111
:1058200066E78023DB033B435B02FF205B0A61E703
:10583000002958D0991B002E00D089E0002D00D1FE
:105840009DE04E1E012900D1A4E0FF2900D1B6E061
:105850001B2E00DDB8E0310081E0AA1A530100D40C
:10586000AFE09701BF093800FAF7D6FE3B000538D4
:10587000834001261D00811B20200131CD40411AAB
:105880008B40591E8B411D432AD000216B0700D14C
:10589000F0E00F232B40042B00D022E76B0100D552
:1058A00023E7EF08A2E720235B1A10009A40C840C4
:1058B000531E9A410243AD1A6B0100D5FBE66B07FC
:1058C00000D1D5E00F2331002B40042B00D008E796
:1058D000A1E7AF1A7B014ED4002F00D0EDE60024E3
:1058E0000020002306E7FE23711C0B4221D1002E6D
:1058F00000D081E0002D00D19FE0002A00D1B2E06D
:10590000AB185A0100D4B0E09B0101205B0AF1E61C
:105910008023DB041A4316E720242800C840611ABC
:105920008D4029004C1EA141014344461E00551ADA
:10593000C2E7FF2900D1DBE6AF187F087B0705D05F
:105940000F233D1D3B40042B00D064E7FF084DE7CB
:10595000FF2B34D01B2937DC8020C00405432800EE
:105960002026C840711A8D4029004D1EA9410143CF
:105970001E008D18F0E64446571B9EE6444615006F
:1059800049E7002D46D1002A66D180230024FF205C
:10599000DB03AFE6AA18530113D5074F520817408F
:1059A000530744D00F231340042B40D002213D1D48
:1059B00031E7C046FFFFFFFBFFFFFF7D44464F4638
:1059C0002CE70121D70811E705321900D7080DE7A8
:1059D000571B7B0137D5BF01BF093800FAF71CFE02
:1059E0003B00053883404446013643E7002A00D196
:1059F00075E744464F46F9E6002DE0D08023DB03EF
:105A0000002A17D09F4200D20BE7994500D308E740
:105A10004F4606E78023DB03002A0BD09F4200D2CB
:105A2000FFE6994500D3FCE644464F46F9E60221DD
:105A3000FF08DBE6FF203B435CE6002A00D14FE78E
:105A40000021D708D2E644460121FF08CEE6002F08
:105A500000D07BE7002443E780234A46DB0344462B
:105A6000FF20134346E60021C0E60021DF08BDE623
:105A70003100D0E601206A0100D58BE62A00DFE77D
:105A8000F0B546464F46D6464502C0B5C30F47005F
:105A900098460E1C6D0A3F0E5BD0FF2F21D080234D
:105AA000ED00DB041D43002399469A467F3F7402B4
:105AB0007300640A1B0EF60F002B20D0FF2B43D07F
:105AC00080220020E400D20414437F3B4246FF1AA8
:105AD0004B4672400F2B00D99DE071499B00CB587B
